:020000040800F2
:10000000784D012059020008D92D00082729000841
:10001000D52D000881080008413A000800000000C2
:100020000000000000000000000000009D0100082A
:10003000CF09000800000000F10100085F2F000850
:1000400073020008730200087302000873020008BC
:100050007302000873020008D1090008DB090008D8
:10006000E5090008EF0900087302000873020008A0
:10007000730200087302000873020008730200088C
:10008000850800089508000873020008730200083C
:10009000730200087302000873020008730200086C
:1000A000730200087302000873020008730200085C
:1000B000730200087302000873020008730200084C
:1000C000730200087302000873020008730200083C
:1000D00073020008213A0008313A00087302000850
:1000E000730200087302000873020008730200081C
:1000F000730200087302000873020008730200080C
:1001000073020008730200087302000873020008FB
:100110007302000873020008A93000087302000887
:100120007302000873020008A508000873020008A3
:1001300073020008730200087302000873020008CB
:1001400073020008730200087302000873020008BB
:100150007302000873020008B50800087302000863
:10016000730200087302000873020008730200089B
:100170007302000873020008730200080000000008
:100180007302000873020008DFF80CD000F066FB71
:100190000048004745490008784D01202B4B19685D
:1001A0000868B0E8F04F80F30988BFF36F8F4FF015
:1001B000000080F3118870470000000006480068C6
:1001C000006880F3088862B661B6BFF34F8FBFF353
:1001D0006F8F00DF00BF00BF08ED00E0DFF80C000C
:1001E000016841F470010160704700BF88ED00E0D4
:1001F000EFF30980BFF36F8F144B1A681EF0100FD6
:1002000008BF20ED108A20E9F04F106008B44FF0CD
:10021000500080F31188BFF34F8FBFF36F8F06F04C
:1002200067F84FF0000080F3118808BC196808686F
:10023000B0E8F04F1EF0100F08BFB0EC108A80F34A
:100240000988BFF36F8F704700BF00BF24000020F4
:10025000EFF30580704700000648804706480047D6
:10026000FEE7FEE7FEE7FEE7FEE7FEE7FEE7FEE766
:10027000FEE7FEE745300008890100082DE9F05F40
:100280000546002092469B46884606468146402405
:100290001BE0284641464746224600F030FA5346C6
:1002A0005A46C01A914110D311461846224600F012
:1002B00017FA2D1A67EB01084F462246012000214C
:1002C00000F00EFA17EB00094E41201EA4F10104C4
:1002D000DFDC484631462A464346BDE8F09F10B56C
:1002E000431A934209D28318881803E010F8011DBD
:1002F00003F8011D521EF9D210BD40EA01039B070D
:1003000003D009E008C9121F08C0042AFAD203E08A
:1003100011F8013B00F8013B521EF9D210BDD2B2D8
:1003200001E000F8012B491EFBD270470022F6E7DE
:1003300010B513460A4604461946FFF7F0FF20465B
:1003400010BD10B5002200E0521C835C8C5CA342FF
:1003500001D1002BF8D1D8B2E1B2401A10BD000093
:1003600070B500B91068002512E00B4602E0A64205
:1003700003D05B1C1C78002CF9D1E3B22B4305D0D1
:100380002CB125B1002100F8011B04E00546401CFA
:100390000678002EE9D11060284670BD004ADFE7DC
:1003A000040100202DE9FE4F804681EA0300C00FC2
:1003B0000C46009021F0004123F00045B8EB02000C
:1003C000A94105D24046214690461C460B460246AE
:1003D00023F00040104347D0270DC7F30A00C3F3B2
:1003E0000A510290401A019040286BDAC3F31300BF
:1003F00040F4801B0098924620B10023D2EB030A00
:1004000063EB0B0B01985946C0F14002504600F0D7
:1004100067F906460D4650465946019A00F07FF9A5
:1004200010EB08006141002487EA115284EAE77367
:100430001A4340D0009A62B3019A012A4FEA075248
:1004400015DC001B61EB02014FF0004202EA07528B
:10045000CDE90042001C41F5801132462B4600F0E8
:100460007FF903B0BDE8F08F40462146F9E7001B55
:1004700061EB0201001C41F5801300185B4120185C
:10048000A2F5001747EB030140EAD570B6196D419C
:1004900011E06D084FEA360645EAC0754FEA07528B
:1004A000001B61EB0201001C41F5801149084FEA75
:1004B00030000019514132462B4603B0BDE8F04FE1
:1004C00000F03FB90098012240000023D0EB020267
:1004D00063EBE073009821464FEAE074B8EB00004C
:1004E00061EB0401E9E783F000435BE781F0004141
:1004F00058E72DE9FE4F81EA030404F0004421F09F
:10050000004100944FF0000B23F0004350EA010437
:100510005ED052EA03045BD0C3F30A54C1F30A5518
:100520002C44A4F2F3340194A0FB0254C1F3130150
:1005300041F48011C3F3130343F4801301FB02441D
:1005400000FB034E840A970A44EA815447EA835722
:10055000A4FB076802958D0A05FB07854FEA932CDB
:1005600004FB0C542705029D4FEA065847EA16374C
:10057000B5EB08056EEB070C870E920E47EA811764
:1005800042EA8312A7FB0201B6EB0B0164EB000405
:100590002B0D43EA0C335E1844EB1C50DA465146EF
:1005A000E7FB0201C5F313044FEA0B3343EA14538C
:1005B0004FEA0432019C43EA0603A4F10C040294BE
:1005C000009CCDE900B400F0CBF803B0BDE8F08F9B
:1005D00000200146F9E72DE9F04D81EA030404F01B
:1005E000004B21F0004514464FF0000A23F0004173
:1005F00050EA050220D054EA01021DD0C5F30A5783
:100600000246C5F31303C1F31300C1F30A5640F4C5
:10061000801543F48013A7EB0608101BD64608F29A
:10062000FD3873EB050002D308F1010801E09218D0
:100630005B41B8F1000F03DA00200146BDE8F08D00
:1006400000204FF48011064684460EE0171B73EB22
:10065000050705D3121B63EB050306434CEA010CA7
:1006600049084FEA300092185B4150EA0107EDD18A
:1006700052EA030012D082EA040083EA050108432B
:1006800005D0101BAB4106D20122002306E0002258
:100690004FF0004302E06FF0010253101AEB060026
:1006A0004CEB085110EB0A0041EB0B01BDE8F04D9B
:1006B00000F047B830B50B46014600202022012447
:1006C00009E021FA02F59D4205D303FA02F5491B20
:1006D00004FA02F52844151EA2F10102F1DC30BD36
:1006E000202A04DB203A00FA02F1002070479140F2
:1006F000C2F1200320FA03F3194390407047202AE7
:1007000004DB203A21FA02F00021704721FA02F3BB
:10071000D040C2F120029140084319467047202A78
:1007200006DBCB17203A41FA02F043EAE07306E019
:1007300041FA02F3D040C2F1200291400843194629
:10074000704710B5141E73F1000408DA401C41F123
:10075000000192185B411A4301D120F0010010BD45
:100760002DE9F04D92469B4611B1B1FA81F202E0BB
:10077000B0FA80F220329046FFF7B2FF04460F46EF
:1007800040EA0A0041EA0B0153465A46084313D097
:10079000114653EA010019D0C8F140025046FFF754
:1007A000AEFF05460E46504659464246FFF798FFB3
:1007B000084305D0012004E020463946BDE8F08D0D
:1007C0000020054346EAE0762C4337430A98630548
:1007D000E40AA0EB08000022FD0A44EA47540A306C
:1007E00002D500200146E9E7010510196941DDE95C
:1007F000084500196941BDE8F04DA2E7C1F30A526E
:10080000C1F3130140F2FF3341F480119A4202DA3E
:1008100000200146704740F233439A42A2F233422D
:1008200002DC5242FFF76BBFFFF75ABF30B5041E20
:1008300071F1000404DB4FF00044404264EB01011D
:10084000141E73F1000405DB1C464FF000435242B6
:1008500063EB0403994208BF904230BD064C074D3C
:1008600006E0E06840F0010394E807009847103480
:10087000AC42F6D3FFF78CFC94720008B472000807
:1008800000BFFEE710B5024800F020F910BD0000DF
:1008900030A4002010B5024800F018F910BD000087
:1008A00090A4002010B5024800F010F910BD00001F
:1008B00070A3002010B5024800F008F910BD000038
:1008C000D0A300200146087810381823B0FBF3F2BB
:1008D0000848805CC865032A05D908686FF30900D9
:1008E000001D886503E008686FF309008865886D5E
:1008F000704700006C700008014600208A6A8B690E
:10090000CBB932B1012A0DD0022A03D0032A10D16B
:100910000EE000BFCB6A03F08073B3F1807F00D19B
:10092000012007E0CB6AB3F1C07F00D1012001E0D4
:1009300000E000BF34E08B69B3F5005F1AD132B13B
:10094000012A07D0022A03D0032A11D10AE000BFEE
:1009500001200EE0CB6A03F08073B3F1807F00D1F9
:10096000012006E0CB6AB3F1C07F00D1012000E096
:1009700000BF15E032B1012A05D0022A04D0032AB3
:100980000CD103E000BF00BF012008E0CB6A03F0F8
:100990008073B3F1807F00D1012000E000BF00BF71
:1009A000704730B50468246824F4802405682C60FE
:1009B000046863608468402C04D10468A260046801
:1009C000E16003E00468A1600468E26030BD704744
:1009D00010B5012000F084FA10BD10B5022000F01F
:1009E0007FFA10BD10B5042000F07AFA10BD10B5E2
:1009F000082000F075FA10BD70B50446A56D00F032
:100A00007DFB064694F83500022808D080206065FA
:100A100000BF002084F8340000BF012070BD2068B2
:100A2000006820F01600216808602068406920F006
:100A3000800021684861206C08B9A06C28B120684A
:100A4000006820F00800216808602068006820F035
:100A50000100216808600FE000F050FB801B0528B2
:100A60000AD92020606500BF002084F8340000BF50
:100A7000032084F83500D1E72068006800F0010009
:100A80000028E9D194F85C103F208840A86000BF9E
:100A9000002084F8340000BF012084F835000020D5
:100AA000BCE7014691F83500022803D08020486554
:100AB00001207047052081F835000868006820F0A3
:100AC00001000A6810600020F3E70000F8B5044652
:100AD000002000908C4800684FF41651B0FBF1F7ED
:100AE000A56D2E6894F85C1008208840304098B1BD
:100AF0002068006800F0040070B12068006820F0F1
:100B000004002168086094F85C1008208840A86000
:100B1000606D40F00100606594F85C100120884031
:100B2000304068B12068406900F0800040B194F81E
:100B30005C1001208840A860606D40F00200606594
:100B400094F85C1004208840304068B12068006848
:100B500000F0020040B194F85C1004208840A860C6
:100B6000606D40F00400606594F85C1010208840CF
:100B7000304078B32068006800F0080050B394F863
:100B80005C1010208840A8602068006800F4802075
:100B900080B12068006800F4002028B9206CC8B13A
:100BA0002046216C884715E0A06C98B12046A16CC6
:100BB00088470FE02068006800F4807028B920683A
:100BC000006820F0080021680860206C10B1204601
:100BD000216C884794F85C10202088403040002821
:100BE00065D02068006800F0100000285FD094F8FD
:100BF0005C1020208840A86094F83500052828D192
:100C00002068006820F016002168086020684069AC
:100C100020F0800021684861206C08B9A06C28B1E0
:100C20002068006820F008002168086094F85C10D3
:100C30003F208840A86000BF002084F8340000BF37
:100C4000012084F83500206D10B12046216D8847C1
:100C5000F8BD2068006800F4802080B1206800683A
:100C600000F4002028B9606C10B12046616C884700
:100C70001DE0E06BD8B12046E16B884717E02068A3
:100C8000006800F4807068B92068006820F01000E7
:100C90002168086000BF002084F8340000BF0120F4
:100CA00084F83500E06B10B12046E16B8847606D39
:100CB00038B3606D00F00100F0B1052084F8350014
:100CC0002068006820F001002168086000BF0098DB
:100CD000401C0090B84200D905E02068006800F090
:100CE00001000028F3D100BF00BF002084F83400C9
:100CF00000BF012084F83500E06C10B12046E16CA3
:100D0000884700BFA4E70000600000202DE9F04103
:100D10000446002500F0F2F9074614B90120BDE8A9
:100D2000F081606A00B100BF00BF002084F8340089
:100D300000BF022084F835002068006820F0010020
:100D4000216808600AE000F0D9F9C01B052805D920
:100D500020206065032084F83500E0E72068006803
:100D600000F001000028EED1206805682148054008
:100D7000D4E901010843E168084321690843616936
:100D80000843A1690843E1690843216A0843054310
:100D9000606A042803D1D4E90B01084305432068A5
:100DA00005602068456925F00705606A0543606AAB
:100DB00004280DD1A06A0543E06A48B12046FFF738
:100DC0009BFD28B140206065012084F83500A6E72E
:100DD000206845612046FFF775FD064694F85C10D3
:100DE0003F208840B06000206065012084F8350015
:100DF000002094E73F8010F02DE9F04704460D46AF
:100E000016461F464FF00008D4F8589000BF94F8DB
:100E10003400012802D10220BDE8F087012084F8C7
:100E2000340000BF94F8350001282BD1022084F84B
:100E30003500002060653B46324629462046FFF7D4
:100E4000B0FD94F85C103F208840C9F80800206885
:100E5000006840F01600216808602068406940F092
:100E6000800021684861206C28B12068006840F04B
:100E70000800216808602068006840F001002168CF
:100E8000086006E000BF002084F8340000BF4FF087
:100E900002084046C0E70000012805D10E49096854
:100EA000491C0D4A116016E0022805D10A4909685B
:100EB000491C094A11600EE0042805D10749096858
:100EC000491C064A116006E0082804D10349096854
:100ED000491C024A116070479800002094000020CD
:100EE00010B5044604480068204020B10248046060
:100EF0002046FFF7D1FF10BD143C0140F8B5024673
:100F00000B460025002400200021DCE0012606FA23
:100F100001F51E6806EA0504AC4273D15E68022E34
:100F200002D05E68122E13D1CF0802F1200656F8C7
:100F300027004E07F70E0F26BE40B0434F07FF0EA7
:100F40001E69BE403043CF0802F1200646F8270054
:100F500010684F000326BE40B0431E7906F003061A
:100F60004F00BE40304310605E68012E08D05E68BE
:100F7000022E05D05E68112E02D05E68122E13D1AB
:100F800090684F000326BE40B0434F00DE68BE406D
:100F900030439060506801268E40B0431E79C6F3FE
:100FA00000168E4030435060D0684F000326BE408C
:100FB000B0434F009E68BE403043D0605E6806F08C
:100FC0008056B6F1805F7DD100BF00260096404E6E
:100FD000366846F480463E4F3E603E46366806F42C
:100FE0008046009600BF00BF3A4E8F0856F8270093
:100FF0008E07370F0F26BE40B043374EB24202D1A4
:10100000002624E05EE0354EB24201D101261EE00A
:10101000334EB24201D1022619E0324EB24201D122
:10102000032614E0304EB24201D104260FE02F4EC9
:10103000B24201D105260AE02D4EB24201D1062668
:1010400005E02C4EB24201D1072600E008268F07AA
:101050003F0FBE4030431F4E8F0846F82700264EF4
:101060003068A0435E6806F48036B6F5803F00D154
:101070002043214E3060361D3068A0435E6806F480
:101080000036B6F5003F00D120431B4E361D3060C0
:10109000361D3068A0435E6806F48016B6F5801FE2
:1010A00000D12043144E08363060361D3068A0430E
:1010B0005E6806F40016B6F5001F00D120430E4E00
:1010C0000C363060491C1029FFF420AFF8BD000039
:1010D0004438024008380140000002400004024049
:1010E00000080240000C02400010024000140240C0
:1010F00000180240001C0240003C0140014800680A
:10110000704700006400002002480068401C01494C
:10111000086070476400002010B50D48006840F476
:1011200000700B4908600846006840F48060086061
:101130000846006840F480700860032000F094F8CE
:101140000F2000F007F800F019F8002010BD000093
:10115000003C024070B50446074800684FF47A71BD
:10116000B0FBF1F5284600F0EDFB00222146501EB1
:1011700000F03CF8002070BD6000002010B5032096
:1011800000F072F8002211466FF00B0000F02EF80C
:10119000002211466FF00A0000F028F800221146E4
:1011A0006FF0090000F022F800221146501F00F0F5
:1011B0001DF800221146101F00F018F800220F2120
:1011C000901E00F013F800220F21501E00F00EF8C0
:1011D00010BD00BF00F01F020121914042099200A2
:1011E00002F1E022C2F8001100BF70472DE9F05F64
:1011F00080460D461646002701F0F0FD07463946A9
:101200002A46334601F00700C0F1070ABAF1040F7D
:1012100002D94FF0040A01E0C0F1070AD14600F1FB
:10122000040ABAF1070F02D24FF0000A01E0A0F160
:10123000030AD4464FF0010A0AFA09FAAAF1010A90
:101240000AEA020A0AFA0CFA4FF0010B0BFA0CFB3D
:10125000ABF1010B0BEA030B4AEA0B0421464046B3
:1012600001F0C4FDBDE8F09F00BF00F00702064B8F
:1012700019684FF6FF031940044B0B4343EA022160
:10128000014B196000BF70470CED00E00000FA054B
:1012900070B504460D460CB9012070BD5848006871
:1012A00000F00F00A84209D255490D7008460068A9
:1012B00000F00F00A84201D00120EEE7207800F0F6
:1012C000020002281DD1207800F00400042805D176
:1012D0004C48006840F4E0504A490860207800F02B
:1012E0000800082805D14748006840F46040454997
:1012F00008604448006820F0F000A16808434149B4
:101300000860207800F00100A8B36068012807D1C8
:101310003C4808380068C0F34040B8B90120BCE739
:101320006068022802D06068032807D13548083871
:101330000068C0F3406048B90120AEE73148083882
:101340000068C0F3400008B90120A6E72D480068F6
:1013500020F00300616808432A490860FFF7CEFEC9
:10136000064609E0FFF7CAFE801B41F28831884239
:1013700002D9032091E707E02248006800F00C0042
:101380006168B0EB810FEDD11D48006800F00F00DF
:10139000A84209D91A490D700846006800F00F00EC
:1013A000A84201D0012078E7207800F0040004284A
:1013B00007D11448006820F4E050E168084311495F
:1013C0000860207800F00800082808D10D4800685F
:1013D00020F46040216940EAC1000A49086000F039
:1013E0003DF808490968C1F30311074A515CC84038
:1013F000064908600F20FFF7ADFE00204DE7000012
:10140000003C024008380240547000086000002090
:1014100001480068704700006000002000B5FFF739
:10142000F7FF04490968C1F38221034A515CC840AF
:1014300000BD0000083802406470000800B5FFF7E6
:10144000E7FF04490968C1F34231034A515CC840CF
:1014500000BD000008380240647000082DE9F04724
:10146000002400250026A1462548006800F00C0055
:1014700020B1042805D008283AD105E0DFF884908F
:1014800039E0DFF8849036E01D48001F006800F066
:101490003F041B48001F006800F4800078B11A4820
:1014A0001749091F0968C1F38811A0FB01700146A3
:1014B000224600233846FEF7E1FE05460EE01148BD
:1014C0000F49091F0968C1F38811A0FB017001468B
:1014D000224600233846FEF7D1FE05460848001F85
:1014E0000068C0F30140401C4600B5FBF6F902E07D
:1014F000DFF8109000BF00BF4846BDE8F08700004D
:10150000083802400024F40000127A0038B504467E
:101510000CB9012038BD207800F00100002874D0FB
:10152000F848006800F00C0004280DD0F548006869
:1015300000F00C00082813D1F248001F006800F4E6
:101540008000B0F5800F0BD1EE4808380068C0F37A
:101550004040002859D06068002856D10120D9E7C2
:1015600000BF6068B0F5803F08D1E64808380068E1
:1015700040F48030E349083908601EE06068B0F547
:10158000A02F0DD1DF480838006840F48020DD49E5
:10159000083908600846006840F4803008600CE0B4
:1015A000D8480838006820F48030D64908390860E7
:1015B0000846006820F48020086000BF606890B191
:1015C000FFF79CFD054606E0FFF798FD401B6428E9
:1015D00001D903209EE7CB4808380068C0F340409B
:1015E0000028F1D011E0FFF789FD054606E0FFF77E
:1015F00085FD401B642801D903208BE7C1480838CA
:101600000068C0F340400028F1D1207800F00200CB
:1016100002285FD1BB48006800F00C0058B1B948FF
:10162000006800F00C0008281CD1B648001F0068B4
:1016300000F48000B0B9B34808380068C0F3400037
:1016400020B1E068012801D0012063E7AD480838E7
:10165000006820F0F800216940EAC100A949083972
:10166000086037E0E06800B30120A7490860FFF791
:1016700045FD054606E0FFF741FD401B022801D964
:10168000032047E79F4808380068C0F3400000285F
:10169000F1D09C480838006820F0F800216940EA41
:1016A000C10098490839086014E000209649086094
:1016B000FFF724FD054606E0FFF720FD401B02284A
:1016C00001D9032026E78F4808380068C0F340009E
:1016D0000028F1D1207800F0080008282CD160699A
:1016E000A8B1012089490860FFF708FD054606E01A
:1016F000FFF704FD401B022801D903200AE78148B7
:101700006C300068C0F340000028F1D014E00020E5
:101710007E490860FFF7F2FC054606E0FFF7EEFCA5
:10172000401B022801D90320F4E676486C3000689B
:10173000C0F340000028F1D1207800F00400042814
:101740007FD100BF002000906E483830006840F024
:1017500080506C49383108600846006800F08050BD
:10176000009000BF00BF6A48006840F4807068497C
:101770000860FFF7C3FC054606E0FFF7BFFC401B0F
:10178000022801D90320C5E66148006800F4807092
:101790000028F2D000BFA068012808D1594868305D
:1017A000006840F001005749683108601DE0A068FA
:1017B00005280DD153486830006840F004005149B5
:1017C000683108600846006840F0010008600CE0DD
:1017D0004C486830006820F001004A4968310860D0
:1017E0000846006820F00400086000BFA068A0B1AF
:1017F000FFF784FC054608E0FFF780FC401B41F240
:101800008831884201D9032084E63E486830006868
:10181000C0F340000028EFD013E0FFF76FFC05464F
:1018200008E0FFF76BFC401B41F28831884201D988
:1018300003206FE6334868300068C0F3400000289A
:10184000EFD1A069B8B32F48006800F00C00082859
:1018500060D0A06902283ED100202B490866FFF71E
:101860004DFC054606E0FFF749FC401B022801D964
:1018700003204FE6234808380068C0F34060002882
:10188000F1D1D4E907010843616A40EA81110122DC
:10189000A06AC2EB500041EA00412C20005D41EA01
:1018A00000601849091F0860012017490866FFF702
:1018B00025FC054607E02FE0FFF720FC401B02282F
:1018C00001D9032026E60F4808380068C0F34060BD
:1018D0000028F1D020E000200B490866FFF70EFC3D
:1018E000054606E0FFF70AFC401B022801D9032049
:1018F00010E6044808380068C0F340600028F1D1C1
:101900000AE007E00838024000004742800E4742E4
:10191000007000400120FDE50020FBE5042808D10F
:101920004FF0E021096941F004014FF0E02211611C
:1019300007E04FF0E021096921F004014FF0E022B7
:101940001161704770B504462546681EB0F1807F6E
:1019500001D301200FE0681E4FF0E02148610F2104
:101960004FF0FF3001F042FA00204FF0E021886193
:1019700007200861002070BD70477047024600BF15
:1019800092F83800012801D102207047012082F826
:10199000380000BF022082F839001068406820F04B
:1019A000700013685860106840680B68184313682B
:1019B00058601068806820F0800013689860106894
:1019C00080684B68184313689860012082F83900DA
:1019D00000BF002082F8380000BF00BFD5E710B577
:1019E00004460CB9012010BD94F8390028B9002034
:1019F00084F83800204600F00DF8022084F8390001
:101A0000211D206801F058FB012084F839000020D6
:101A1000E9E7000038B504462068B0F1804F0FD1E7
:101A200000BF002000902948006840F001002749CD
:101A300008600846006800F00100009000BF43E025
:101A40002349206888420FD100BF002000901F4822
:101A5000006840F002001D4908600846006800F078
:101A60000200009000BF2FE01A49206888420FD181
:101A700000BF002000901548006840F004001349A2
:101A800008600846006800F00400009000BF1BE0FA
:101A900011492068884217D100BF002000900B48F0
:101AA000006840F01000094908600846006800F02E
:101AB0001000009000BF00BF002205213620FFF774
:101AC00095FB3620FFF785FB38BD0000403802400B
:101AD0000004004000080040001000400146086873
:101AE000C06840F001000A68D0600868006840F0F3
:101AF00001000A681060002070472DE9F04104469B
:101B00000D46002600BF94F83800012802D10220BB
:101B1000BDE8F081012084F8380000BF022084F87D
:101B200039002068866826F0770626F47F4620680C
:101B30008660286850283BD00CDC202860D004DC6C
:101B4000002853D0102865D155E030285DD04028BA
:101B500060D141E0602835D070280DD0B0F5805FAD
:101B600003D0B0F5005F55D115E02068806820F003
:101B70000700216888604EE0D5E902136A68206892
:101B800001F01AFB2068866826F0770646F0770693
:101B9000206886603FE0D5E902136A68206801F09A
:101BA0000BFB2068806840F480402168886032E048
:101BB000EA686968206801F0F5FB5021206801F0AF
:101BC00007FB28E0EA686968206801F000FC6021F2
:101BD000206801F0FDFA1EE0EA686968206801F0FB
:101BE000E1FB4021206801F0F3FA14E000212068B5
:101BF00001F0EEFA0FE01021206801F0E9FA0AE0A6
:101C00002021206801F0E4FA05E03021206801F08D
:101C1000DFFA00E000BF00BF012084F8390000BFF8
:101C2000002084F8380000BF00BF71E72DE9F041C3
:101C300004460D464FF000080026002714B9012085
:101C4000BDE8F08194F8390028B9002084F8380004
:101C5000204600F045F8022084F8390020688068AA
:101C600020F0070021688860211D206801F024FA17
:101C70002068D0F80880206886692068076A28688C
:101C800040EA080840F203308643A969A86840EAA0
:101C90000120064340F60C4086434FF2F000864395
:101CA000E969E86840EA0120064328690001296AD9
:101CB00040EA0130064327F0220727F088076969C8
:101CC000686840EA011007432068C0F8088020686F
:101CD000866120680762012084F839000020AFE7A0
:101CE00010B586B004464349206888422FD100BF12
:101CF000002000904048006840F002003E49086023
:101D00000846006800F00200009000BF00BF00BF5E
:101D10000020009038481038006840F00200364932
:101D2000103908600846006800F00200009000BF0B
:101D300000BF302001900220029000200390049008
:101D40000220059001A92D48FFF7D8F84FE0206840
:101D5000B0F1804F4BD100BF0020009026480068B2
:101D600040F00100244908600846006800F00100C6
:101D7000009000BF00BF00BF002000901E48103838
:101D8000006840F001001C491039086008460068EE
:101D900000F00100009000BF00BF00BF00200090D5
:101DA0000846006840F0020008600846006800F03D
:101DB0000200009000BF00BF0820019002200290A6
:101DC0000020039004900120059001A90B48FFF723
:101DD00095F84FF4004001900220029000200390FB
:101DE00004900120059001A90548FFF787F806B087
:101DF00010BD0000000400404038024000040240D2
:101E00000000024030B504460D4615B1042D0CD13A
:101E100005E001220021206801F0C0F910E0012254
:101E20000421206801F0BAF90AE0012200212068AB
:101E300001F0B4F901220421206801F0AFF900BFDC
:101E400000BF2068006840F00100216808600020A1
:101E500030BD704710B5044620680069C0F34000EB
:101E6000D8B12068C068C0F34000B0B16FF0020084
:101E700021680861012020762068806900F0030055
:101E800018B12046FFF7E5FF05E0204600F0DEF838
:101E9000204600F07BF90020207620680069C0F31E
:101EA0008000D8B12068C068C0F38000B0B16FF086
:101EB000040021680861022020762068806900F40F
:101EC000407018B12046FFF7C4FF05E0204600F03F
:101ED000BDF8204600F05AF90020207620680069FD
:101EE000C0F3C000D8B12068C068C0F3C000B0B172
:101EF0006FF0080021680861042020762068C0691E
:101F000000F0030018B12046FFF7A3FF05E02046CC
:101F100000F09CF8204600F039F900202076206877
:101F20000069C0F30010D8B12068C068C0F3001089
:101F3000B0B16FF010002168086108202076206899
:101F4000C06900F4407018B12046FFF782FF05E039
:101F5000204600F07BF8204600F018F9002020769B
:101F60002068006900F0010058B12068C06800F0E6
:101F7000010030B16FF0010021680861204600F0D7
:101F80002DF920680069C0F3C01058B12068C068FE
:101F9000C0F3C01030B16FF08000216808612046A6
:101FA000FFF7EAFC20680069C0F3801058B1206890
:101FB000C068C0F3801030B16FF040002168086144
:101FC000204600F027F920680069C0F3401058B19E
:101FD0002068C068C0F3401030B16FF02000216865
:101FE00008612046FFF7C9FC10BD000010B586B09F
:101FF00004461349206888420DD130200190022008
:1020000002900020039004900220059001A90D4841
:10201000FEF774FF11E00C49206888420DD14FF49F
:102020007070019002200290002003900490022022
:10203000059001A90348FEF761FF06B010BD00003E
:10204000000400400004024000080040704770B5E2
:1020500004460D46164600BF94F83800012801D109
:10206000022070BD012084F8380000BF022084F8EF
:10207000390036B1042E1BD0082E31D00C2E5ED183
:1020800045E02946206801F0ADF82068806940F0FD
:102090000800216888612068806920F004002168B8
:1020A000886120688069296908432168886147E060
:1020B0002946206801F0CEF82068806940F400606D
:1020C000216888612068806920F4806021688861C7
:1020D00020688069296940EA0120216888612FE031
:1020E0002946206801F0F2F82068C06940F0080035
:1020F0002168C8612068C06920F004002168C861B7
:102100002068C069296908432168C86118E0294628
:10211000206801F017F92068C06940F40060216868
:10212000C8612068C06920F480602168C8612068A7
:10213000C069296940EA01202168C86100E000BF48
:1021400000BF012084F8390000BF002084F8380067
:1021500000BF00BF85E710B504460CB9012010BDD3
:1021600094F8390028B9002084F83800204600F09F
:102170000CF8022084F83900211D206800F09CFF33
:10218000012084F839000020E9E77047704700001B
:1021900030B504460D4601222946206800F0FEFFB6
:1021A0000C492068884203D00B492068884201D13D
:1021B000012000E0002028B12068406C40F400407D
:1021C000216848642068006840F0010021680860C8
:1021D000002030BD000001400004014010B504465D
:1021E000094884420ED109480068401C074908602C
:1021F00008460068052805D30020086004480068E8
:1022000002F072FD10BD0000B4A20020CC0000203E
:102210006C000020704770B50446002520684069B6
:10222000C0F3C01594F8390021280ED16DB1206893
:10223000406920F0800021684861206B10B1206B5C
:10224000FEF7DAFB204601F076F920684069C0F31A
:10225000801594F83A0022280ED16DB120684069AB
:1022600020F0400021684861606B10B1606BFEF7A0
:10227000C3FB204601F03FF9002070BD704700000D
:102280002DE9F0470446206805682068C668206884
:1022900047694FF00008C14605F00F08B8F1000F7C
:1022A0000AD105F0200038B106F0200020B1204608
:1022B00001F04BF9BDE8F087B8F1000F6DD007F0E1
:1022C000010018B906F49070002866D005F00100EE
:1022D00030B106F4807018B1E06B40F00100E063AB
:1022E00005F0040030B107F0010018B1E06B40F0D8
:1022F0000200E06305F0020030B107F0010018B100
:10230000E06B40F00400E06305F0080030B107F036
:10231000010018B1E06B40F00800E063E06B68B3C7
:1023200005F0200028B106F0200010B1204601F091
:102330000CF920684069C0F38019E06B00F00800D8
:1023400010B9B9F1000F22D0204601F0D4F820686E
:10235000406900F04000B0B12068406920F04000C2
:1023600021684861606B50B11748616B0865606B0C
:10237000FEF797FB10B1606B016D88470CE02046BB
:10238000FFF77CFF08E02046FFF778FF04E02046D7
:10239000FFF774FF0020E0638CE705F0800030B1A8
:1023A00006F0800018B1204601F0D0FA82E705F06F
:1023B000400030B106F0400018B1204601F0ABF803
:1023C00078E700BF76E70000FB33000810B504464D
:1023D0000CB9012010BDA06900B100E000BF94F865
:1023E000390028B9002084F83800204600F028F889
:1023F000242084F839002068C06820F40050216847
:10240000C860204601F0EEF82068006920F4904092
:10241000216808612068406920F02A00216848612D
:102420002068C06840F400502168C8600020E06364
:10243000202084F8390084F83A000020CAE7000020
:1024400010B586B004467049206888426CD100BF40
:10245000002000906D48006840F010006B49086053
:102460000846006800F01000009000BF00BF4FF465
:10247000C06001900220029001200390032004908C
:102480000720059001A96248FEF738FD61486249BE
:1024900008604FF00060486000215F488160C160C3
:1024A0004FF4806101610021416181614FF48071CD
:1024B000C161002101624162FEF728FC20B140F2B7
:1024C0003B1156A001F0BEFA00BF5348606384631D
:1024D00000BF50487830584908604FF000604860AD
:1024E0004021554881600021C1604FF48061016145
:1024F000002141618161C16101624162FEF706FC18
:1025000020B140F24D1145A001F09CFA00BF4A48AD
:102510002063846300BF002205212520FEF766FEAC
:102520002520FEF756FE6DE044492068884269D1B7
:1025300000BF002000903548001F006840F40030C4
:102540003249091F08600846006800F40030009016
:1025500000BF00BF60200190022002900120039084
:10256000032004900720059001A93548FEF7C6FC1A
:102570003448354908604FF0006048600021324817
:102580008160C1604FF4806101610021416181611E
:10259000C16101624162FEF7B9FB20B14FF4BD7128
:1025A0001EA001F04FFA00BF27486063846300BF9C
:1025B00024481830254908604FF0006048604021E9
:1025C000224881600021C1604FF4806101610021D7
:1025D00041618161C16101624162FEF797FB20B1F7
:1025E0004FF4C6710DA001F02DFA00BF174820630B
:1025F000846300BF002205212620FEF7F7FD262078
:10260000FEF7E7FD06B010BD00100140443802405F
:10261000000002404064024070A300202E2E2F5381
:1026200072632F73746D3332663478785F68616CCF
:102630005F6D73702E630000D0A300200044004043
:10264000000C02408860024030A4002090A40020CA
:1026500077B581B00446154694F83A00202850D149
:10266000029800B115B9012004B070BD00BF94F804
:102670003800012801D10220F6E7012084F8380053
:1026800000BF0298A062A5850020E063222084F8A4
:102690003A001D48616BC8631C48616B08641C48A4
:1026A000616BC8640020616B086502AE3268236804
:1026B000191D2B46606BFEF79FFB00BF00200090AA
:1026C00020680068009020684068009000BF00BF4C
:1026D00000BF002084F8380000BF2068C06840F4C4
:1026E00080702168C8602068406940F0010021685E
:1026F00048612068406940F040002168486100203E
:10270000B2E70220B0E700005F340008A5340008FB
:102710000F34000810B504460748844204D1074826
:10272000006802F0E1FA06E00548844203D105485A
:10273000006802F0D9FA10BDF0A200207400002059
:1027400030A300207C00002010B5044607488442D6
:1027500004D10748006802F0C7FA06E00548844241
:1027600003D10548006802F0BFFA10BDF0A20020B6
:102770007400002030A300207C0000202DE9F843E5
:1027800004460D4616461F464FF0000994F83900DE
:1027900020285CD105B116B90120BDE8F88300BF3F
:1027A00094F83800012801D10220F6E7012084F8CE
:1027B000380000BF0020E063212084F83900FEF7D4
:1027C0009DFC8146A684E6842BE0E08C401EE084DC
:1027D000A068B0F5805F16D14B46002280212046CC
:1027E000009701F0E7F808B10320D6E7A846B8F84B
:1027F0000000C0F3080021684860206908B9AD1CDA
:102800000FE06D1C0DE04B46002280212046009712
:1028100001F0D0F808B10320BFE715F8010B2168DB
:102820004860E08C0028D0D14B4600224021204651
:10283000009701F0BFF808B10320AEE7202084F82C
:10284000390000BF002084F8380000BFA5E702204F
:10285000A3E70000F7B50446154694F83900202890
:102860003DD1019800B10DB90120FEBD00BF94F823
:102870003800012801D10220F7E7012084F8380050
:1028800000BF01982062A584E5840020E063212038
:1028900084F839001348216BC8631348216B08641E
:1028A0001248216BC8640020216B086501AE2368C3
:1028B0001A1D31682B46206BFEF79EFA6FF0400020
:1028C0002168086000BF002084F8380000BF20683D
:1028D000406940F08000216848610020C5E702207F
:1028E000C3E70000B3340008E93400080F340008DF
:1028F00010B504460748844204D10748006802F036
:10290000F3F906E00548844203D10548006802F067
:10291000EBF910BDF0A200207000002030A30020D1
:1029200078000020704700BFFEE7000008B500BF38
:10293000002000901E48006840F480001C49086098
:102940000846006800F48000009000BF00BF00BF90
:10295000002000900846006840F400100860084617
:10296000006800F40010009000BF00BF00220521A5
:102970001020FEF73BFC1020FEF72BFC0022052167
:102980001120FEF733FC1120FEF723FC0022052165
:102990003A20FEF72BFC3A20FEF71BFC0022052113
:1029A0004620FEF723FC4620FEF713FC08BD00007E
:1029B0003038024000B587B000BF002001903A488F
:1029C000006840F01000384908600846006800F0D0
:1029D0001000019000BF00BF00BF0020019008461A
:1029E000006840F0800008600846006800F0800041
:1029F000019000BF00BF00BF0020019008460068A2
:102A000040F0010008600846006800F001000190F5
:102A100000BF00BF00BF002001900846006840F0E2
:102A2000080008600846006800F00800019000BF38
:102A300000BF00BF002001900846006840F002007F
:102A400008600846006800F00200019000BF00BF67
:102A50000F200290154803900020049002A914480A
:102A6000FEF74CFA002205210620FEF7BFFB0620E8
:102A7000FEF7AFFB002205210720FEF7B7FB07207A
:102A8000FEF7A7FB002205210820FEF7AFFB082078
:102A9000FEF79FFB002205210920FEF7A7FB092076
:102AA000FEF797FB07B000BD303802400000311040
:102AB0000010024000B58FB04FF0804029490860F7
:102AC000002048600021274881604FF6FE71C160F8
:102AD00000210161FEF783FF18B1FE2122A000F062
:102AE000B1FF4FF480500B900BA91E48FFF705F87B
:102AF00020B14FF482711CA000F0A4FF1948FFF729
:102B00002AFB20B140F2091117A000F09BFF002022
:102B100009900A9009A91348FEF730FF20B14FF43D
:102B2000887111A000F08EFF03200090002001901A
:102B3000012002900020039004900590012006904F
:102B400000200790089069460648FFF76FF820B10B
:102B500040F21F1104A000F075FF0248FFF7C0F813
:102B60000FB000BD00A200202E2E2F5372632F6DD8
:102B700061696E2E6300000000B58FB02A482B49B2
:102B80000860002048600021284881604FF6FE71EF
:102B9000C16000210161FEF722FF20B140F2351132
:102BA00023A000F04FFF4FF480500B900BA91F485B
:102BB000FEF7A3FF20B140F23B111DA000F042FF41
:102BC0001A48FFF7C8FA20B14FF4A07118A000F01E
:102BD00039FF002009900A9009A91448FEF7CEFE9B
:102BE00020B140F2471112A000F02CFF032000900A
:102BF0000020019001200290002003900490059095
:102C00000120069000200790089069460748FFF7CA
:102C10000DF820B14FF4AB7105A000F013FF03488D
:102C2000FFF75EF80FB000BD000400403CA200209A
:102C30002E2E2F5372632F6D61696E2E630000007C
:102C400000B58DB037483849086000204860002141
:102C50003548816042F2CF01C16000210161FEF779
:102C6000BEFE20B140F26B1130A000F0EBFE4FF43D
:102C70008050099009A92C48FEF73FFF20B140F28F
:102C800071112AA000F0DEFE2748FFF764FA20B198
:102C90004FF4BB7125A000F0D5FE002007900890EE
:102CA00007A92148FEF76AFE20B140F27D111FA05E
:102CB00000F0C8FE60200090002001900290049077
:102CC000002269461848FFF7C2F920B140F2871187
:102CD00016A000F0B7FE042269461348FFF7B7F9C3
:102CE00020B14FF4C67111A000F0ACFE0822694675
:102CF0000D48FFF7ACF920B140F291110BA000F0A4
:102D0000A1FE0C2269460848FFF7A1F920B14FF453
:102D1000CB7106A000F096FE0348FFF767F90DB0EF
:102D200000BD00000008004078A200202E2E2F5386
:102D300072632F6D61696E2E6300000010B50C4840
:102D40000C4908604FF4E130486000210948816077
:102D5000C16001610C21416100218161C161FFF706
:102D600035FB20B140F2C31103A000F06BFE10BD93
:102D700000100140F0A200202E2E2F5372632F6D01
:102D800061696E2E6300000010B50C480C490860A4
:102D90004FF4E1304860002109488160C160016161
:102DA0000C21416100218161C161FFF70FFB20B15E
:102DB0004FF4EB7103A000F045FE10BD004400404D
:102DC00030A300202E2E2F5372632F6D61696E2E5B
:102DD0006300000000BFFEE7704700000248006883
:102DE000C0F30220704700000CED00E010B5002891
:102DF00007DA0A07140E054A00F00F031B1FD4540C
:102E000003E00A07130E024A135410BD18ED00E048
:102E100000E400E09FED0A0A80ED090A9FED080A30
:102E200080ED0A0A9FED060A80ED0B0A9FED040A69
:102E300080ED0C0A9FED020A80ED0D0A704700003C
:102E400000000000F0EE401A31EEE00AB0EE401A49
:102E500090ED000A20EE010AB0EE402A90ED010A42
:102E6000F6EE002A20EE220AD0ED082A60EE222A91
:102E700090ED0A0A30EE013A90ED090A02EE830A5B
:102E800080ED090A90ED090AD0ED072AB4EEE20AB6
:102E9000F1EE10FA04DD90ED070A80ED090A0CE06E
:102EA00090ED090AD0ED062AB4EEE20AF1EE10FA2E
:102EB00003D290ED060A80ED090A90ED020AF0EEC9
:102EC000002A20EE220AD0ED0C2A70EEE22A20EE33
:102ED000220AD0ED082A90ED033AF0EE003A53EEC4
:102EE000832A90ED0B3A02EE830AF1EE402A90ED30
:102EF000080A90ED033AF0EE003A03EE830A82EE00
:102F0000803A80ED0B3A90ED090A30EE020AD0EDDE
:102F10000B2A30EE220A80ED0D0A90ED0D0AD0ED5D
:102F2000052AB4EEE20AF1EE10FA04DD90ED050A8E
:102F300080ED0D0A0CE090ED0D0AD0ED042AB4EE00
:102F4000E20AF1EE10FA03D290ED040A80ED0D0AC8
:102F500080ED0A1AC0ED0C0A90ED0D0A704710B50D
:102F6000FEF7D2F801F01EFF10BD000010B592B0C0
:102F700000BF002000902D48006840F080502B4991
:102F800008600846006800F08050009000BF00BF55
:102F900000BF002000902648006840F4804024498B
:102FA00008600846006800F48040009000BF00BF41
:102FB000012006900004079002200C9041050D911D
:102FC00008210E914FF4A8710F9102211091042154
:102FD000119106A8FEF79AFA18B1D12115A000F0B8
:102FE00031FD0F20019002200290002003900490F8
:102FF0000590052101A8FEF74BF918B1DF210DA0BE
:1030000000F020FDFEF704FA4FF47A71B0FBF1F402
:103010002046FEF797FC0420FEF780FC00220F21DB
:10302000501EFEF7E3F812B010BD00004038024019
:10303000007000402E2E2F5372632F6D61696E2E2B
:10304000630000001448006840F4700012490860F2
:103050001248006840F001001049086000200F4944
:10306000083108600D4800680D4908400B490860A8
:103070000C48091D0860081F006820F48020091F03
:103080000860002005490C3108604FF000600249DB
:10309000803908607047000088ED00E00038024089
:1030A000FFFFF6FE1030002410B50248FEF7D2FEF6
:1030B00010BD0000B4A20020002202682C4B9842F0
:1030C0000ED0B0F1804F0BD02A4B984208D02A4B3B
:1030D000984205D0294B984202D0294B984201D101
:1030E000012300E000231BB122F070024B681A4359
:1030F0001F4B984220D0B0F1804F1DD01D4B9842FD
:103100001AD01D4B984217D01C4B984214D01C4B20
:10311000984211D01B4B98420ED01B4B98420BD0BB
:103120001A4B984208D01A4B984205D0194B984236
:1031300002D0194B984201D1012300E000231BB1BA
:1031400022F44072CB681A4302608B68C3620B683A
:103150008362074B984202D0094B984201D1012368
:1031600000E000230BB10B69036301234361704747
:10317000000001400004004000080040000C004036
:10318000000401400040014000440140004801406B
:1031900000180040001C00400020004030B5002313
:1031A000012404FA01F3046A9C430462046A02FAEB
:1031B00001F52C43046230BD30B50C460021816816
:1031C00021F47F4142EA032525432943816030BD34
:1031D0000A460021816821F0700142F0070319437B
:1031E0008160704730B5002400220023056A25F075
:1031F00001050562026A4368846924F0700424F0C2
:1032000003040D682C4322F002028D682A430F4DFF
:10321000A84202D00E4DA84201D1012500E00025B0
:103220006DB122F00802CD682A4322F0040223F493
:10323000807323F400734D692B438D692B434360E6
:1032400084614D684563026230BD000000000140AA
:103250000004014030B5002400220023056A25F057
:1032600010050562026A4368846924F4E04424F48A
:1032700040740D6844EA052422F020028D6842EA79
:103280000512104DA84202D00F4DA84201D10125D0
:1032900000E0002585B122F08002CD6842EA0512E7
:1032A00022F0400223F4806323F400634D6943EA73
:1032B00085038D6943EA8503436084614D688563B6
:1032C000026230BD000001400004014030B500241E
:1032D00000220023056A25F480750562026A4368AE
:1032E000C46924F0700424F003040D682C4322F414
:1032F00000728D6842EA0522104DA84202D0104D9E
:10330000A84201D1012500E0002585B122F4006228
:10331000CD6842EA052222F4806223F4805323F42C
:1033200000534D6943EA05138D6943EA0513436071
:10333000C4614D68C563026230BD000000000140F9
:103340000004014030B5002200230024056A25F462
:1033500080550562036A4468C26922F4E04222F49F
:1033600040720D6842EA052223F400538D6843EA57
:1033700005330A4DA84202D0094DA84201D10125CA
:1033800000E0002525B124F480444D6944EA851409
:103390004460C2614D680564036230BD00000140B5
:1033A0000004014030B50B46144600210022026A99
:1033B000056A25F001050562816921F0F00141EA05
:1033C000041122F00A021A438161026230BD30B555
:1033D0000B46144600210022056A25F010050562FF
:1033E0008169026A21F4704141EA043122F0A002AD
:1033F00042EA03128161026230BD70B50546AC6BD2
:103400000020E085E0842046FEF738FF70BD70B5EF
:1034100006460025B46B20684069C0F3C01594F8D7
:103420003900212805D125B10020E084204600F094
:1034300082F820684069C0F3801594F83A00222889
:1034400005D125B10020E085204600F054F8E06B5E
:1034500040F01000E0632046FEF710FF70BD70B52D
:103460000546AC6B2868006800F48070B0B9002095
:10347000E0852068C06820F480702168C8602068FA
:10348000406920F00100216848612068406920F00F
:10349000400021684861202084F83A002046FFF768
:1034A00039F970BD70B50446A56B2846FFF74CF995
:1034B00070BD70B50546AC6B2868006800F480707C
:1034C00070B90020E0842068406920F08000216805
:1034D00048612068C06840F040002168C86002E090
:1034E0002046FFF705FA70BD70B50446A56B284667
:1034F000FFF718FA70BD0168C96821F4907102687D
:10350000D1600168496921F00101026851612021FF
:1035100080F83A10704710B504462068C06820F063
:1035200040002168C860202084F839002046FFF759
:10353000DFF9002010BD0168C96821F0C0010268F0
:10354000D160202180F83910704770B5044694F896
:103550003A00222844D1A068B0F5805F13D1A56A53
:10356000206940B920684068C0F308002880A06A3C
:10357000801CA06219E020684068C0B22880A06A60
:10358000401CA06211E0206938B920684068C1B2CF
:10359000A26A501CA062117007E02068406800F029
:1035A0007F01A26A501CA0621170E08D401E80B2A3
:1035B000E08598B92068C06820F490702168C860E0
:1035C0002068406920F0010021684861202084F8CB
:1035D0003A002046FFF79EF8002070BD0020FCE76F
:1035E0000220FAE72DE9F04104460025206805692C
:1035F00025F44055E0680543206805612068C568EA
:1036000049F20C6085432169A06808436169084359
:10361000E169084305432068C5602068456925F4D1
:103620004075A069054320684561E069B0F5004F29
:103630007ED1C4492068884203D0C34920688842AB
:103640005DD1FDF7FBFE00EBC00101EB00106168EE
:103650004900B0FBF1F06421B0FBF1F00601FDF789
:10366000EDFE00EBC00101EB001061684900B0FB0A
:10367000F1F7FDF7E3FE00EBC00101EB001061681C
:103680004900B0FBF1F06421B0FBF1F000EBC001A8
:1036900001EB0010A7EB8000322101EBC000642198
:1036A000B0FBF1F000F0F80006EB4006FDF7C6FEB7
:1036B00000EBC00101EB001061684900B0FBF1F7BD
:1036C000FDF7BCFE00EBC00101EB00106168490092
:1036D000B0FBF1F06421B0FBF1F000EBC00101EBB5
:1036E0000010A7EB8000322101EBC0006421B0FB89
:1036F000F1F000F0070030442168886020E1FDF718
:103700008DFE00EBC00101EB001061684900B0FBC9
:10371000F1F06421B0FBF1F00601FDF77FFE00EB54
:10372000C00101EB001061684900B0FBF1F700E057
:1037300045E0FDF773FE00EBC00101EB001061688E
:103740004900B0FBF1F06421B0FBF1F000EBC001E7
:1037500001EB0010A7EB8000322101EBC0006421D7
:10376000B0FBF1F000F0F80006EB4006FDF756FE66
:1037700000EBC00101EB001061684900B0FBF1F7FC
:10378000FDF74CFE00EBC00101EB00106168490041
:10379000B0FBF1F06421B0FBF1F000EBC00101EBF4
:1037A0000010A7EB8000322101EBC0006421B0FBC8
:1037B000F1F000F00700304421688860C0E0614902
:1037C0002068884203D06049206888425CD1FDF7B8
:1037D00035FE00EBC00101EB001061688900B0FB11
:1037E000F1F6FDF72BFE00EBC00101EB0010616864
:1037F0008900B0FBF1F06421B0FBF1F000EBC001F7
:1038000001EB0010A6EB8000322101EB00106421D7
:10381000B0FBF1F000F0F006FDF710FE00EBC00188
:1038200001EB001061688900B0FBF1F06421B0FB8E
:10383000F1F006EB0016FDF701FE00EBC00101EB15
:10384000001061688900B0FBF1F7FDF7F7FD00EBB0
:10385000C00101EB001061688900B0FBF1F0642148
:10386000B0FBF1F000EBC00101EB0010A7EB800012
:10387000322101EB00106421B0FBF1F000F00F00E9
:103880003044216888605BE0FDF7C8FD00EBC001B3
:1038900001EB001061688900B0FBF1F6FDF7BEFD99
:1038A00000EBC00101EB001061688900B0FBF1F092
:1038B0006421B0FBF1F000EBC00101EB0010A6EBBE
:1038C0008000322101EB00106421B0FBF1F000F028
:1038D000F006FDF7A3FD00EBC00101EB00106168ED
:1038E0008900B0FBF1F06421B0FBF1F006EB0016AB
:1038F000FDF794FD00EBC00101EB00106168890049
:10390000B0FBF1F7FDF78AFD00EBC00101EB001001
:1039100061688900B0FBF1F06421B0FBF1F000EBCD
:10392000C00101EB0010A7EB8000322101EB001079
:103930006421B0FBF1F000F00F0030442168886092
:10394000BDE8F0810010014000140140014691F8EB
:10395000390021282CD18868B0F5805F0FD10A6A20
:103960001088C0F308000B685860086918B9086A25
:10397000801C086209E0086A401C086205E00B6AC6
:10398000581C086218780B685860C88C401E80B2BA
:10399000C88458B90868C06820F080000B68D860F7
:1039A0000868C06840F040000B68D860002070478D
:1039B0000220FCE72DE9F04104460D4617469846E3
:1039C000069E21E0701CF8B12EB1FDF797FBA0EB2D
:1039D0000800B04218D92068C06820F4D07021686F
:1039E000C8602068406920F00100216848612020FB
:1039F00084F8390084F83A0000BF002084F83800C9
:103A000000BF0320BDE8F081206800682840A8427C
:103A100001D1012000E00020B842D3D00020F1E71E
:103A200010B50248FEF72CFC10BD0000F0A20020EB
:103A300010B50248FEF724FC10BD000030A30020A2
:103A400000BFFEE700BFFEE70FB4084B10B504A9A6
:103A500002AA039800F060F9044602A9002000F0D1
:103A6000F2FC204610BC5DF814FB0000474400083F
:103A700037B514460846064B6A46214600F04CF915
:103A800004466946002000F0DEFC20463EBD0000F2
:103A900047440008704738B50446E06D00B938BDAA
:103AA000D4E9161220689047002000906A4602214F
:103AB000206800F007FE206C00990844206494ED13
:103AC000101AB8EEC11AF0EE410A94ED0F1AB8EED2
:103AD000C11AB0EE410A201DFFF7B4F9606D38B18C
:103AE000D4ED0E0AB0EE600A2046D4E914129047D5
:103AF00000BFD4E710B50446E06D00B910BDD4E9AD
:103B000016122068904704F140020221206800F05C
:103B1000D9FD94ED101AB8EEC11AF0EE410A94EDF9
:103B20000F1AB8EEC11AB0EE410A201DFFF78AF94C
:103B3000606D38B1D4ED0E0AB0EE600A2046D4E9CB
:103B40001412904700BFD9E702E008C8121F08C14D
:103B5000002AFAD170477047002001E001C1121F0E
:103B6000002AFBD170470000F8B507460D461646FF
:103B70000020009000246A460DA13846FCF7F0FBB7
:103B800045F8240008B90020F8BD641C00BF6A464F
:103B900007A10020FCF7E4FB45F8240000B904E08D
:103BA000641CB44200DB00E0F1E700BF2046EBE715
:103BB000200000002DE9FF5FDDE90220010DDDF8A6
:103BC00038B0024318D044F61050A1F2FF314143FF
:103BD0000D140F98012820D0A5EB0B00401C5FEAC4
:103BE000000A4FF00004474EDFF81C91A0465046F3
:103BF00016D5CAF1000728E00F98012443A2012836
:103C000008D0002100980F9BC0E90021C0E90243C1
:103C1000BDE8FF9F6FEA0B01F4E7CBF10000DEE7A0
:103C2000074612E0F80707D0224633464046494689
:103C3000FCF75FFC8046894622463346104619460B
:103C4000FCF757FC04460E467F10002FEAD1DDE951
:103C50000201BAF1000F42464B4602DAFCF749FC7A
:103C600001E0FCF7B8FC04460E460022284BFCF7A6
:103C7000DDFD03D84FF0FF30014607E00022254B61
:103C800020463146FCF78EFBFCF7B8FD102409E016
:103C9000002C0ADB0A220023FCF7F0FA019B3032E9
:103CA0001A55641E50EA0102F2D1641C019AC4F153
:103CB000110314440F9A012A03D0012208430DD1A5
:103CC0000AE0084304D000204FF0110B0F9080E76A
:103CD000A3EB0B056D1E0DE05B4504DD4FF000020C
:103CE00005F1010504E003DA4FF00002A5F101053A
:103CF000002AECD000980F99C0E90231C0E90045D4
:103D000086E70000000024400000F03F3000000083
:103D10000000F0430000E03F2DE9FF4F95B09B46C7
:103D20008946064600250FE2252877D1002427463C
:103D3000F84A0121059400E0044316F8013F203BB6
:103D400001FA03F01042F7D130782A2811D06FF031
:103D50002F033078A0F13002092A16D8059A44F0D2
:103D6000020402EB820203EB42021044761C05902F
:103D7000EFE759F8042B0592002A03DA504244F485
:103D80000054059044F00204761C30782E2816D199
:103D900016F8010F44F004042A280DD06FF02F020A
:103DA0003078A0F13003092B09D807EB870302EB29
:103DB0004303C718761CF3E759F8047B761C307868
:103DC0006C280FD006DC4C2817D068280DD06A2844
:103DD00014D104E0742810D07A280FD10DE044F4F7
:103DE00000140AE044F4801401E044F440147278B2
:103DF000824202D104F58014761C761C3078662845
:103E00000BD013DC582877D009DC002875D0452862
:103E1000F6D04628F4D047281AD19DE118E063284F
:103E200035D0642879D0652812D195E1702873D0F7
:103E300008DC6728F1D069286FD06E280DD06F2874
:103E400006D1B5E073282CD0752875D0782874D0A9
:103E50005A46179990476D1C75E1C4F30250022829
:103E600009D003280DD0D9F8001004280DD00D601A
:103E700009F1040967E1D9F80010EA17C1E9005215
:103E8000F6E7D9F800100D80F2E70D70F0E719F8A9
:103E9000041B8DF8001000208DF80100EA46012077
:103EA00003E059F804AB4FF0FF3061074FF0000119
:103EB00002D40DE008F101018846B9420FDA8045CD
:103EC000F8DB1AF808100029F4D108E008F1010124
:103ED00088468142FADB1AF808100029F6D10598C5
:103EE0005B46A0EB080721463846179A00F094FA83
:103EF000284400EB080507E04DE029E10DE01AF841
:103F0000010B5A4617999047B8F10108F7D25B4662
:103F100021463846179A13E142E00A220092C4F380
:103F200002524FF0000A022A08D059F804CB032AA3
:103F30004FEAEC710AD00DE029E02AE009F107010F
:103F400021F00702F2E802C1914609E00FFA8CFC69
:103F50004FEAEC71042A03D14FFA8CFC4FEAEC7162
:103F6000002907DA0A460021DCF1000C61EB0201AE
:103F70002D2202E0220504D52B228DF804200122F7
:103F800003E0E20701D02022F7E7904659E00A213A
:103F900002E010220DE010214FF0000A00910BE02A
:103FA00010224FF0000A44F004040827009203E0B6
:103FB00008224FF0000A0092C4F30252022A05D0F0
:103FC00059F804CB0021032A08D009E009F10701C0
:103FD00021F00702F2E802C1914605E01FFA8CFCCD
:103FE000042A01D10CF0FF0C4FF00008220728D55D
:103FF000702806D0009B83F0100353EA0A0305D013
:104000000EE040228DF80420012208E05CEA010263
:1040100006D030228DF804208DF80500022290464B
:10402000009B83F0080353EA0A030AD15CEA010209
:1040300001D1620705D530228DF804204FF0010828
:104040007F1E582804D034A003900EA802900DE0E3
:1040500036A0F9E753466046009AFCF70FF984460C
:104060000398825C0298401E029002705CEA010094
:10407000F0D1029806A9081A00F1200A600702D5BB
:1040800024F4803400E00127574502DDA7EB0A0045
:1040900000E0002000EB0A01009005984144401A1E
:1040A0000590E00306D45B462146179A059800F078
:1040B000B3F90544002706E001A85A46C05D1799E8
:1040C00090476D1C7F1C4745F6DBE0030CD55B4633
:1040D0002146179A059800F09FF9054404E0302026
:1040E0005A46179990476D1C0099481E0090002968
:1040F000F5DC08E0029802995A460078491C0291C2
:10410000179990476D1CBAF10001AAF1010AF1DC80
:1041100065E100000928010030313233343536378B
:104120003839616263646566000000003031323303
:1041300034353637383941424344454600000000A3
:1041400000F058F90544761C307800287FF4ECAD77
:1041500019B02846BDE8F08F620700D4062709F1A0
:10416000070222F0070CFCE80223E14603F00048B6
:104170005FEA080C02D00FF2702C0DE05FEA045CDD
:1041800002D50FF2682C07E05FEAC47C02D00FF280
:10419000602C01E0AFF2700C4FF0FF3823F00043C9
:1041A000CDF850C065280CD006DC452809D046283B
:1041B0001DD047283DD13DE0662818D067287ED124
:1041C00038E00021112F01DB112000E0781CCDE93F
:1041D000000106A90EA8FFF7EDFCDDE90F010E9A1C
:1041E00003910021009207F1010A04914DE04FF084
:1041F00000400097CDE9011006A90EA8FFF7DAFCF0
:10420000DDE90F0203920E9B11990022DDF80CA04C
:104210000093049211B9791C00EB010AB7EB0A0074
:1042200004D4C0F1FF3007F1010A0490AAEB0700A3
:10423000019044E0012F00DA01270021112F01DD58
:10424000112000E03846CDE9000106A90EA8FFF7CD
:10425000B1FCDDE90F010E9A039100210491009257
:10426000BA4621070CD40399514500DA8A46BAF1BF
:10427000010F05DD009AAAF10101515C302908D037
:10428000B84202DA10F1040F06DA0121CDE901107B
:1042900015E0AAF10101E9E7002805DC04990144D1
:1042A0000491AAEB000102E0411C514500DD8A4661
:1042B0000499401A401C01904FF0004002902007E2
:1042C00004D40198504501DBCDF8048000208DF81E
:1042D0004F0002980DF14F07B0F1004F25D02B2071
:1042E0000E9002984FF0020800280CDA404202902B
:1042F0002D200E9007E00A210298FCF7DBF93031FF
:10430000029007F8011DB8F10001A8F10108F2DCE4
:1043100002980028EFD1791E0E980870307800F0CE
:10432000200040F0450007F8020D12A8C01B00F164
:1043300007081498007800B1012000EB0A010198E9
:1043400001EBE07105984144401A401E0590E003DE
:1043500006D45B462146179A059800F05DF805449F
:104360001498007818B15A46179990476D1CE003CD
:1043700024D55B462146179A059800F04DF8054470
:104380001CE00498002807DBDDE90301884203DD17
:104390000098405C179901E0179930205A469047E1
:1043A000049805F10105401C04900198401E0190FD
:1043B00004D12E205A46179990476D1CBAF100017E
:1043C000AAF1010ADDDC05E017F8010B5A4617993E
:1043D00090476D1CB8F10001A8F10108F4DC5B46C0
:1043E0002146179A0598ABE62D0000002B0000002F
:1043F000200000002DE9F041044600251E46174626
:10440000880404D405E039462020B0476D1C641EA2
:10441000F9D52846BDE8F0812DE9F0410446002594
:104420001E469046C80301D5302700E020278804A7
:1044300004D505E041463846B0476D1C641EF9D5E9
:104440002846BDE8F0810A68531C0B601070704765
:104450002DE9F04106460C46254628680068C0F361
:1044600000172868D0F824800FB1022000E0012056
:1044700001464246304600F0C8F80020BDE8F08111
:104480002DE9F0412DED028B07460D46B0EE408A36
:104490002C46384600F05EFB0646002E11DD00205B
:1044A000216848632068806B00EE100AB8EE400A6D
:1044B00030EE080ABCEEC00A10EE100A21688863CC
:1044C00018E0002E11DA2068406B00EE100AB8EEFA
:1044D000400A30EE480ABCEEC00A10EE100A21680D
:1044E000486300202168886304E000202168486355
:1044F000216888630020BDEC028BBDE8F0812DE9C6
:10450000F0412DED028B07460D46B0EE408A2C4659
:10451000384600F01FFB0646002E11DD2068C06BF8
:1045200000EE100AB8EE400A30EE080ABCEEC00AEF
:1045300010EE100A2168C86300202168086418E0A2
:10454000002E11DA00202168C8632068006C00EE9C
:10455000100AB8EE400A30EE480ABCEEC00A10EE6F
:10456000100A2168086404E000202168C8632168FB
:1045700008640020BDEC028BBDE8F0812DE9F0411C
:1045800004460F4625462846FDF745FEA88D696B73
:1045900009684968461AB6F5006F04D34FF47A707B
:1045A00000F00AFB0CE0002E0ADD324609493846CD
:1045B00001F0A2F8002803DC4FF47A7000F0FCFA56
:1045C0004FF4006203492846FEF742F80020BDE898
:1045D000F081000074A50020F8B504460D4627467A
:1045E000002000904FF480626946284601F050F8A0
:1045F0000646B2B2642338460099FEF7BFF831464A
:10460000284601F06AF80020F8BD70B504460D4652
:10461000164614B94FF0FF3070BD2068401EC2002E
:1046200004F1140104F10C00FBF759FE2068401E50
:1046300004F10C0141F830502068401E01EBC0002D
:1046400046600020E8E72DE9F04105460E46174692
:10465000022D02D20020BDE8F081E90001F10C003A
:1046600000F0AEF9044614B125606660A7602046EC
:10467000F1E770B5034600201468012C0FD154688F
:104680004D68AC4203DB54684D68601B19E0546808
:104690009D68641B5D684E68AD1B601911E014686D
:1046A000022C0ED154684D68AC4203DC54684D684E
:1046B000601B06E09C684D68641B55685E68AD1B16
:1046C000601970BD2DE9F04704460D46174604B148
:1046D0001FB94FF0FF30BDE8F087022D02DB2068E4
:1046E000A84202D26FF00100F5E72068411B04F1F7
:1046F0000C0000EBC1084FF00009002600BF09E0E4
:10470000701C08EBC00208EBC6012046FFF7B1FFA2
:104710008144761C681EB042F2DCC7F8009000208D
:10472000D9E700BFEFF3058008B1012070470020F2
:10473000FCE7000000B5A1B000F00FFA16490860D0
:104740003822164913A8FBF7CAFD3822134938311D
:1047500005A8FBF7C4FD002305AA42F210710E481C
:10476000006800F063F90E490860002305AA42F2D0
:1047700010710948006800F059F90A4908601422CC
:10478000064970316846FBF7AAFD0021684600F033
:1047900011FB21B000BD0000E0000020D070000837
:1047A000D0000020D40000201C4A510C0220FFF74A
:1047B0004AFF044621461A48006800F0DDF9194A0C
:1047C00019491748006800F0E9F9184A18491448CF
:1047D000006800F0DAF9114A510C0220FFF733FFAC
:1047E000054629461348006800F0C6F9124A0E49EA
:1047F0001048006800F0D2F90C4A10490D480068D2
:1048000000F0C3F900BF0A2000F0D6F942F210719F
:104810000B48006800F082F9F5E700000080FFFF18
:10482000D00000208144000878A2002051440008F4
:1048300000A20020D4000020FF4400083CA2002079
:10484000E000002000B585B0142205496846FBF75A
:1048500046FD0021684600F0ADFA05B000BD00003D
:104860005471000886B001F04DFA00F073FF044661
:10487000204A2149204601F0BBF9204A1E49204622
:1048800001F07AFA00231E4A0321204600F0E3FFDC
:104890004FF400621B491848FDF7DAFE18216846FC
:1048A000FBF744FD00BF0A2000F086F96420009069
:1048B0001548006800F04EF901901348006800F0B8
:1048C00046F90290642003901048006800F042F915
:1048D000414204910D48006800F039F941420591C8
:1048E00018236A460421204601F0A0F9204600F072
:1048F00063FFD8E77D45000830A30020D9450008B4
:104900009D5D000874A50020D0000020D400002088
:104910000FB408B54FF0FF310948006800F094F972
:1049200003A800900121009A029800F079FE00206F
:1049300000900348006800F05FF901B05DF814FBD7
:1049400080000020FCF7E8FBFEF710FBFEF732F8D2
:10495000FDF7ECFFFEF774F9FEF7F0F9FEF714FA35
:10496000FEF70AF9FEF7A6F800F004F800F039F9AE
:1049700000BFFEE700B587B000200690012106A821
:1049800000F098F9074908601422074901A8FBF7CD
:10499000A6FC002101A800F00DFA0449086007B048
:1049A00000BD000068000020BC70000884000020EA
:1049B00001460020842901D0CA1C10447047000021
:1049C000F0B50B30154D20F007010024144A0FE01C
:1049D00003688B420BD38B4205D95E1A4318476894
:1049E000C3E9006700E04368136002C004E0021DF1
:1049F00010680028ECD12046002802D1286808B1B0
:104A00000020F0BD064A07481060074A121A22F03B
:104A10000702C0E9002401202860D7E70C0100202C
:104A2000080100207CAD0020782D01202DE9F04107
:104A300006460D46174698466420FFF7C1FF044618
:104A4000002C58D064212046FBF770FC6564B8F157
:104A5000000F03D0B8F1010F06D102E02748E0644F
:104A600005E02748E06402E02648E06400BF00BF9C
:104A70002FB138223946201DFBF731FC25E000BF5D
:104A80009FED210A84ED010A9FED200A84ED020AC0
:104A90009FED1E0A84ED030A9FED1D0A84ED040AB2
:104AA000BAEE040A84ED050AB2EE040A84ED060AA1
:104AB000B9EE040A84ED070AB1EE040A84ED080A8F
:104AC0009FED140A84ED090A00BF00EE105AB8EEFB
:104AD000C00ADFED110A80EE201A84ED091A201DAC
:104AE000FEF798F900BF002020667068046004F1AA
:104AF0006000706000BF2046BDE8F081F53A000814
:104B0000973A0008953A00086666663F0000000084
:104B10000AD7A33C0AD7233C0024744970B5054644
:104B20000E4600242C680EE0A06C3044A064D4E94A
:104B30001110884206DB0020A064E06C10B1204612
:104B4000E16C8847246E002CEED1002070BD014638
:104B5000086C70470146C86B704710B50820FFF716
:104B60002FFF044634B100202060606000BF206049
:104B7000646000BF204610BD024602B111B94FF07B
:104B8000FF30704711600020FBE7034613B94FF078
:104B9000FF3070479965DA650020FAE7034613B9DC
:104BA0004FF0FF30704719655A650020FAE7FDEEB7
:104BB000C00AC0ED0F0A704770B5044625460DB116
:104BC000294600E00121084601F086FA002070BD68
:104BD00010B502F053F8012801D1002010BD0120CA
:104BE000FCE710B501F038FB002010BD10B50446FD
:104BF000012001F0B7FC10BD38B5044600250020A7
:104C00000090FFF78EFD90B16946204601F0EAFE64
:104C1000012801D0FF2038BD009888B14FF08050A6
:104C200008490860BFF34F8FBFF36F8F08E0002380
:104C30001A461946204601F001FE012800D0FF2542
:104C40002846E8E704ED00E0F8B506460C460020EB
:104C500000900EB98020F8BD0025601C08B96D1EBB
:104C600003E014B1254605B90125FFF75AFD98B1B7
:104C70006A460021304601F025FF012801D0FF20BF
:104C8000E9E7009890B14FF0805009490860BFF300
:104C90004F8FBFF36F8F09E000232A461946304635
:104CA00001F09EFC012801D0FF20D4E70020D2E7CC
:104CB00004ED00E070B506460C46012C0ED103222F
:104CC0000021012001F05FFC05462DB100231A46AA
:104CD0001946284601F0B2FD284670BD21462046FF
:104CE00001F012FCF9E7000038B504460025002069
:104CF0000090FFF716FD90B16946204601F072FE64
:104D0000012801D0FF2038BD009888B14FF08050B5
:104D100008490860BFF34F8FBFF36F8F08E000238F
:104D20001A461946204601F089FD012800D0FF25CA
:104D30002846E8E704ED00E0F8B506460C460020FA
:104D400000900EB98020F8BD0025601C08B96D1ECA
:104D500003E014B1254605B90125FFF7E2FC98B13F
:104D60006A460021304601F0ADFE012801D0FF2047
:104D7000E9E7009890B14FF0805009490860BFF30F
:104D80004F8FBFF36F8F09E000232A461946304644
:104D900001F026FC012801D0FF20D4E70020D2E753
:104DA00004ED00E010B501F069FF012801D001F029
:104DB00091FB10BDFEB504460D46B4F90800FFF79F
:104DC000F7FD064602A8CDE90060238A9AB22B4679
:104DD000D4E9001001F022FF012801D00020FEBD1F
:104DE0000298FCE72DE9F04105460E461C4807688D
:104DF0001C480068001D01F043F850B919480068CC
:104E000090F82C1001208840174909688143164802
:104E10000160681C38B936B112480168091D134891
:104E200001F06FF81AE07C190E4800684460BC423B
:104E300007D20C480168091D0D48006801F047F8C9
:104E40000CE008480168091D0A48006801F03FF8B5
:104E500009480068844201D207480460BDE8F08137
:104E600038000020240000203C000020ECA100209D
:104E70002C000020280000205400002010B504461B
:104E800001F04CF824480068401C2349086023487E
:104E9000006840B9214804600846006801280DD127
:104EA00000F0A8F90AE01E48006838B91B480068FD
:104EB000C06AE16A884201D818480460194800684D
:104EC000401C1849086008460068606494F82C107B
:104ED0000120884014490968084313490860E16AC1
:104EE00001EB8101114A02EB8100211D01F009F85B
:104EF00001F03EF80A48006868B108480068C06AD6
:104F0000E16A884207D24FF0805009490860BFF338
:104F10004F8FBFF36F8F10BD34000020240000209E
:104F200040000020500000203C00002010A1002084
:104F300004ED00E070B523E001F0D2F913480068F9
:104F400008B9012000E00020054602F001F8BDB9D3
:104F500000F0E4FF0D48C068C468201D00F090FF19
:104F60000B480068401E0A4908600A480068401E55
:104F70000849086000F0FCFF204600F060F800BF20
:104F8000044800680028D7D170BD0000D8A10020D7
:104F9000340000203000002070B504460D46206C1F
:104FA00070B1216CE0680844E0606168E0688842A4
:104FB00001D32068E0602846226CE168FBF78FF996
:104FC00070BD2DE9F04104460F4615464FF000082C
:104FD000A66B206C40B9206860BB606801F008FFD8
:104FE00080460020606025E07DB93946226CA068CB
:104FF000FBF775F9216CA0680844A060D4E90110A2
:10500000884217D32068A06014E03946226CE0681B
:10501000FBF765F9216CE068401AE0602168E06800
:10502000884203D2216C6068401AE060022D01D1F1
:1050300006B1761E701CA0634046BDE8F08110B535
:105040000446206B00F0B2FF204600F0AFFF10BD19
:1050500030B54FF42043174800F007042CB1C01DB1
:1050600020F00700134C041B1B1B0246124C22604D
:105070000024114D6C60D018083820F007000F4C48
:10508000206000240D4D2D686C600C4D2D682C6047
:105090001146441A4C60094C24680C60084D4C6859
:1050A0002C60084D4C682C604FF00044064D2C607D
:1050B00030BD0000100100200C0000201400002072
:1050C0001C000020180000202000002000BFFFF777
:1050D00031FF07480068012807D94FF08050054983
:1050E0000860BFF34F8FBFF36F8F00F0DDFEEEE778
:1050F00010A1002004ED00E010B504464CB10020E2
:1051000060602060E06000231A461946204601F0E6
:1051100095FB10BD2DE9F04106460D461746984611
:10512000069C0DB9246000E02760E6632564012138
:10513000204601F037FB84F84C80BDE8F0812DE972
:10514000F05F82460F4690469B460A9E0C9C4FEAB3
:105150008801A522206BFBF7E2F8A8F10100216B82
:1051600001EB800929F0070909F0070008B90120BF
:1051700000E0002050B900BF502080F31188BFF339
:105180004F8FBFF36F8F00BF00BFFEE7002507E022
:10519000795D04F134004155785D00B902E06D1C81
:1051A000102DF5D300BF002143200155072E00D359
:1051B0000626E662E66400202065201D00F084FEDD
:1051C00004F1180000F080FE2461C6F10700A06120
:1051D00064620020606584F858005A46514648468B
:1051E00000F0B4F920600B9808B10B980460BDE89A
:1051F000F09F000010B5002407E004EB84010F4A83
:1052000002EB810000F053FE641C072CF5D30C4820
:1052100000F04DFE0B4800F04AFE0B4800F047FE40
:105220000A4800F044FE0A4800F041FE04480949DB
:10523000086004480849086010BD000010A1002063
:105240009CA10020B0A10020C4A10020D8A1002072
:10525000ECA10020280000202C00002010B5014601
:10526000164800E0006803688B42FBD3024643689F
:1052700013448B4204D143684C6823444360014685
:105280000A464B6813440468A34211D10C4C0368CE
:105290002468A34208D04B680468646823444B60C8
:1052A00003681B680B6005E0054B1B680B6001E0A1
:1052B00003680B60884200D0016010BD0C00002024
:1052C0001400002070B5054600F028FEA86B08B950
:1052D000012400E0002400F04BFE204670BD70B5B4
:1052E000054600F01BFEA86BE96B884201D1012442
:1052F00000E0002400F03CFE204670BD0A49096829
:10530000096809B9012100E0002121B14FF0FF3106
:10531000064A116006E004490968C968C868034A7A
:1053200041681160704700002800002054000020F0
:105330000E480068401C08B9012000E0002050B968
:1053400000BF502080F31188BFF34F8FBFF36F8FE2
:1053500000BF00BFFEE700BF502080F31188BFF3FD
:105360004F8FBFF36F8F00BF00BFFEE7000000202C
:1053700070B5044600F0D2FD94F9455010E0606A23
:1053800008B9012000E0002038B904F1240001F040
:1053900093FD18B100F0CEFE00E003E0681E45B2B8
:1053A000002DECDC00BFFF2084F8450000F0E0FD9C
:1053B00000F0B4FD94F9445010E0206908B90120D0
:1053C00000E0002048B904F1100001F075FD08B1BB
:1053D00000F0B0FE681E45B200E001E0002DECDCFC
:1053E00000BFFF2084F8440000F0C2FD70BD000043
:1053F0002DE9F04104464FF0000800F071FF4648E7
:10540000006808B9FFF724FE4448006820400028DF
:105410006BD1D4B1083404F00700B0B104F0070038
:10542000C0F10800044404F0070008B9012000E0BE
:10543000002050B900BF502080F31188BFF34F8F78
:10544000BFF36F8F00BF00BFFEE7002C4DD0344884
:105450000068844249D8334E3046056801E02E4644
:105460002D686868A04202D228680028F7D12A482F
:105470000068854239D0306800F10808286830603B
:105480006868001B102819D92F1907F0070008B900
:10549000012000E0002050B900BF502080F31188A7
:1054A000BFF34F8FBFF36F8F00BF00BFFEE7686889
:1054B000001B78606C603846FFF7D0FE18496868BA
:1054C0000968081A164908600846006816490968FC
:1054D000884203D212480068134908600F4968687F
:1054E0000968084368600020286001F031FD08F079
:1054F000070008B9012000E0002050B900BF50208B
:1055000080F31188BFF34F8FBFF36F8F00BF00BFD1
:10551000FEE74046BDE8F081140000202000002096
:10552000180000200C0000201C0000200648006825
:1055300030B10549096801F15000096D491C01604D
:10554000014800687047000024000020001F4FF051
:1055500080730360001F21F001030360001F054BEF
:10556000036014380260001F6FF0020303602038EC
:10557000704700003153000810B500221C210320A1
:1055800001F001F80149086010BD00009000002002
:105590001CB500200190009001216846FFF78AFBAE
:1055A0001949086008460068FFF79EFB012168461C
:1055B000FFF780FB1549086008460068FFF794FB79
:1055C00001216846FFF776FB11490860084600682C
:1055D000FFF78AFB01216846FFF76CFB0D49086065
:1055E00008460068FFF780FB01216846FFF762FB71
:1055F0000949086008460068FFF776FB01A8FFF735
:10560000F5FA064908601CBD6C00002070000020FF
:1056100074000020780000207C0000208000002022
:10562000F7B506460F46154D002428193146029A53
:10563000FEF71EFA2044C4B237B1281910A211A1F6
:10564000FEF702FA2044C4B200BFFFF7C1FA0028F7
:105650000ADD224629460C48FDF7FCF814210B48C8
:105660000068FFF769FB06E04FF6FF732246294604
:105670000548FDF783F800BFFEBD0000F0A4002040
:105680000D0A000025730000F0A200207000002029
:1056900070B503460020D3E90165AC1B944201DDDF
:1056A000154600E02546284603F10C055E683544A2
:1056B0000D6070BD70B5054605F10C00FFF780F96F
:1056C000044644B1256000206060A06004F10C0035
:1056D0002168FAF72BFE204670BD10B50246D2E9CC
:1056E0000143181B884201DD0B4600E003461846C3
:1056F00053680344536010BD2DE9F04104460F4642
:105700001546A1682068461A606800EB0608A8459F
:1057100002DA0020BDE8F081AE420DDAD4E90130B2
:10572000C21A04F10C001918FAF7D9FDD4E90110D6
:10573000401AA0600020606004F10C01A2685018BB
:105740002A463946FAF7CBFDA0682844A0602846CF
:10575000E0E7000010B51C20FFF732F90446B4B1B1
:105760001C212046FAF7E2FD00BF0A480078012814
:105770000CDC00BF0748806800B906E005494868AE
:1057800022468B6804A1984700BF00BF00BF204697
:1057900010BD0000EC000020637265617465206E2E
:1057A00065772073736E70202825702920737563C8
:1057B000636573730000000010B5044614B94FF020
:1057C000FF3010BD204600F0FDF9204600F0B4F98E
:1057D000204600F0BCFA0020F3E72DE9F041054631
:1057E0000E46174698461DB94FF0FF30BDE8F081D0
:1057F0001420FFF7E5F8044614B96FF00100F5E74F
:105800002660A760C4F8048000BF0020E0606968DB
:1058100021616868046004F10C00686000BF00202A
:10582000E4E710B502460B460021002000BF02E06D
:10583000545C2044491C9942FADB10BD10B5082085
:10584000FFF7BEF8044624B100BF0020206064606A
:1058500000BF204610BD2DE9F04104460E46154616
:105860001F4604B11DB94FF0FF30BDE8F0813B4643
:105870002A463146E068FFF7B0FFF6E72DE9F04130
:1058800007460C4616461D464FF0000807B114B9EE
:105890000020BDE8F0810B482060E56029463046D5
:1058A000FFF7BFFF2061142221463846FFF724FF8F
:1058B00080462A4631463846FFF71EFF8044404660
:1058C000E7E70000A55AA55A2DE9F04105460F4625
:1058D00016460DB107B11EB94FF0FF30BDE8F0819B
:1058E00000242C680DE020687168884200D007E031
:1058F000A06820B132463946D4E90103984700BF79
:10590000E468002CEFD10020E8E700002DE9FF411A
:1059100006460D46002700240020039000BF1422F5
:1059200003A93046FFF7B4FE0446039808B1142CCF
:105930001AD200BF5E480078002813DC00BF5C4824
:10594000806800B90DE014200399CDE9001402909D
:10595000574948683E23574AD1F808C05649E0479E
:1059600000BF00BF00BF9EE0039800685349884213
:105970001AD000BF4E48007800280FDC00BF4C480A
:10598000806800B909E003990B68494948684B4AA7
:10599000D1F808C04A49E04700BF00BF00BF01215D
:1059A0003046FFF79AFE7DE00398C0681430B0F5EA
:1059B000806F22D900BF3E480078022817DC00BF64
:1059C0003B48806800B911E04FF480610398C068DB
:1059D0001422CDE90020029103990B6834494868EC
:1059E000364AD1F808C037A1E04700BF00BF00BF6A
:1059F00001213046FFF771FE54E00398C06800F1C2
:105A0000140203A93046FFF743FE04460398C0681A
:105A10001430A04218D900BF25480078002811DCB6
:105A200000BF2348806800B90BE00399C96801F101
:105A300014031F4948682246D1F808C02FA1E04747
:105A400000BF00BF00BF2EE00398C1681430FFF70D
:105A5000E8FE03990969884220D000BF1448007805
:105A6000022815DC00BF1248806800B90FE00398D7
:105A7000C1681430FFF7D5FE804603990A690C49C6
:105A800048684346D1F808C02A49E04700BF00BF34
:105A900000BF01213046FFF720FE03E027460398B0
:105AA000286000E03BE700BF384604B0BDE8F08165
:105AB000EC00002068710008B4710008A55AA55ACE
:105AC00004720008736E70206672616D65206C65EB
:105AD0006E206572726F722C206672616D65206C2B
