:020000040800F2
:10000000C8AA002059020008ED2D00083B2900086D
:10001000E92D0008A1090008FD39000800000000D2
:100020000000000000000000000000009D0100082A
:10003000EF0A000800000000F10100081D2F000871
:1000400073020008730200087302000873020008BC
:100050007302000873020008F10A0008FB0A000896
:10006000050B00080F0B000873020008730200085C
:10007000730200087302000873020008730200088C
:10008000A5090008B50900087302000873020008FA
:10009000730200087302000873020008730200086C
:1000A000730200087302000873020008730200085C
:1000B000730200087302000873020008730200084C
:1000C000730200087302000873020008730200083C
:1000D00073020008DD390008ED39000873020008DA
:1000E000730200087302000873020008730200081C
:1000F000730200087302000873020008730200080C
:1001000073020008730200087302000873020008FB
:1001100073020008730200086530000873020008CB
:100120007302000873020008C50900087302000882
:1001300073020008730200087302000873020008CB
:1001400073020008730200087302000873020008BB
:100150007302000873020008D50900087302000842
:10016000730200087302000873020008730200089B
:100170007302000873020008730200080000000008
:100180007302000873020008DFF80CD000F0CCFB0B
:1001900000480047654E0008C8AA00202B4B19688C
:1001A0000868B0E8F04F80F30988BFF36F8F4FF015
:1001B000000080F3118870470000000006480068C6
:1001C000006880F3088862B661B6BFF34F8FBFF353
:1001D0006F8F00DF00BF00BF08ED00E0DFF80C000C
:1001E000016841F470010160704700BF88ED00E0D4
:1001F000EFF30980BFF36F8F144B1A681EF0100FD6
:1002000008BF20ED108A20E9F04F106008B44FF0CD
:10021000500080F31188BFF34F8FBFF36F8F06F04C
:1002200083FC4FF0000080F3118808BC196808684F
:10023000B0E8F04F1EF0100F08BFB0EC108A80F34A
:100240000988BFF36F8F704700BF00BF24000020F4
:10025000EFF30580704700000648804706480047D6
:10026000FEE7FEE7FEE7FEE7FEE7FEE7FEE7FEE766
:10027000FEE7FEE701300008890100082DE9F05F84
:100280000546002092469B46884606468146402405
:100290001BE0284641464746224600F05EFA534698
:1002A0005A46C01A914110D311461846224600F012
:1002B00045FA2D1A67EB01084F462246012000211E
:1002C00000F03CFA17EB00094E41201EA4F1010496
:1002D000DFDC484631462A464346BDE8F09F10B56C
:1002E000431A934209D28318881803E010F8011DBD
:1002F00003F8011D521EF9D210BD40EA01039B070D
:1003000003D009E008C9121F08C0042AFAD203E08A
:1003100011F8013B00F8013B521EF9D210BDD2B2D8
:1003200001E000F8012B491EFBD270470022F6E7DE
:1003300010B513460A4604461946FFF7F0FF20465B
:1003400010BD2DE9FE4F804681EA0300C00F0C4628
:10035000009021F0004123F00045B8EB0200A941D4
:1003600005D24046214690461C460B46024623F0E5
:100370000040104347D0270DC7F30A00C3F30A51CA
:100380000290401A019040286BDAC3F3130040F446
:10039000801B0098924620B10023D2EB030A63EB46
:1003A0000B0B01985946C0F14002504600F0C6F9C7
:1003B00006460D4650465946019A00F0DEF910EB0C
:1003C00008006141002487EA115284EAE7731A4366
:1003D00040D0009A62B3019A012A4FEA075215DC15
:1003E000001B61EB02014FF0004202EA0752CDE927
:1003F0000042001C41F5801132462B4600F015FAF0
:1004000003B0BDE8F08F40462146F9E7001B61EBE1
:100410000201001C41F5801300185B412018A2F571
:10042000001747EB030140EAD570B6196D4111E0A2
:100430006D084FEA360645EAC0754FEA0752001BC1
:1004400061EB0201001C41F5801149084FEA3000C0
:100450000019514132462B4603B0BDE8F04F00F081
:10046000D5B90098012240000023D0EB020263EBD3
:10047000E073009821464FEAE074B8EB000061EBAE
:100480000401E9E783F000435BE781F0004158E7AE
:100490002DE9FE4F81EA030404F0004421F00041FD
:1004A00000944FF0000B23F0004350EA01045ED0AB
:1004B00052EA03045BD0C3F30A54C1F30A552C4437
:1004C000A4F2F3340194A0FB0254C1F3130141F4EC
:1004D0008011C3F3130343F4801301FB024400FBB8
:1004E000034E840A970A44EA815447EA8357A4FBDF
:1004F000076802958D0A05FB07854FEA932C04FBDC
:100500000C542705029D4FEA065847EA1637B5EB0B
:1005100008056EEB070C870E920E47EA811742EA38
:100520008312A7FB0201B6EB0B0164EB00042B0D59
:1005300043EA0C335E1844EB1C50DA465146E7FBA5
:100540000201C5F313044FEA0B3343EA14534FEA95
:100550000432019C43EA0603A4F10C040294009CBB
:10056000CDE900B400F061F903B0BDE8F08F0020E0
:100570000146F9E72DE9F04D81EA030404F0004B50
:1005800021F0004514464FF0000A23F0004150EAE4
:10059000050220D054EA01021DD0C5F30A570246D5
:1005A000C5F31303C1F31300C1F30A5640F48015D9
:1005B00043F48013A7EB0608101BD64608F2FD385B
:1005C00073EB050002D308F1010801E092185B41CA
:1005D000B8F1000F03DA00200146BDE8F08D0020DD
:1005E0004FF48011064684460EE0171B73EB050797
:1005F00005D3121B63EB050306434CEA010C4908C3
:100600004FEA300092185B4150EA0107EDD152EAFF
:10061000030012D082EA040083EA0501084305D0F2
:10062000101BAB4106D20122002306E000224FF04E
:10063000004302E06FF0010253101AEB06004CEB8E
:10064000085110EB0A0041EB0B01BDE8F04D00F042
:10065000DDB80EB5C10F80EAE0700844CA0700217A
:1006600040F233438DE80E000A460B4600F0DDF8F9
:1006700003B000BD70B5C1F30A5201F0004500247B
:10068000C1F3130140F2FF3341F480119A4201DAC1
:10069000002070BD40F233439A42A2F2334203DCA1
:1006A000524200F05AF800E090402C43F1D0404212
:1006B00070BD00F0004230F000400AD0C10D01F5DD
:1006C0006071C0F3160042EA0151C20840071143AD
:1006D000704700200146704701F0004330B421F01C
:1006E000004150EA010206D00A0DA2F56072C1F382
:1006F0001301002A02DC30BC00207047440F44EA9A
:10070000C104C100E01830BC00EBC25000F047B893
:1007100030B50B46014600202022012409E021FAD1
:1007200002F59D4205D303FA02F5491B04FA02F5CE
:100730002844151EA2F10102F1DC30BD202A04DBA1
:10074000203A00FA02F1002070479140C2F12003E4
:1007500020FA03F3194390407047202A04DB203A23
:1007600021FA02F00021704721FA02F3D040C2F1D1
:1007700020029140084319467047202A06DBCB1718
:10078000203A41FA02F043EAE07306E041FA02F34C
:10079000D040C2F120029140084319467047002919
:1007A000A8BF7047401C490008BF20F001007047F7
:1007B00010B4B0FA80FC00FA0CF050EA010404BF57
:1007C00010BC704749B1CCF1200421FA04F411FAAD
:1007D0000CF118BF012121430843A3EB0C01CB1DF1
:1007E0004FEA00614FEA102042BF002010BC704762
:1007F00000EBC35010440029A4BF10BC7047401C3C
:10080000490008BF20F0010010BC704710B5141E4D
:1008100073F1000408DA401C41F1000192185B41B9
:100820001A4301D120F0010010BD2DE9F04D924690
:100830009B4611B1B1FA81F202E0B0FA80F22032A7
:100840009046FFF77BFF04460F4640EA0A0041EA64
:100850000B0153465A46084313D0114653EA010090
:1008600019D0C8F140025046FFF777FF05460E4603
:10087000504659464246FFF761FF084305D0012024
:1008800004E020463946BDE8F08D0020054346EAE5
:10089000E0762C4337430A986305E40AA0EB08008E
:1008A0000022FD0A44EA47540A3002D500200146DE
:1008B000E9E7010510196941DDE9084500196941B9
:1008C000BDE8F04DA2E7C1F30A52C1F3130140F2B3
:1008D000FF3341F480119A4202DA0020014670474A
:1008E00040F233439A42A2F2334202DC5242FFF713
:1008F00034BFFFF723BF000030B5041E71F10004C0
:1009000004DB4FF00044404264EB0101141E73F11C
:10091000000405DB1C464FF00043524263EB040326
:10092000994208BF904230BD064C074D06E0E06892
:1009300040F0010394E8070098471034AC42F6D326
:10094000FFF726FCA47A0008C47A00080EB540F22E
:10095000334102910021CDE900110A460B46FFF711
:1009600064FF03B000BD30B58C1810F8012B12F0F5
:100970000F0301D110F8013B120906D110F8012B29
:1009800003E010F8015B01F8015B5B1EF9D101E0A7
:1009900001F8013B521EFBD1A142E6D3002030BD3D
:1009A00000BFFEE710B5024800F0CAF810BD000015
:1009B0006CA4002010B5024800F0C2F810BD000081
:1009C000CCA4002010B5024800F0BAF810BD000019
:1009D000ACA3002010B5024800F0B2F810BD000032
:1009E0000CA400200146087810381823B0FBF3F25D
:1009F0000848805CC865032A05D908686FF30900B8
:100A0000001D886503E008686FF309008865886D3C
:100A100070470000A4780008014600208A6A8B69AC
:100A2000CBB932B1012A0DD0022A03D0032A10D14A
:100A30000EE000BFCB6A03F08073B3F1807F00D17A
:100A4000012007E0CB6AB3F1C07F00D1012001E0B3
:100A500000E000BF34E08B69B3F5005F1AD132B11A
:100A6000012A07D0022A03D0032A11D10AE000BFCD
:100A700001200EE0CB6A03F08073B3F1807F00D1D8
:100A8000012006E0CB6AB3F1C07F00D1012000E075
:100A900000BF15E032B1012A05D0022A04D0032A92
:100AA0000CD103E000BF00BF012008E0CB6A03F0D7
:100AB0008073B3F1807F00D1012000E000BF00BF50
:100AC000704730B50468246824F4802405682C60DD
:100AD000046863608468402C04D10468A2600468E0
:100AE000E16003E00468A1600468E26030BD704723
:100AF00010B5012000F02EFA10BD10B5022000F054
:100B000029FA10BD10B5042000F024FA10BD10B56C
:100B1000082000F01FFA10BD014691F835000228A8
:100B200003D08020486501207047052081F83500FA
:100B30000868006820F001000A6810600020F3E7F0
:100B4000F8B50446002000908C4800684FF4165118
:100B5000B0FBF1F7A56D2E6894F85C100820884072
:100B6000304098B12068006800F0040070B120683F
:100B7000006820F004002168086094F85C100820E8
:100B80008840A860606D40F00100606594F85C10DA
:100B900001208840304068B12068406900F0800042
:100BA00040B194F85C1001208840A860606D40F06E
:100BB0000200606594F85C1004208840304068B101
:100BC0002068006800F0020040B194F85C10042036
:100BD0008840A860606D40F00400606594F85C1087
:100BE00010208840304078B32068006800F008008A
:100BF00050B394F85C1010208840A860206800680A
:100C000000F4802080B12068006800F4002028B93A
:100C1000206CC8B12046216C884715E0A06C98B1C3
:100C20002046A16C88470FE02068006800F48070BF
:100C300028B92068006820F0080021680860206C4E
:100C400010B12046216C884794F85C102020884021
:100C50003040002865D02068006800F010000028AF
:100C60005FD094F85C1020208840A86094F835008C
:100C7000052828D12068006820F016002168086047
:100C80002068406920F0800021684861206C08B924
:100C9000A06C28B12068006820F008002168086076
:100CA00094F85C103F208840A86000BF002084F8C2
:100CB000340000BF012084F83500206D10B12046BB
:100CC000216D8847F8BD2068006800F4802080B15D
:100CD0002068006800F4002028B9606C10B120463C
:100CE000616C88471DE0E06BD8B12046E16B884716
:100CF00017E02068006800F4807068B92068006818
:100D000020F010002168086000BF002084F8340043
:100D100000BF012084F83500E06B10B12046E16B84
:100D20008847606D38B3606D00F00100F0B10520B8
:100D300084F835002068006820F001002168086010
:100D400000BF0098401C0090B84200D905E0206820
:100D5000006800F001000028F3D100BF00BF0020B0
:100D600084F8340000BF012084F83500E06C10B135
:100D70002046E16C884700BFA4E700006000002027
:100D80002DE9F0410446002500F0F2F9074614B9B8
:100D90000120BDE8F081606A00B100BF00BF002003
:100DA00084F8340000BF022084F835002068006811
:100DB00020F00100216808600AE000F0D9F9C01BAA
:100DC000052805D920206065032084F83500E0E778
:100DD0002068006800F001000028EED12068056856
:100DE00021480540D4E901010843E168084321692D
:100DF000084361690843A1690843E1690843216A1E
:100E000008430543606A042803D1D4E90B01084371
:100E10000543206805602068456925F00705606A7C
:100E20000543606A04280DD1A06A0543E06A48B111
:100E30002046FFF7F1FD28B140206065012084F8CD
:100E40003500A6E7206845612046FFF7CBFD064642
:100E500094F85C103F208840B0600020606501205D
:100E600084F83500002094E73F8010F02DE9F0472A
:100E700004460D4616461F464FF00008D4F8589019
:100E800000BF94F83400012802D10220BDE8F087A9
:100E9000012084F8340000BF94F8350001282BD1DC
:100EA000022084F83500002060653B463246294622
:100EB0002046FFF706FE94F85C103F208840C9F8F2
:100EC00008002068006840F016002168086020686B
:100ED000406940F0800021684861206C28B120689A
:100EE000006840F00800216808602068006840F051
:100EF00001002168086006E000BF002084F834008B
:100F000000BF4FF002084046C0E70000012805D1AD
:100F10000E490968491C0D4A116016E0022805D1E6
:100F20000A490968491C094A11600EE0042805D1E4
:100F300007490968491C064A116006E0082804D1DF
:100F400003490968491C024A116070479800002053
:100F50009400002010B5044604480068204020B1E9
:100F6000024804602046FFF7D1FF10BD143C014049
:100F7000F8B502460B460025002400200021DCE0E5
:100F8000012606FA01F51E6806EA0504AC4273D193
:100F90005E68022E02D05E68122E13D1CF0802F1D5
:100FA000200656F827004E07F70E0F26BE40B04326
:100FB0004F07FF0E1E69BE403043CF0802F12006E6
:100FC00046F8270010684F000326BE40B0431E7944
:100FD00006F003064F00BE40304310605E68012EED
:100FE00008D05E68022E05D05E68112E02D05E68C1
:100FF000122E13D190684F000326BE40B0434F001D
:10100000DE68BE4030439060506801268E40B04399
:101010001E79C6F300168E4030435060D0684F00F2
:101020000326BE40B0434F009E68BE403043D060B0
:101030005E6806F08056B6F1805F7DD100BF002665
:101040000096404E366846F480463E4F3E603E462F
:10105000366806F48046009600BF00BF3A4E8F08FF
:1010600056F827008E07370F0F26BE40B043374E85
:10107000B24202D1002624E05EE0354EB24201D1F8
:1010800001261EE0334EB24201D1022619E0324E53
:10109000B24201D1032614E0304EB24201D10426FF
:1010A0000FE02F4EB24201D105260AE02D4EB2428A
:1010B00001D1062605E02C4EB24201D1072600E000
:1010C00008268F073F0FBE4030431F4E8F0846F85B
:1010D0002700264E3068A0435E6806F48036B6F5D9
:1010E000803F00D12043214E3060361D3068A04340
:1010F0005E6806F40036B6F5003F00D120431B4E73
:10110000361D3060361D3068A0435E6806F48016D8
:10111000B6F5801F00D12043144E08363060361DCE
:101120003068A0435E6806F40016B6F5001F00D1D3
:1011300020430E4E0C363060491C1029FFF420AFBE
:10114000F8BD000044380240083801400000024069
:101150000004024000080240000C0240001002405F
:101160000014024000180240001C0240003C0140F4
:1011700001480068704700006400002002480068D1
:10118000401C0149086070476400002010B50D48FC
:10119000006840F400700B4908600846006840F49D
:1011A000806008600846006840F480700860032092
:1011B00000F094F80F2000F007F800F019F8002074
:1011C00010BD0000003C024070B5044607480068AE
:1011D0004FF47A71B0FBF1F5284600F0EDFB0022E8
:1011E0002146501E00F03CF8002070BD6000002039
:1011F00010B5032000F072F8002211466FF00B00CA
:1012000000F02EF8002211466FF00A0000F028F8D6
:10121000002211466FF0090000F022F8002211466A
:10122000501F00F01DF800221146101F00F018F8A2
:1012300000220F21901E00F013F800220F21501EF3
:1012400000F00EF810BD00BF00F01F020121914018
:101250004209920002F1E022C2F8001100BF70477B
:101260002DE9F05F80460D461646002701F0C0FDCF
:10127000074639462A46334601F00700C0F1070AFF
:10128000BAF1040F02D94FF0040A01E0C0F1070AD5
:10129000D14600F1040ABAF1070F02D24FF0000A5A
:1012A00001E0A0F1030AD4464FF0010A0AFA09FA54
:1012B000AAF1010A0AEA020A0AFA0CFA4FF0010B33
:1012C0000BFA0CFBABF1010B0BEA030B4AEA0B0424
:1012D0002146404601F094FDBDE8F09F00BF00F0BC
:1012E0000702064B19684FF6FF031940044B0B43E6
:1012F00043EA0221014B196000BF70470CED00E08A
:101300000000FA0570B504460D460CB9012070BD09
:101310005848006800F00F00A84209D255490D70E6
:101320000846006800F00F00A84201D00120EEE757
:10133000207800F0020002281DD1207800F004007F
:10134000042805D14C48006840F4E0504A49086040
:10135000207800F00800082805D14748006840F4CC
:101360006040454908604448006820F0F000A168EA
:10137000084341490860207800F00100A8B3606884
:10138000012807D13C4808380068C0F34040B8B98C
:101390000120BCE76068022802D06068032807D1FA
:1013A000354808380068C0F3406048B90120AEE70E
:1013B000314808380068C0F3400008B90120A6E7AA
:1013C0002D48006820F00300616808432A4908603E
:1013D000FFF7CEFE064609E0FFF7CAFE801B41F28A
:1013E0008831884202D9032091E707E0224800684B
:1013F00000F00C006168B0EB810FEDD11D48006872
:1014000000F00F00A84209D91A490D70084600687B
:1014100000F00F00A84201D0012078E7207800F00A
:101420000400042807D11448006820F4E050E16863
:10143000084311490860207800F00800082808D106
:101440000D48006820F46040216940EAC1000A4963
:10145000086000F03DF808490968C1F30311074A24
:10146000515CC840064908600F20FFF7ADFE002020
:101470004DE70000003C0240083802408C7800082C
:1014800060000020014800687047000060000020F4
:1014900000B5FFF7F7FF04490968C1F38221034A49
:1014A000515CC84000BD0000083802409C7800082C
:1014B00000B5FFF7E7FF04490968C1F34231034A69
:1014C000515CC84000BD0000083802409C7800080C
:1014D0002DE9F047002400250026A1462548006894
:1014E00000F00C0020B1042805D008283AD105E00E
:1014F000DFF8849039E0DFF8849036E01D48001F63
:10150000006800F03F041B48001F006800F48000E2
:1015100078B11A481749091F0968C1F38811A0FB5F
:1015200001700146224600233846FEF7A7FE054615
:101530000EE011480F49091F0968C1F38811A0FB8B
:1015400001700146224600233846FEF797FE054605
:101550000848001F0068C0F30140401C4600B5FB6E
:10156000F6F902E0DFF8109000BF00BF4846BDE882
:10157000F0870000083802400024F40000127A00CE
:1015800038B504460CB9012038BD207800F00100C0
:10159000002874D0F848006800F00C0004280DD032
:1015A000F548006800F00C00082813D1F248001F2D
:1015B000006800F48000B0F5800F0BD1EE480838C9
:1015C0000068C0F34040002859D06068002856D118
:1015D0000120D9E700BF6068B0F5803F08D1E64838
:1015E0000838006840F48030E349083908601EE09C
:1015F0006068B0F5A02F0DD1DF480838006840F4CE
:101600008020DD49083908600846006840F48030D1
:1016100008600CE0D8480838006820F48030D649CB
:10162000083908600846006820F48020086000BF80
:10163000606890B1FFF79CFD054606E0FFF798FD56
:10164000401B642801D903209EE7CB480838006876
:10165000C0F340400028F1D011E0FFF789FD0546B6
:1016600006E0FFF785FD401B642801D903208BE7C6
:10167000C14808380068C0F340400028F1D1207804
:1016800000F0020002285FD1BB48006800F00C00A7
:1016900058B1B948006800F00C0008281CD1B648C1
:1016A000001F006800F48000B0B9B3480838006833
:1016B000C0F3400020B1E068012801D0012063E7B9
:1016C000AD480838006820F0F800216940EAC10000
:1016D000A9490839086037E0E06800B30120A7494C
:1016E0000860FFF745FD054606E0FFF741FD401B9A
:1016F000022801D9032047E79F4808380068C0F353
:1017000040000028F1D09C480838006820F0F8001C
:10171000216940EAC10098490839086014E00020B6
:1017200096490860FFF724FD054606E0FFF720FD17
:10173000401B022801D9032026E78F48083800689B
:10174000C0F340000028F1D1207800F008000828FC
:101750002CD16069A8B1012089490860FFF708FD14
:10176000054606E0FFF704FD401B022801D90320CF
:101770000AE781486C300068C0F340000028F1D0CF
:1017800014E000207E490860FFF7F2FC054606E001
:10179000FFF7EEFC401B022801D90320F4E676484F
:1017A0006C300068C0F340000028F1D1207800F0D0
:1017B000040004287FD100BF002000906E4838301C
:1017C000006840F080506C49383108600846006875
:1017D00000F08050009000BF00BF6A48006840F4ED
:1017E000807068490860FFF7C3FC054606E0FFF714
:1017F000BFFC401B022801D90320C5E661480068F0
:1018000000F480700028F2D000BFA068012808D141
:1018100059486830006840F0010057496831086055
:101820001DE0A06805280DD153486830006840F0DD
:1018300004005149683108600846006840F0010022
:1018400008600CE04C486830006820F001004A490C
:10185000683108600846006820F00400086000BF96
:10186000A068A0B1FFF784FC054608E0FFF780FC04
:10187000401B41F28831884201D9032084E63E486A
:1018800068300068C0F340000028EFD013E0FFF795
:101890006FFC054608E0FFF76BFC401B41F2883106
:1018A000884201D903206FE6334868300068C0F3EE
:1018B00040000028EFD1A069B8B32F48006800F0BD
:1018C0000C00082860D0A06902283ED100202B49D6
:1018D0000866FFF74DFC054606E0FFF749FC401B94
:1018E000022801D903204FE6234808380068C0F3D6
:1018F00040600028F1D1D4E907010843616A40EA59
:1019000081110122A06AC2EB500041EA00412C2063
:10191000005D41EA00601849091F0860012017496D
:101920000866FFF725FC054607E02FE0FFF720FCDF
:10193000401B022801D9032026E60F48083800681A
:10194000C0F340600028F1D020E000200B49086679
:10195000FFF70EFC054606E0FFF70AFC401B0228D5
:1019600001D9032010E6044808380068C0F340603D
:101970000028F1D10AE007E00838024000004742A1
:10198000800E4742007000400120FDE50020FBE58D
:10199000042808D14FF0E021096941F004014FF01B
:1019A000E022116107E04FF0E021096921F0040114
:1019B0004FF0E0221161704770B504462546681E5D
:1019C000B0F1807F01D301200FE0681E4FF0E021CD
:1019D00048610F214FF0FF3001F012FA00204FF064
:1019E000E021886107200861002070BD70477047C2
:1019F000024600BF92F83800012801D1022070474A
:101A0000012082F8380000BF022082F839001068F7
:101A1000406820F0700013685860106840680B68D8
:101A20001843136858601068806820F080001368BD
:101A30009860106880684B681843136898600120AC
:101A400082F8390000BF002082F8380000BF00BFD4
:101A5000D5E710B504460CB9012010BD94F8390043
:101A600028B9002084F83800204600F00DF8022044
:101A700084F83900211D206801F0FCFA012084F867
:101A800039000020E9E7000038B504462068B0F1CD
:101A9000804F0FD100BF002000902948006840F01F
:101AA0000100274908600846006800F00100009026
:101AB00000BF43E02349206888420FD100BF0020C7
:101AC00000901F48006840F002001D490860084669
:101AD000006800F00200009000BF2FE01A49206863
:101AE00088420FD100BF002000901548006840F0E8
:101AF0000400134908600846006800F004000090E4
:101B000000BF1BE011492068884217D100BF0020A8
:101B100000900B48006840F0100009490860084632
:101B2000006800F01000009000BF00BF00220521F7
:101B30003620FFF795FB3620FFF785FB38BD000008
:101B400040380240000400400008004000100040FF
:101B500001460868C06840F001000A68D060086863
:101B6000006840F001000A681060002070472DE90D
:101B7000F04104460D46002600BF94F838000128C5
:101B800002D10220BDE8F081012084F8380000BFB6
:101B9000022084F839002068866826F0770626F44B
:101BA0007F4620688660286850283BD00CDC2028BF
:101BB00060D004DC002853D0102865D155E03028CF
:101BC0005DD0402860D141E0602835D070280DD02C
:101BD000B0F5805F03D0B0F5005F55D115E0206807
:101BE000806820F00700216888604EE0D5E9021384
:101BF0006A68206801F0BEFA2068866826F07706D9
:101C000046F07706206886603FE0D5E902136A68EF
:101C1000206801F0AFFA2068806840F480402168B5
:101C2000886032E0EA686968206801F099FB502119
:101C3000206801F0ABFA28E0EA686968206801F0E2
:101C4000A4FB6021206801F0A1FA1EE0EA6869683F
:101C5000206801F085FB4021206801F097FA14E02C
:101C60000021206801F092FA0FE01021206801F0B5
:101C70008DFA0AE02021206801F088FA05E0302181
:101C8000206801F083FA00E000BF00BF012084F863
:101C9000390000BF002084F8380000BF00BF71E7A2
:101CA0002DE9F04104460D464FF0000800260027BC
:101CB00014B90120BDE8F08194F8390028B900205A
:101CC00084F83800204600F045F8022084F83900F6
:101CD0002068806820F0070021688860211D206846
:101CE00001F0C8F92068D0F808802068866920686B
:101CF000076A286840EA080840F203308643A96969
:101D0000A86840EA0120064340F60C4086434FF2A3
:101D1000F0008643E969E86840EA01200643286943
:101D20000001296A40EA0130064327F0220727F024
:101D300088076969686840EA011007432068C0F8AD
:101D400008802068866120680762012084F83900D5
:101D50000020AFE710B586B00446434920688842AA
:101D60002FD100BF002000904048006840F00200E2
:101D70003E4908600846006800F00200009000BF7D
:101D800000BF00BF0020009038481038006840F0C5
:101D900002003649103908600846006800F0020069
:101DA000009000BF00BF3020019002200290002070
:101DB000039004900220059001A92D48FFF7D8F860
:101DC0004FE02068B0F1804F4BD100BF0020009061
:101DD0002648006840F00100244908600846006871
:101DE00000F00100009000BF00BF00BF0020009085
:101DF0001E481038006840F001001C491039086086
:101E00000846006800F00100009000BF00BF00BF5E
:101E1000002000900846006840F002000860084674
:101E2000006800F00200009000BF00BF0820019091
:101E3000022002900020039004900120059001A947
:101E40000B48FFF795F84FF40040019002200290F4
:101E50000020039004900120059001A90548FFF798
:101E600087F806B010BD0000000400404038024072
:101E7000000402400000024030B504460D4615B192
:101E8000042D0CD105E001220021206801F064F945
:101E900010E001220421206801F05EF90AE001222D
:101EA0000021206801F058F901220421206801F086
:101EB00053F900BF00BF2068006840F001002168AE
:101EC0000860002030BD704710B5044620680069E6
:101ED000C0F34000D8B12068C068C0F34000B0B182
:101EE0006FF0020021680861012020762068806977
:101EF00000F0030018B12046FFF7E5FF05E020469B
:101F000000F0DEF8204600F07BF900202076206803
:101F10000069C0F38000D8B12068C068C0F38000B9
:101F2000B0B16FF0040021680861022020762068BB
:101F3000806900F4407018B12046FFF7C4FF05E047
:101F4000204600F0BDF8204600F05AF90020207627
:101F500020680069C0F3C000D8B12068C068C0F331
:101F6000C000B0B16FF0080021680861042020763D
:101F70002068C06900F0030018B12046FFF7A3FFF6
:101F800005E0204600F09CF8204600F039F90020DA
:101F9000207620680069C0F30010D8B12068C068BE
:101FA000C0F30010B0B16FF0100021680861082084
:101FB00020762068C06900F4407018B12046FFF711
:101FC00082FF05E0204600F07BF8204600F018F97B
:101FD000002020762068006900F0010058B12068D8
:101FE000C06800F0010030B16FF0010021680861A5
:101FF000204600F02DF920680069C0F3C01058B1E8
:102000002068C068C0F3C01030B16FF08000216854
:1020100008612046FFF7EAFC20680069C0F38010E1
:1020200058B12068C068C0F3801030B16FF0400034
:1020300021680861204600F027F920680069C0F394
:10204000401058B12068C068C0F3401030B16FF044
:102050002000216808612046FFF7C9FC10BD000080
:1020600010B586B004461349206888420DD130204F
:10207000019002200290002003900490022005901D
:1020800001A90D48FEF774FF11E00C492068884251
:102090000DD14FF470700190022002900020039047
:1020A00004900220059001A90348FEF761FF06B0E5
:1020B00010BD000000040040000402400008004081
:1020C000704770B504460D46164600BF94F83800B8
:1020D000012801D1022070BD012084F8380000BF22
:1020E000022084F8390036B1042E1BD0082E31D0DE
:1020F0000C2E5ED145E02946206801F051F8206899
:10210000806940F00800216888612068806920F0BB
:102110000400216888612068806929690843216872
:10212000886147E02946206801F072F820688069DC
:1021300040F40060216888612068806920F4806034
:102140002168886120688069296940EA0120216846
:1021500088612FE02946206801F096F82068C06960
:1021600040F008002168C8612068C06920F00400C0
:102170002168C8612068C069296908432168C8616D
:1021800018E02946206801F0BBF82068C06940F4D7
:1021900000602168C8612068C06920F480602168FF
:1021A000C8612068C069296940EA01202168C861C6
:1021B00000E000BF00BF012084F8390000BF00200C
:1021C00084F8380000BF00BF85E710B504460CB99D
:1021D000012010BD94F8390028B9002084F8380097
:1021E000204600F00CF8022084F83900211D2068F8
:1021F00000F040FF012084F839000020E9E7704733
:102200007047000030B504460D460122294620687B
:1022100000F0A2FF0C492068884203D00B492068D7
:10222000884201D1012000E0002028B12068406CE4
:1022300040F40040216848642068006840F00100D4
:1022400021680860002030BD00000140000401400A
:1022500010B50446094884420ED109480068401C64
:102260000749086008460068052805D30020086073
:102270000448006803F006FC10BD0000F0A2002036
:10228000DC0000206C000020704770472DE9F0470B
:102290000446206805682068C668206847694FF0D2
:1022A0000008C14605F00F08B8F1000F0AD105F08B
:1022B000200038B106F0200020B1204601F023F9BB
:1022C000BDE8F087B8F1000F6DD007F0010018B934
:1022D00006F49070002866D005F0010030B106F4D5
:1022E000807018B1E06B40F00100E06305F004007D
:1022F00030B107F0010018B1E06B40F00200E0637C
:1023000005F0020030B107F0010018B1E06B40F0B9
:102310000400E06305F0080030B107F0010018B1D7
:10232000E06B40F00800E063E06B68B305F020006C
:1023300028B106F0200010B1204601F0E4F8206832
:102340004069C0F38019E06B00F0080010B9B9F1E2
:10235000000F22D0204601F0ACF82068406900F060
:102360004000B0B12068406920F040002168486119
:10237000606B50B11748616B0865606BFEF7CCFB72
:1023800010B1606B016D88470CE02046FFF77DFFC0
:1023900008E02046FFF779FF04E02046FFF775FFCD
:1023A0000020E0638CE705F0800030B106F080008B
:1023B00018B1204601F0A8FA82E705F0400030B1DC
:1023C00006F0400018B1204601F083F878E700BF1E
:1023D00076E70000B733000810B504460CB90120B9
:1023E00010BDA06900B100E000BF94F8390028B921
:1023F000002084F83800204600F028F8242084F8D3
:1024000039002068C06820F400502168C860204668
:1024100001F0C6F82068006920F490402168086146
:102420002068406920F02A00216848612068C0685F
:1024300040F400502168C8600020E063202084F848
:10244000390084F83A000020CAE7000010B586B0D1
:1024500004467249206888426CD100BF0020009079
:102460006F48006840F010006D4908600846006839
:1024700000F01000009000BF00BF4FF4C06001905A
:102480000220029001200390032004900720059071
:1024900001A96448FEF76CFD6348644908604FF089
:1024A00000604860002161488160C1604FF4806134
:1024B00001610021416181614FF48071C16100219E
:1024C00001624162FEF75CFC20B140F23B1158A072
:1024D00001F096FA00BF55486063846300BF52481C
:1024E00078305A4908604FF00060486040215748F2
:1024F00081600021C1604FF4806101610021416170
:102500008161C16101624162FEF73AFC20B140F293
:102510004D1147A001F074FA00BF4C48206384635A
:1025200000BF002205212520FEF79AFE2520FEF798
:102530008AFE70E04649206888426CD100BF0020C6
:1025400000903748001F006840F400303449091FEC
:1025500008600846006800F40030009000BF00BF2B
:10256000602001900220029001200390032004903B
:102570000720059001A93748FEF7FAFC364837498D
:1025800008604FF000604860002134488160C160FD
:102590004FF4806101610021416181614FF48071DC
:1025A000C161002101624162FEF7EAFB20B14FF4F4
:1025B000BD711FA001F024FA00BF28486063846346
:1025C00000BF25481830264908604FF00060486079
:1025D0004021234881600021C1604FF48061016186
:1025E000002141618161C16101624162FEF7C8FB66
:1025F00020B14FF4C6710EA001F002FA00BF1848D6
:102600002063846300BF002205212620FEF728FEF8
:102610002620FEF718FE06B010BD00000010014095
:10262000443802400000024040640240ACA3002055
:102630002E2E2F5372632F73746D33326634787875
:102640005F68616C5F6D73702E6300000CA40020E6
:1026500000440040000C0240886002406CA400204E
:10266000CCA4002077B581B00446154694F83A0012
:10267000202850D1029800B115B9012004B070BDD6
:1026800000BF94F83800012801D10220F6E70120AC
:1026900084F8380000BF0298A062A5850020E0639E
:1026A000222084F83A001D48616BC8631C48616BA6
:1026B00008641C48616BC8640020616B086502AE49
:1026C00032682368191D2B46606BFEF7CFFB00BFF5
:1026D000002000902068006800902068406800900A
:1026E00000BF00BF00BF002084F8380000BF206892
:1026F000C06840F480702168C8602068406940F07C
:102700000100216848612068406940F0400021686C
:1027100048610020B2E70220B0E700001B34000847
:1027200061340008CB33000810B5044607488442E2
:1027300004D10748006803F0A5F906E00548844283
:1027400003D10548006803F09DF910BD2CA30020BB
:10275000740000206CA300207C00002010B504460B
:102760000748844204D10748006803F08BF906E06B
:102770000548844203D10548006803F083F910BD81
:102780002CA30020740000206CA300207C000020FB
:102790002DE9F84304460D4616461F464FF0000942
:1027A00094F8390020285CD105B116B90120BDE8A4
:1027B000F88300BF94F83800012801D10220F6E721
:1027C000012084F8380000BF0020E063212084F855
:1027D0003900FEF7CDFC8146A684E6842BE0E08C30
:1027E000401EE084A068B0F5805F16D14B46002201
:1027F00080212046009701F0BBF808B10320D6E7FE
:10280000A846B8F80000C0F30800216848602069B5
:1028100008B9AD1C0FE06D1C0DE04B460022802175
:102820002046009701F0A4F808B10320BFE715F88F
:10283000010B21684860E08C0028D0D14B46002273
:1028400040212046009701F093F808B10320AEE73D
:10285000202084F8390000BF002084F8380000BF31
:10286000A5E70220A3E70000F7B50446154694F853
:10287000390020283DD1019800B10DB90120FEBDDD
:1028800000BF94F83800012801D10220F7E70120A9
:1028900084F8380000BF01982062A584E5840020F8
:1028A000E063212084F839001348216BC863134882
:1028B000216B08641248216BC8640020216B0865F5
:1028C00001AE23681A1D31682B46206BFEF7CEFA45
:1028D0006FF040002168086000BF002084F83800D5
:1028E00000BF2068406940F08000216848610020F6
:1028F000C5E70220C3E700006F340008A5340008D4
:10290000CB33000810B504460748844204D1074879
:10291000006803F0B7F806E00548844203D1054893
:10292000006803F0AFF810BD2CA300207000002059
:102930006CA3002078000020704700BFFEE7000075
:1029400008B500BF002000901E48006840F48000D9
:102950001C4908600846006800F48000009000BF31
:1029600000BF00BF002000900846006840F400103F
:1029700008600846006800F40010009000BF00BF27
:10298000002205211020FEF76BFC1020FEF75BFCF7
:10299000002205211120FEF763FC1120FEF753FCF5
:1029A000002205213A20FEF75BFC3A20FEF74BFCA3
:1029B000002205214620FEF753FC4620FEF743FC8B
:1029C00008BD00003038024000B587B000BF0020CD
:1029D00001903A48006840F0100038490860084605
:1029E000006800F01000019000BF00BF00BF002091
:1029F00001900846006840F08000086008460068C2
:102A000000F08000019000BF00BF00BF00200190D7
:102A10000846006840F0010008600846006800F0C1
:102A20000100019000BF00BF00BF002001900846D8
:102A3000006840F0080008600846006800F00800E0
:102A4000019000BF00BF00BF002001900846006851
:102A500040F0020008600846006800F002000190A3
:102A600000BF00BF0F200290154803900020049083
:102A700002A91448FEF77CFA002205210620FEF781
:102A8000EFFB0620FEF7DFFB002205210720FEF703
:102A9000E7FB0720FEF7D7FB002205210820FEF701
:102AA000DFFB0820FEF7CFFB002205210920FEF7FF
:102AB000D7FB0920FEF7C7FB07B000BD3038024046
:102AC000000031100010024000B58FB04FF0804080
:102AD00029490860002048600021274881604FF69E
:102AE000FE71C16000210161FEF7B3FF18B1FE2144
:102AF00022A000F085FF4FF480500B900BA91E48D8
:102B0000FFF735F820B14FF482711CA000F078FF78
:102B10001948FFF75AFB20B140F2091117A000F045
:102B20006FFF002009900A9009A91348FEF760FF83
:102B300020B14FF4887111A000F062FF03200090D3
:102B40000020019001200290002003900490059045
:102B50000120069000200790089069460648FFF77C
:102B60009FF820B140F21F1104A000F049FF024875
:102B7000FFF7F0F80FB000BD3CA200202E2E2F531F
:102B800072632F6D61696E2E6300000000B58FB017
:102B90002A482B49086000204860002128488160AD
:102BA0004FF6FE71C16000210161FEF752FF20B1B6
:102BB00040F2351123A000F023FF4FF480500B901A
:102BC0000BA91F48FEF7D3FF20B140F23B111DA017
:102BD00000F016FF1A48FFF7F8FA20B14FF4A07181
:102BE00018A000F00DFF002009900A9009A91448D0
:102BF000FEF7FEFE20B140F2471112A000F000FFE8
:102C000003200090002001900120029000200390FA
:102C100004900590012006900020079008906946D6
:102C20000748FFF73DF820B14FF4AB7105A000F065
:102C3000E7FE0348FFF78EF80FB000BD0004004028
:102C400078A200202E2E2F5372632F6D61696E2E95
:102C50006300000000B58DB0374838490860002097
:102C6000486000213548816042F2CF01C1600021F7
:102C70000161FEF7EEFE20B140F26B1130A000F0D2
:102C8000BFFE4FF48050099009A92C48FEF76FFF52
:102C900020B140F271112AA000F0B2FE2748FFF7E0
:102CA00094FA20B14FF4BB7125A000F0A9FE0020DA
:102CB0000790089007A92148FEF79AFE20B140F23C
:102CC0007D111FA000F09CFE60200090002001906C
:102CD00002900490002269461848FFF7F2F920B1EB
:102CE00040F2871116A000F08BFE042269461348BB
:102CF000FFF7E7F920B14FF4C67111A000F080FE94
:102D0000082269460D48FFF7DCF920B140F2911125
:102D10000BA000F075FE0C2269460848FFF7D1F9B8
:102D200020B14FF4CB7106A000F06AFE0348FFF714
:102D300097F90DB000BD000000080040B4A20020CB
:102D40002E2E2F5372632F6D61696E2E630000006B
:102D500010B50C480C4908604FF4E1304860002180
:102D600009488160C16001610C21416100218161DC
:102D7000C161FFF731FB20B140F2C31103A000F0A5
:102D80003FFE10BD001001402CA300202E2E2F531B
:102D900072632F6D61696E2E6300000010B50C48E0
:102DA0000C4908604FF4E130486000210948816017
:102DB000C16001610C21416100218161C161FFF7A6
:102DC0000BFB20B14FF4EB7103A000F019FE10BD16
:102DD000004400406CA300202E2E2F5372632F6DF1
:102DE00061696E2E6300000000BFFEE770470000BF
:102DF00002480068C0F30220704700000CED00E0BC
:102E000010B5002807DA0A07140E054A00F00F0370
:102E10001B1FD45403E00A07130E024A135410BDBB
:102E200018ED00E000E400E0F0EE400A90ED080A42
:102E300030EE603A002100EE101AB8EEC00A33EE10
:102E4000000A80ED030A90ED000A90ED033A20EEAF
:102E5000030AF0EE402A90ED060AB8EEC00A90EDA3
:102E6000033A30EE030ABDEEC00A80ED060A90ED8B
:102E7000070AB0EE402AB1EE040AB4EEC02AF1EE21
:102E800010FA06DCB9EE040AB4EEC02AF1EE10FA2C
:102E900003D29FED1F0A80ED010A90ED013A90EDFB
:102EA000060AB8EEC00A23EE001A90ED030A90ED70
:102EB000043A30EE430A90ED023A60EE031A90EDC8
:102EC000030A80ED040A32EE810A30EE210A80ED19
:102ED000070A90ED070A0F4991ED003AB4EEC30AD4
:102EE000F1EE10FA03DD91ED000A80ED070A90ED96
:102EF000070A094991ED003AB4EEC30AF1EE10FA5F
:102F000003D291ED000A80ED070A90ED070A7047A1
:102F100000000000D4000020D800002010B5FEF70B
:102F20002DF902F00DFE10BD10B592B000BF0020CB
:102F300000902D48006840F080502B4908600846FA
:102F4000006800F08050009000BF00BF00BF00206C
:102F500000902648006840F48040244908600846F4
:102F6000006800F48040009000BF00BF0120069080
:102F70000004079002200C9041050D9108210E914C
:102F80004FF4A8710F91022110910421119106A80C
:102F9000FEF7F6FA18B1D12115A000F031FD0F208F
:102FA00001900220029000200390049005900521DA
:102FB00001A8FEF7A7F918B1DF210DA000F020FD50
:102FC000FEF760FA4FF47A71B0FBF1F42046FEF799
:102FD000F3FC0420FEF7DCFC00220F21501EFEF75C
:102FE0003FF912B010BD00004038024000700040B0
:102FF0002E2E2F5372632F6D61696E2E63000000B9
:103000001448006840F470001249086012480068D3
:1030100040F001001049086000200F4908310860A5
:103020000D4800680D4908400B4908600C48091D0F
:103030000860081F006820F48020091F0860002035
:1030400005490C3108604FF0006002498039086082
:103050007047000088ED00E000380240FFFFF6FEF8
:103060001030002410B50248FEF72EFF10BD0000FE
:10307000F0A20020002202682C4B98420ED0B0F142
:10308000804F0BD02A4B984208D02A4B984205D04B
:10309000294B984202D0294B984201D1012300E0EC
:1030A00000231BB122F070024B681A431F4B984259
:1030B00020D0B0F1804F1DD01D4B98421AD01D4B2F
:1030C000984217D01C4B984214D01C4B984211D0F8
:1030D0001B4B98420ED01B4B98420BD01A4B984278
:1030E00008D01A4B984205D0194B984202D0194B80
:1030F000984201D1012300E000231BB122F4407269
:10310000CB681A4302608B68C3620B688362074B0B
:10311000984202D0094B984201D1012300E00023DC
:103120000BB10B6903630123436170470000014049
:103130000004004000080040000C00400004014072
:103140000040014000440140004801400018004098
:10315000001C00400020004030B50023012404FA88
:1031600001F3046A9C430462046A02FA01F52C43E9
:10317000046230BD30B50C460021816821F47F41E6
:1031800042EA032525432943816030BD0A460021D8
:10319000816821F0700142F0070319438160704794
:1031A00030B5002400220023056A25F001050562E0
:1031B000026A4368846924F0700424F003040D68F3
:1031C0002C4322F002028D682A430F4DA84202D000
:1031D0000E4DA84201D1012500E000256DB122F07D
:1031E0000802CD682A4322F0040223F4807323F4FA
:1031F00000734D692B438D692B43436084614D6897
:103200004563026230BD000000000140000401403F
:1032100030B5002400220023056A25F01005056260
:10322000026A4368846924F4E04424F440740D681D
:1032300044EA052422F020028D6842EA0512104D6E
:10324000A84202D00F4DA84201D1012500E000257F
:1032500085B122F08002CD6842EA051222F04002D8
:1032600023F4806323F400634D6943EA85038D6989
:1032700043EA8503436084614D688563026230BD23
:10328000000001400004014030B50024002200236A
:10329000056A25F480750562026A4368C46924F0F2
:1032A000700424F003040D682C4322F400728D682E
:1032B00042EA0522104DA84202D0104DA84201D189
:1032C000012500E0002585B122F40062CD6842EAC4
:1032D000052222F4806223F4805323F400534D69C5
:1032E00043EA05138D6943EA05134360C4614D68E1
:1032F000C563026230BD00000000014000040140CF
:1033000030B5002200230024056A25F480550562AB
:10331000036A4468C26922F4E04222F440720D68F4
:1033200042EA052223F400538D6843EA05330A4D2F
:10333000A84202D0094DA84201D1012500E0002594
:1033400025B124F480444D6944EA85144460C26187
:103350004D680564036230BD000001400004014077
:1033600030B50B46144600210022026A056A25F09A
:1033700001050562816921F0F00141EA041122F0A2
:103380000A021A438161026230BD30B50B46144611
:1033900000210022056A25F0100505628169026A94
:1033A00021F4704141EA043122F0A00242EA031202
:1033B0008161026230BD70B50546AC6B0020E085CE
:1033C000E0842046FEF761FF70BD70B5064600251B
:1033D000B46B20684069C0F3C01594F83900212807
:1033E00005D125B10020E084204600F082F8206855
:1033F0004069C0F3801594F83A00222805D125B120
:103400000020E085204600F054F8E06B40F010000A
:10341000E0632046FEF739FF70BD70B50546AC6B22
:103420002868006800F48070B0B90020E08520684A
:10343000C06820F480702168C8602068406920F06E
:103440000100216848612068406920F0400021683F
:103450004861202084F83A002046FFF765F970BDE6
:1034600070B50446A56B2846FFF778F970BD70B5B6
:103470000546AC6B2868006800F4807070B90020C5
:10348000E0842068406920F080002168486120685D
:10349000C06840F040002168C86002E02046FFF7A5
:1034A00031FA70BD70B50446A56B2846FFF744FAA3
:1034B00070BD0168C96821F490710268D16001682B
:1034C000496921F0010102685161202180F83A1018
:1034D000704710B504462068C06820F0400021689D
:1034E000C860202084F839002046FFF70BFA00203E
:1034F00010BD0168C96821F0C0010268D1602021B7
:1035000080F83910704770B5044694F83A002228C4
:1035100044D1A068B0F5805F13D1A56A206940B995
:1035200020684068C0F308002880A06A801CA06260
:1035300019E020684068C0B22880A06A401CA062E0
:1035400011E0206938B920684068C1B2A26A501CF5
:10355000A062117007E02068406800F07F01A26A55
:10356000501CA0621170E08D401E80B2E08598B9B9
:103570002068C06820F490702168C86020684069A5
:1035800020F0010021684861202084F83A0020469C
:10359000FFF7CAF8002070BD0020FCE70220FAE720
:1035A0002DE9F041044600252068056925F44055C1
:1035B000E0680543206805612068C56849F20C6031
:1035C00085432169A068084361690843E1690843AC
:1035D00005432068C5602068456925F44075A069E9
:1035E000054320684561E069B0F5004F7ED1C449CC
:1035F0002068884203D0C349206888425DD1FDF726
:1036000057FF00EBC00101EB001061684900B0FBFF
:10361000F1F06421B0FBF1F00601FDF749FF00EB8A
:10362000C00101EB001061684900B0FBF1F7FDF744
:103630003FFF00EBC00101EB001061684900B0FBE7
:10364000F1F06421B0FBF1F000EBC00101EB0010E0
:10365000A7EB8000322101EBC0006421B0FBF1F048
:1036600000F0F80006EB4006FDF722FF00EBC0017A
:1036700001EB001061684900B0FBF1F7FDF718FF9E
:1036800000EBC00101EB001061684900B0FBF1F0F4
:103690006421B0FBF1F000EBC00101EB0010A7EBDF
:1036A0008000322101EBC0006421B0FBF1F000F09A
:1036B000070030442168886020E1FDF7E9FE00EB57
:1036C000C00101EB001061684900B0FBF1F064211A
:1036D000B0FBF1F00601FDF7DBFE00EBC00101EBF2
:1036E000001061684900B0FBF1F700E045E0FDF72C
:1036F000CFFE00EBC00101EB001061684900B0FB98
:10370000F1F06421B0FBF1F000EBC00101EB00101F
:10371000A7EB8000322101EBC0006421B0FBF1F087
:1037200000F0F80006EB4006FDF7B2FE00EBC0012A
:1037300001EB001061684900B0FBF1F7FDF7A8FE4E
:1037400000EBC00101EB001061684900B0FBF1F033
:103750006421B0FBF1F000EBC00101EB0010A7EB1E
:103760008000322101EBC0006421B0FBF1F000F0D9
:103770000700304421688860C0E0614920688842C1
:1037800003D06049206888425CD1FDF791FE00EBD0
:10379000C00101EB001061688900B0FBF1F6FDF794
:1037A00087FE00EBC00101EB001061688900B0FBEF
:1037B000F1F06421B0FBF1F000EBC00101EB00106F
:1037C000A6EB8000322101EB00106421B0FBF1F088
:1037D00000F0F006FDF76CFE00EBC00101EB0010FD
:1037E00061688900B0FBF1F06421B0FBF1F006EBF9
:1037F0000016FDF75DFE00EBC00101EB00106168F3
:103800008900B0FBF1F7FDF753FE00EBC00101EBBF
:10381000001061688900B0FBF1F06421B0FBF1F0A9
:1038200000EBC00101EB0010A7EB8000322101EB9F
:1038300000106421B0FBF1F000F00F00304421686B
:1038400088605BE0FDF724FE00EBC00101EB001097
:1038500061688900B0FBF1F6FDF71AFE00EBC001CC
:1038600001EB001061688900B0FBF1F06421B0FB4E
:10387000F1F000EBC00101EB0010A6EB800032215B
:1038800001EB00106421B0FBF1F000F0F006FDF751
:10389000FFFD00EBC00101EB001061688900B0FB87
:1038A000F1F06421B0FBF1F006EB0016FDF7F0FD3E
:1038B00000EBC00101EB001061688900B0FBF1F77B
:1038C000FDF7E6FD00EBC00101EB00106168890027
:1038D000B0FBF1F06421B0FBF1F000EBC00101EBB3
:1038E0000010A7EB8000322101EB00106421B0FB37
:1038F000F1F000F00F00304421688860BDE8F081ED
:103900000010014000140140014691F839002128BF
:103910002CD18868B0F5805F0FD10A6A1088C0F397
:1039200008000B685860086918B9086A801C0862AA
:1039300009E0086A401C086205E00B6A581C08622E
:1039400018780B685860C88C401E80B2C88458B97B
:103950000868C06820F080000B68D8600868C068FC
:1039600040F040000B68D860002070470220FCE760
:103970002DE9F04104460D4617469846069E21E083
:10398000701CF8B12EB1FDF7F3FBA0EB0800B042BC
:1039900018D92068C06820F4D0702168C8602068F9
:1039A000406920F0010021684861202084F8390036
:1039B00084F83A0000BF002084F8380000BF0320DC
:1039C000BDE8F081206800682840A84201D10120AC
:1039D00000E00020B842D3D00020F1E710B5024843
:1039E000FEF754FC10BD00002CA3002010B50248C7
:1039F000FEF74CFC10BD00006CA3002000BFFEE7EA
:103A000000BFFEE70FB4084B10B504A902AA039843
:103A100000F0E6FD044602A9002001F078F92046F6
:103A200010BC5DF814FB00000F4D000837B51446BC
:103A30000846064B6A46214600F0D2FD0446694618
:103A4000002001F064F920463EBD00000F4D000843
:103A500003B401984100009850EAC12018BF042027
:103A60004A0D18BF40F0010040F2FF72B2EB515F07
:103A700008BF40F00200012808BF052002B07047CF
:103A800010B52F499FED2C1B2DED020B84B005982E
:103A900020F000408842D8BF9DED040B2DDD294960
:103AA000884209D1049840B94FF0010000F0E0FCD1
:103AB00000F0AEFC06B010BD05DB9DED040B00F080
:103AC0009BFC06B010BD68469DED040B00F0ACF801
:103AD00010F0030004BF9DED021B9DED000B0CD008
:103AE00001280ED09DED021B9DED000B022817D082
:103AF000012000F0E9FB06B010BD00F0B1FA06B0FD
:103B000010BD9DED021B9DED000B012000F0DCFBC4
:103B100051EC100B81F0004106B041EC100B10BDD0
:103B200000F09EFA51EC100B81F0004106B041EC20
:103B3000100B10BD0000000000000000000000009D
:103B4000FB21E93F0000F07F2DED020B019820F0F2
:103B5000004001909DED000B02B070470000000096
:103B600010B52F499FED2C1B2DED020B84B005984D
:103B700020F000408842DCBF00209DED040B32DDC8
:103B80002849884209D1049840B94FF0010000F05B
:103B90006FFC00F03DFC06B010BD05DB9DED040B95
:103BA00000F02AFC06B010BD68469DED040B00F045
:103BB0003BF810F0030011D0012818D09DED021B36
:103BC0009DED000B02281AD000F04AFA51EC100BC0
:103BD00081F0004106B041EC100B10BD9DED021BC1
:103BE0009DED000B012000F06FFB06B010BD9DEDB8
:103BF000021B9DED000B00F033FA06B010BD012052
:103C000000F062FB51EC100B81F0004106B041EC7A
:103C1000100B10BD000000000000000000000000BC
:103C2000FB21E93F0000F07F2DE9F14F04462DED27
:103C3000020B2DED088B8AB09FEDE70B80ED020B98
:103C4000139EE74826F0004585420ADC9DED120BE5
:103C5000002084ED000B0AB0BDEC088B03B0BDE87A
:103C6000F08FE0489FEDE0AB9FEDE1BBA84247DD60
:103C7000E14F9FEDE39B9FEDE48B9DED120B53EC29
:103C80001A2B51EC100B002E1CDDFCF7FBFB41EC5A
:103C9000100BBD4208D053EC1B2B51EC100BFCF762
:103CA000F1FBC4E900010BE053EC192B51EC100BB4
:103CB000FCF7E8FB53EC182BFCF7E4FBC4E900012C
:103CC0000120C8E7FCF73DFB41EC100BBD4208D0DA
:103CD00053EC1B2B51EC100BFCF733FBC4E9000138
:103CE0000BE053EC192B51EC100BFCF72AFB53ECB7
:103CF000182BFCF726FBC4E900014FF0FF30AAE7C0
:103D0000C348A84279DB9DED120B51EC100B01F07A
:103D100003F841EC180B9FEDC00B53EC102BFCF794
:103D2000B7FB9FEDBF1B53EC112BFCF70AFBFCF715
:103D3000A1FC0746FCF78DFC41EC190B53EC1A2B48
:103D4000FCF7A6FB53EC182BFCF79FFB41EC180B80
:103D500053EC1B2B51EC190BFCF79AFBDFF8C8A2B4
:103D600041EC100B4FEA15580125FA4453EC102B87
:103D700051EC180BFCF786FB032DC4E900013DD084
:103D8000C1F30A5005EB4511A8EB0000113981423F
:103D900034DA0AEB051BB0EE48AA9BED000BF0EEFF
:103DA00068AA53EC102B51EC190BFCF771FB41EC9A
:103DB0001B0B51EC1A0B53EC1B2BFCF763FB41EC78
:103DC000180B51EC1A0B53EC182BFCF75BFB53EC64
:103DD0001B2BFCF757FB9BED020B41EC1A0B53EC32
:103DE000102B51EC190BFCF753FB53EC1A2BFCF77F
:103DF00049FB41EC100B6D1CB8E70EE0002EA8BF8C
:103E00003846BFF628AF94ED000B51EC100B81F053
:103E10000041C4E9000178421DE7C6F3130040F4F5
:103E2000801EC6F30A50A0F2F530471100F01F05BE
:103E3000C5F12000DDF848B00890002006900790FA
:103E40000520EC467949002D07EB0002794408BFB4
:103E500051F8221009D051F8223001EB8201AB4019
:103E60004A68089922FA01F11943A1FB0E26A1FB29
:103E70000B131A449A4234BF0123002303EB0608B4
:103E80000CEB8003D3E901A60E448E4234BF01211E
:103E9000002192448A4411B1924502D903E092452F
:103EA00001D2012100E00021C3E901A641444CF800
:103EB0002010011EA0F10100C4DC029800F10050A6
:103EC000850F0298DDE903678000DDF81480FCF7B8
:103ED000C0FB41EC1A0B3046FCF738FD9FED541B3C
:103EE00053EC112BFCF7D4FA41EC1B0B3846FCF7D2
:103EF0002DFD9FED511B53EC112BFCF7C9FA41EC42
:103F0000180B4046FCF722FD9FED4D1B53EC112B87
:103F1000FCF7BEFA41EC190B51EC180B53EC192BC2
:103F2000FCF70FFA53EC1B2BFCF70BFA53EC1A2B94
:103F3000FCF707FACDE90801002008909DED080B79
:103F400053EC1A2B51EC100BFCF79CFA53EC1B2B87
:103F5000FCF798FA53EC182BFCF794FA53EC192B56
:103F6000FCF793FA9FED381B53EC112BFCF790FAFA
:103F70009FED370B41EC180B53EC102B9DED080B0C
:103F800051EC100BFCF784FA53EC182BFCF7D9F921
:103F90009FED310B41EC180B53EC102B9DED080BF2
:103FA00051EC100BFCF774FA53EC182BFCF7C9F921
:103FB00041EC100B139810F0004F06D06D4251ECFD
:103FC000100B81F0004141EC100B284684ED000BF2
:103FD00041E60000000000000000000000000000BA
:103FE000FB21E93F7CD9024000004054FB21F93F0E
:103FF0003163621A61B4D03DFB21F93F000000003B
:104000000000601A61B4D03D7370032E8A19A33B7F
:10401000FB2139410000000083C8C96D305FE43FD7
:10402000000000000000E03F223C0000703B000068
:10403000000000000000103E000000000000103CE6
:10404000000000000000103A182D4454FB21F93DF7
:104050003326A611460B113C00000054FB21F93D0C
:1040600010B52DED040B2DED088B82B0B0EE419A0A
:10407000F0EE619A0B9820F000449FED4BABB4F149
:10408000795F11DA9DED0A0B51EC100BFCF7F2FA97
:10409000002801BFB0EE4A0AF0EE6A0A02B0BDEC99
:1040A000088B04BF04B010BD9DED0A0B53EC102B20
:1040B00051EC100BFCF7ECF941EC180B3C480621D5
:1040C000B0EE480AF0EE680A784400F081F853EC4C
:1040D000182B51EC100BFCF7DBF99DED0A0B41ECB2
:1040E0001B0B53EC192B51EC100BFCF7D1F941ECE5
:1040F000190B53EC1B2B51EC180BFCF7C9F953ECC3
:10410000192BFCF7BFF99FED2C0B41EC190B53EC6D
:10411000102B51EC180BFCF7BBF941EC100B2848A5
:10412000844210DA53EC192B51EC100BFCF7AAF96E
:1041300053EC1A2BFCF7A9F941EC100B02B0BDECC3
:10414000088B04B010BD1F48A042BCBF9FED1E1BD2
:104150008DED001B06DBA4F50010019000200090FF
:104160009DED001B51EC100B53EC112BFCF78AF961
:104170009DED000B41EC180B53EC102B51EC1A0B7E
:10418000FCF780F941EC1A0B53EC192B51EC180B8E
:10419000FCF778F953EC1A2BFCF777F941EC100B8C
:1041A000CCE7000000000000000000000000F03F2D
:1041B0009438000000000000000000000000E03F14
:1041C0003333D33F0000E93F000000000000D23F3E
:1041D00070B504462DED028B4D1E00EBC500B0EE10
:1041E000408AF0EE608A90ED000B35F0060017D0A3
:1041F00053EC182B51EC100BFCF74AF941EC100B67
:104200006D1E04EBC50090ED001B51EC100B53EC40
:10421000112BFCF796F841EC100B35F00600E7D1B6
:10422000022D36D0042D1CD0062D1CBFBDEC028BF8
:1042300070BD53EC182B51EC100BFCF729F994EDE1
:104240000A1B53EC112BFCF77CF853EC182BFCF7F2
:104250001FF994ED081B53EC112BFCF772F841EC9D
:10426000100B53EC182B51EC100BFCF711F994EDDB
:10427000061B53EC112BFCF764F853EC182BFCF7DE
:1042800007F994ED040B53EC102BFCF75AF841ECB2
:10429000100B53EC182B51EC100BFCF7F9F894EDC4
:1042A000021B53EC112BFCF74CF853EC182BFCF7CA
:1042B000EFF894ED001B53EC112BFCF742F8BDEC2A
:1042C000028B41EC100B70BD31B504462DED040B93
:1042D0002DED0A8BB0EE41BAF0EE61BA0B989DED70
:1042E0000A0B20F00040B0F1795F0DDA51EC100BB1
:1042F000FFF7AEFB042808BF00F09AF89DED0A0B0B
:10430000BDEC0A8B05B030BD53EC102B51EC100BFB
:10431000FCF7BEF841EC180B9DED0A0B53EC182B83
:1043200051EC100BFCF7B4F841EC190B2C48B0EE33
:10433000480AF0EE680A05217844FFF749FF9FED2F
:104340002ACBB0EE40AAF0EE60AA9CB353EC1C2B33
:1043500051EC190BFCF79CF841EC1C0B53EC1A2B9D
:1043600051EC190BFCF794F89FED210B41EC190B64
:1043700053EC102B51EC1B0BFCF78AF853EC192B68
:10438000FCF780F853EC182BFCF782F853EC1B2B4E
:10439000FCF778F853EC1C2BFCF774F89DED0A1B26
:1043A00053EC112BFCF771F8BDEC0A8B05B041EC16
:1043B000100B30BDFFE753EC1A2B51EC180BFCF738
:1043C00067F853EC1C2BFBF7BCFF53EC192BFCF7E5
:1043D0005FF89DED0A1B53EC112BFBF7B2FFE3E7EF
:1043E0001C37000000000000495555555555C5BF04
:1043F000000000000000E03F10B553EC102B51EC22
:10440000100BFBF79EFF41EC100B10BD00000000ED
:104410009FED050B10B553EC102B51EC100BFCF776
:10442000A9F841EC100B10BD0000000000000000D6
:104430009FED050B10B553EC102B51EC100BFCF756
:1044400027F841EC100B10BD000000000000001028
:1044500002E008C8121F08C1002AFAD1704770474D
:10446000002001E001C1121F002AFBD170470000AB
:104470000149086070470000480100202DE9FF5FF6
:10448000DDE90220010DDDF838B0024318D044F612
:104490001050A1F2FF3141430D140F98012820D094
:1044A000A5EB0B00401C5FEA000A4FF00004474EEA
:1044B000DFF81C91A046504616D5CAF1000728E047
:1044C0000F98012443A2012808D0002100980F9BD7
:1044D000C0E90021C0E90243BDE8FF9F6FEA0B017C
:1044E000F4E7CBF10000DEE7074612E0F80707D05B
:1044F0002246334640464946FBF7CAFF8046894676
:104500002246334610461946FBF7C2FF04460E46C4
:104510007F10002FEAD1DDE90201BAF1000F424617
:104520004B4602DAFBF7B4FF01E0FCF723F8044640
:104530000E460022284BFCF7DFF903D84FF0FF307E
:10454000014607E00022254B20463146FBF7F9FEE5
:10455000FCF7B9F9102409E0002C0ADB0A22002339
:10456000FBF78CFE019B30321A55641E50EA0102A3
:10457000F2D1641C019AC4F1110314440F9A012A68
:1045800003D0012208430DD10AE0084304D00020E3
:104590004FF0110B0F9080E7A3EB0B056D1E0DE0A4
:1045A0005B4504DD4FF0000205F1010504E003DA8C
:1045B0004FF00002A5F10105002AECD000980F99F8
:1045C000C0E90231C0E9004586E700000000244050
:1045D0000000F03F300000000000F0430000E03F2A
:1045E0002DE9FF4F95B09B468946064600250FE210
:1045F000252877D100242746F84A0121059400E0B8
:10460000044316F8013F203B01FA03F01042F7D1B2
:1046100030782A2811D06FF02F033078A0F13002C3
:10462000092A16D8059A44F0020402EB820203EB31
:1046300042021044761C0590EFE759F8042B0592CE
:10464000002A03DA504244F40054059044F0020476
:10465000761C30782E2816D116F8010F44F0040489
:104660002A280DD06FF02F023078A0F13003092BEB
:1046700009D807EB870302EB4303C718761CF3E75F
:1046800059F8047B761C30786C280FD006DC4C2857
:1046900017D068280DD06A2814D104E0742810D0EF
:1046A0007A280FD10DE044F400140AE044F4801499
:1046B00001E044F440147278824202D104F580147F
:1046C000761C761C307866280BD013DC582877D0FF
:1046D00009DC002875D04528F6D04628F4D04728B4
:1046E0001AD19DE118E0632835D0642879D0652877
:1046F00012D195E1702873D008DC6728F1D06928C1
:104700006FD06E280DD06F2806D1B5E073282CD05D
:10471000752875D0782874D05A46179990476D1C23
:1047200075E1C4F30250022809D003280DD0D9F84E
:10473000001004280DD00D6009F1040967E1D9F8D3
:104740000010EA17C1E90052F6E7D9F800100D8011
:10475000F2E70D70F0E719F8041B8DF80010002047
:104760008DF80100EA46012003E059F804AB4FF050
:10477000FF3061074FF0000102D40DE008F10101A4
:104780008846B9420FDA8045F8DB1AF8081000298C
:10479000F4D108E008F1010188468142FADB1AF8F9
:1047A00008100029F6D105985B46A0EB08072146C2
:1047B0003846179A00F094FA284400EB080507E001
:1047C0004DE029E10DE01AF8010B5A461799904780
:1047D000B8F10108F7D25B4621463846179A13E133
:1047E00042E00A220092C4F302524FF0000A022A69
:1047F00008D059F804CB032A4FEAEC710AD00DE037
:1048000029E02AE009F1070121F00702F2E802C1DC
:10481000914609E00FFA8CFC4FEAEC71042A03D1AF
:104820004FFA8CFC4FEAEC71002907DA0A460021A6
:10483000DCF1000C61EB02012D2202E0220504D51F
:104840002B228DF80420012203E0E20701D0202270
:10485000F7E7904659E00A2102E010220DE010210E
:104860004FF0000A00910BE010224FF0000A44F0D4
:1048700004040827009203E008224FF0000A009287
:10488000C4F30252022A05D059F804CB0021032AAE
:1048900008D009E009F1070121F00702F2E802C19E
:1048A000914605E01FFA8CFC042A01D10CF0FF0CA4
:1048B0004FF00008220728D5702806D0009B83F00F
:1048C000100353EA0A0305D00EE040228DF80420BD
:1048D000012208E05CEA010206D030228DF80420B3
:1048E0008DF8050002229046009B83F0080353EAEE
:1048F0000A030AD15CEA010201D1620705D5302220
:104900008DF804204FF001087F1E582804D034A0F1
:1049100003900EA802900DE036A0F9E753466046DA
:10492000009AFBF7ABFC84460398825C0298401E19
:10493000029002705CEA0100F0D1029806A9081A00
:1049400000F1200A600702D524F4803400E001273A
:10495000574502DDA7EB0A0000E0002000EB0A014A
:10496000009005984144401A0590E00306D45B4648
:104970002146179A059800F0B3F90544002706E090
:1049800001A85A46C05D179990476D1C7F1C47458A
:10499000F6DBE0030CD55B462146179A059800F03C
:1049A0009FF9054404E030205A46179990476D1C42
:1049B0000099481E00900029F5DC08E00298029951
:1049C0005A460078491C0291179990476D1CBAF11C
:1049D0000001AAF1010AF1DC65E1000009280100EB
:1049E0003031323334353637383961626364656665
:1049F0000000000030313233343536373839414227
:104A0000434445460000000000F058F90544761C78
:104A1000307800287FF4ECAD19B02846BDE8F08F5F
:104A2000620700D4062709F1070222F0070CFCE810
:104A30000223E14603F000485FEA080C02D00FF2BF
:104A4000702C0DE05FEA045C02D50FF2682C07E0E1
:104A50005FEAC47C02D00FF2602C01E0AFF2700C70
:104A60004FF0FF3823F00043CDF850C065280CD03C
:104A700006DC452809D046281DD047283DD13DE019
:104A8000662818D067287ED138E00021112F01DB7D
:104A9000112000E0781CCDE9000106A90EA8FFF75F
:104AA000EDFCDDE90F010E9A03910021009207F160
:104AB000010A04914DE04FF000400097CDE901104C
:104AC00006A90EA8FFF7DAFCDDE90F0203920E9BA0
:104AD00011990022DDF80CA00093049211B9791C01
:104AE00000EB010AB7EB0A0004D4C0F1FF3007F174
:104AF000010A0490AAEB0700019044E0012F00DABC
:104B000001270021112F01DD112000E03846CDE9F9
:104B1000000106A90EA8FFF7B1FCDDE90F010E9A0E
:104B20000391002104910092BA4621070CD4039905
:104B3000514500DA8A46BAF1010F05DD009AAAF163
:104B40000101515C302908D0B84202DA10F1040F9B
:104B500006DA0121CDE9011015E0AAF10101E9E72A
:104B6000002805DC049901440491AAEB000102E04D
:104B7000411C514500DD8A460499401A401C0190B1
:104B80004FF000400290200704D40198504501DB0B
:104B9000CDF8048000208DF84F0002980DF14F07EA
:104BA000B0F1004F25D02B200E9002984FF0020854
:104BB00000280CDA404202902D200E9007E00A21D6
:104BC0000298FBF7A5FD3031029007F8011DB8F1FE
:104BD0000001A8F10108F2DC02980028EFD1791E4B
:104BE0000E980870307800F0200040F0450007F87B
:104BF000020D12A8C01B00F107081498007800B13C
:104C0000012000EB0A01019801EBE0710598414495
:104C1000401A401E0590E00306D45B462146179AD1
:104C2000059800F05DF805441498007818B15A46CC
:104C3000179990476D1CE00324D55B462146179ACF
:104C4000059800F04DF805441CE00498002807DBA7
:104C5000DDE90301884203DD0098405C179901E01B
:104C6000179930205A469047049805F10105401CD9
:104C700004900198401E019004D12E205A461799A5
:104C800090476D1CBAF10001AAF1010ADDDC05E0D4
:104C900017F8010B5A46179990476D1CB8F100019F
:104CA000A8F10108F4DC5B462146179A0598ABE6AB
:104CB0002D0000002B000000200000002DE9F04135
:104CC000044600251E461746880404D405E03946EC
:104CD0002020B0476D1C641EF9D52846BDE8F08140
:104CE0002DE9F041044600251E469046C80301D533
:104CF000302700E02027880404D505E041463846E7
:104D0000B0476D1C641EF9D52846BDE8F0810A68DD
:104D1000531C0B601070704782B0CDE9000121F088
:104D2000004001909DED000B02B051EC100B70475C
:104D30002DE9F041044688461646002716B90020A2
:104D4000BDE8F081A088E188884219DDA088E1886B
:104D5000451AB54200D93546E288206881182A46AE
:104D60004046FBF7BCFAE0882844E080E0882189CF
:104D7000884203DBE0882189401AE0802F4436E036
:104D8000A088E188884232DA2089E188451AB54254
:104D900000D93546E288206881182A464046FBF74C
:104DA0009EFAE0882844E080E0882189884203DB7D
:104DB000E0882189401AE0802F44A088B8B1A588F6
:104DC0007819B04200D9F51B85B108EB07002A46D7
:104DD0002168FBF784FAE0882844E080E088218994
:104DE000884203DBE0882189401AE0802F4438465E
:104DF000A6E710B50146002000220B681B68C3F32C
:104E000000123AB10B685B6A23B10C68CB68646A24
:104E1000181B01E00B68586A00230C68636210BD20
:104E200000BFEFF3058008B1012070470020FCE7C8
:104E30000FB408B54FF0FF310948006800F0D2FD0B
:104E400003A800900121009A029801F07DFB002048
:104E500000900348006800F09DFD01B05DF814FB70
:104E600080000020FCF792F9FEF75EF8FDF7ACFD3C
:104E7000FDF766FDFDF7EEFEFDF76AFFFDF78EFF1D
:104E8000FDF784FEFDF720FE00F004F800F077FD4A
:104E900000BFFEE700B587B000200690012106A8FC
:104EA00000F0D6FD074908601422074901A8FBF766
:104EB00016FA002101A800F04BFE0449086007B073
:104EC00000BD0000680000203C790008840000203C
:104ED00001460020842901D0CA1C104470470000FC
:104EE0002DED048B82B000BF00BF00262F4D304C4B
:104EF000304820600020E080A080802020812E4863
:104F000028600020A880E880802028812B4800218C
:104F100001604160012280212748FBF700FA00BFB1
:104F20002A8927482968FDF79DFB711E25480068DE
:104F300000F0D0FD38E001212348006800F0CAFDF0
:104F40001F48808D1E49496B09684968401AA8802E
:104F50002089A388C01A82B22068C1182846FFF7AA
:104F6000E7FE86B206B3A0883044A080204600F059
:104F700007FE124890ED010A10EE101A0846FBF7E2
:104F800098FB41EC180B0D4890ED000A10EE101A3A
:104F90000846FBF78EFB41EC190B8DED008B53ECB3
:104FA000192B0AA0FFF744FFC5E700002CA500203D
:104FB00038A50020C4A5002044A500204001002001
:104FC0006CA30020680000207C0000206F646F6DDF
:104FD000657472795F7269676874202566206F64F2
:104FE0006F6D657472795F6C65667420256600006C
:104FF00096B000BF342109A8FBF798F9002008906B
:105000001C2101A8FBF792F9002000900025032045
:105010008DF821001C20ADF82200FA208DF8200028
:1050200040F60A500090691E1348006800F052FDD7
:1050300020E00023642201A91048006801F0ECFE82
:105040000446012C16D1089809901C2201A90AA82F
:10505000FBF745F909A8BDF80010ADF8441022256A
:10506000A11E0748006800F035FD2A4609A9054839
:10507000FDF7FAFBDDE7000068000020900000204B
:10508000780000206CA30020F0B52DED0E8B83B0CE
:1050900005460C469FEDFE0AB0EE408A9FEDFC0AE5
:1050A000F0EE408A9FEDFA0A10EE106A9FEDF80AC2
:1050B000B0EE409A9FEDF60AF0EE409A9FEDF40AAA
:1050C000B0EE40EAF3480078E8B3F34890ED000A08
:1050D000F248D0ED000A20EE200AF148D0ED000A97
:1050E000F04890ED001A60EE810AEF4890ED001A4A
:1050F00060EE810A80EE201A11EE107A3846FBF736
:10510000D8FAEA4A03C2EA480068FBF7D2FA41EC4F
:105110001A0B53EC1A2BE54890ED000B51EC100BD9
:10512000FBF728FAE34A03C20020DA490870DF4897
:1051300090ED000B8DED000BDE4890ED000B53EC75
:10514000102BDDA000E001E0FFF772FED5E90020A2
:10515000104400EE100AB8EEC00AF6EE000A20EE87
:10516000200A10EE101A0846FBF7A3FAD64A03C22B
:10517000D5E90010401A00EE100AB8EEC00AB0EEF1
:10518000408A00BFD14890ED000AB5EEC00AF1EEAA
:1051900010FA13DDCE4890ED000AB5EEC00AF1EE2C
:1051A00010FA0BDDC84890ED000B51EC100BFBF72B
:1051B00093FA08EE900A18EE106A71E0C34890ED79
:1051C000000AB5EEC00AF1EE10FA19D2C04890ED0F
:1051D000000AB5EEC00AF1EE10FA11D2BA4890ED0D
:1051E000000B51EC100B81F0004141EC1A0BFBF766
:1051F00073FA08EE900AB1EE480A10EE106A4FE01A
:10520000B24890ED000AB5EEC00AF1EE10FA1CD2D9
:10521000AF4890ED000AB5EEC00AF1EE10FA14DDC9
:10522000B1EE480AF0EE408AA74890ED000B53EC2F
:10523000102B9FEDA80B51EC100BFBF729F941EC5B
:105240001A0BFBF749FA06462AE0A04890ED000A3F
:10525000B5EEC00AF1EE10FA1ADD9D4890ED000A95
:10526000B5EEC00AF1EE10FA12D2F0EE488A964876
:1052700090ED000B53EC102B9FED980B51EC100BA5
:10528000FBF706F941EC1A0BFBF726FA064607E096
:105290009FED7F0AF0EE408A9FED7D0A10EE106AC6
:1052A0003046FBF706FA41EC1B0B824890ED000BF1
:1052B00053EC102B51EC1B0BFBF7EAF841EC1A0BEB
:1052C000FBF70AFA09EE100A94ED020A30EE090A19
:1052D00084ED020A94ED020AF6EE000A00EE890A55
:1052E000804880ED000A0068FBF7E3F941EC1B0BF6
:1052F000B0EE4B0AF0EE6B0AFEF732FCB0EE40AABD
:10530000F0EE60AA51EC1A0BFBF7E6F909EE900AF1
:1053100074480068FBF7CDF941EC1B0BB0EE4B0A6B
:10532000F0EE6B0AFEF7ACFBB0EE40AAF0EE60AA1E
:1053300051EC1A0BFBF7D0F90EEE100A28EE8E0A8C
:1053400010EE101A0846FBF7B4F941EC1D0B574854
:1053500090ED000B53EC102B51EC1D0BFBF798F864
:1053600041EC1B0B94ED000A10EE101A0846FBF7F7
:10537000A0F941EC1C0B53EC1B2BFAF7E2FF41ECBC
:105380001A0BFBF7A9F9206028EEA90A10EE101AF3
:105390000846FBF78EF941EC1D0B444890ED000BDD
:1053A00053EC102B51EC1D0BFBF772F841EC1B0B6F
:1053B00094ED010A10EE101A0846FBF77AF941EC59
:1053C0001C0B53EC1B2BFAF7BCFF41EC1A0BFBF741
:1053D00083F9606044480068FBF76BF941EC1B0BF4
:1053E00018EE900AFBF765F941EC1D0B2F4890ED84
:1053F000000B53EC102B51EC1D0BFBF749F841EC63
:105400001C0B53EC1B2BFBF7B5F841EC1A0BFBF70D
:1054100063F9E060344890ED000AC9EE000AC4ED7B
:10542000040A94ED020A1D48D0ED000AB4EEE00A29
:10543000F1EE10FA09DD94ED020A2C48D0ED000AD5
:1054400030EE600A84ED020A14E094ED020A13487B
:10545000D0ED000AF1EE600AB4EEE00AF1EE10FAC7
:1054600008D294ED020A2148D0ED000A30EE200A5D
:1054700084ED020A95ED000AB8EE400ADFED1C0A41
:1054800020EE200A0548D0ED000A20EE200A31E087
:105490000000000020010020000100200801002081
:1054A00018010020F8000020FC0000202801002046
:1054B000F4000020300100206F6E6520256C66200E
:1054C000256C660D0A000000380100209C000020B9
:1054D000A000002000000000000000C0000000004C
:1054E000000000401C0100201401002010010020D9
:1054F000000048431948D0ED000A20EE200A184861
:10550000D0ED000A174890ED001A60EE810A80EE97
:10551000201A84ED051A95ED010AB8EE400A5FEDF8
:105520000C0A20EE200A1048D0ED000A20EE200AD6
:105530000A48D0ED000A20EE200A0948D0ED000A02
:10554000084890ED001A60EE810A80EE201A84ED82
:10555000061A03B0BDEC0E8BF0BD00000001002068
:10556000FC00002018010020080100202DED088B10
:10557000AAB000202990269027902890239024906C
:1055800025902422E5491AA8FAF7A9FE2422E34926
:10559000243111A8FAF7A3FE00BF00BF00BF00BF6F
:1055A0009FEDDF0AF0EE408A9FEDDD0AB0EE409AF3
:1055B00000200D9000BF0C9000BF0B909FEDD90A0A
:1055C000B0EE408A1C2104A8FAF7B0FE0020029039
:1055D0000390411ED448006800F07CFA9DE105214B
:1055E000D248006800F076FAD148FFF702FC02903A
:1055F000D048FFF7FEFB03900020CF490860CF4959
:10560000086026AA0399299842F8201023AA029933
:10561000299842F820102998401CC0B229900027F0
:10562000B84600252E462998032801DB0020299042
:1056300000200C9011E026A90C9851F82000C71901
:1056400048EBE07823A90C9851F820104D1946EB4F
:10565000E1760C9800F101000C900C980328EADB2D
:105660000322002328463146FAF708FE05460E4677
:105670000322002338464146FAF700FE07468846D3
:105680004FF0C80C00202A46A2FB0C1E06FB0CE3C0
:1056900005FB003C3C2000220B4661469446A3FBE0
:1056A000002E01FB00E003FB0C00CDE900202C22C2
:1056B0000023DDE90001FAF7E1FD0546C8214FF0BE
:1056C000000C3A46A2FB010E08FB01E107FB0C129D
:1056D0003C23A0FB031E02FB03E200FB0C202C2258
:1056E0006346CDE9001008460199FAF7C7FD074661
:1056F0000FFA87FA0FFA85FBD146CDF840B0BDEE20
:10570000C80AB8EEC00A8E48D0ED000A20EE200A82
:10571000BDEEC00A8DED0F0ABDEEC80AB8EEC00A94
:105720008848D0ED000A20EE200ABDEEC00A8DEDBB
:105730000E0A90ED000A28EE000A10EE101A084634
:10574000FAF7B7FF41EC1B0BB0EE4B0AF0EE6B0A19
:10575000FEF7FAF9B0EE40AAF0EE60AA51EC1A0B8F
:10576000FAF7BAFF2290764890ED000A28EE000A78
:1057700010EE101A0846FAF79CFF41EC1B0BB0EE36
:105780004B0AF0EE6B0AFEF7DFF9B0EE40AAF0EE3E
:1057900060AA51EC1A0BFAF79FFF1990CA46DDF880
:1057A00040B0ABEB0A006849086000EE10AAB8EE02
:1057B000400A11A8FDF738FB30EE280AF0EE408AC7
:1057C000BDEEE80A10EE104A2046FAF742FF41EC1F
:1057D0001B0BB0EE4B0AF0EE6B0AFEF7B5F9B0EE1C
:1057E00040AAF0EE60AA51EC1A0BFAF743FF044608
:1057F00042F2D000844201DD044602E0002C00DACF
:1058000000241098A9EB00004F49086000EE10BA80
:10581000B8EE400A1AA8FDF707FB30EE090AB0EE11
:10582000409ABDEEC90A8DED0D0A0D98FAF711FFE9
:1058300041EC1B0BB0EE4B0AF0EE6B0AFEF784F95D
:10584000B0EE40AAF0EE60AA51EC1A0BFAF712FF84
:105850000D9042F2D0010D98884202DD08460D906D
:1058600004E00D98002801DA00200D9042F2D000EB
:10587000844201DD044602E0002C00DA00240F9887
:10588000002807DD002031490968C8632F480068F7
:10589000046411E00F98002807DA2C480068C463FC
:1058A00000202A490968086406E0002027490968A1
:1058B000C8632649096808640E98002808DD00209E
:1058C00022490968486321490D980968886312E0F4
:1058D0000E98002808DA1D490D98096848630020D1
:1058E0001A490968886306E0002018490968486376
:1058F00016490968886304A902A8FFF7C5FB0B983D
:10590000411C0B91052808D900200B9000231A4652
:1059100004A90F48006801F0ADFB60E6AC78000810
:1059200000000000714BB041680000206C000020B6
:105930003CA2002078A200209800002094000020C3
:105940009C000020A0000020C8000020B4A200207D
:105950009000002070B5044625460DB1294600E0B0
:105960000121084600F0D4FF002070BD10B501F001
:10597000A1FD012801D1002010BD0120FCE710B5D8
:1059800001F086F8002010BD10B50446012001F09A
:1059900005FA10BD38B50446002500200090FFF739
:1059A0003FFA90B16946204601F038FC012801D049
:1059B000FF2038BD009888B14FF08050084908603A
:1059C000BFF34F8FBFF36F8F08E000231A461946CD
:1059D000204601F04FFB012800D0FF252846E8E7CC
:1059E00004ED00E0F8B506460C46002000900EB924
:1059F0008020F8BD0025601C08B96D1E03E014B1BD
:105A0000254605B90125FFF70BFA98B16A46002132
:105A1000304601F073FC012801D0FF20E9E700982F
:105A200090B14FF0805009490860BFF34F8FBFF32A
:105A30006F8F09E000232A461946304601F0ECF941
:105A4000012801D0FF20D4E70020D2E704ED00E0D8
:105A500070B506460C46012C0ED103220021012010
:105A600001F0ADF905462DB100231A461946284626
:105A700001F000FB284670BD2146204601F060F988
:105A8000F9E7000038B50446002500200090FFF734
:105A9000C7F990B16946204601F0C0FB012801D04A
:105AA000FF2038BD009888B14FF080500849086049
:105AB000BFF34F8FBFF36F8F08E000231A461946DC
:105AC000204601F0D7FA012800D0FF252846E8E754
:105AD00004ED00E0F8B506460C46002000900EB933
