:020000040800F2
:1000000040AA0020590200088B220008572000084F
:100010008922000867090008392C00080000000048
:100020000000000000000000000000009D0100082A
:100030003D0A000800000000F10100085D230008EF
:1000400073020008730200087302000873020008BC
:1000500073020008730200083F0A0008450A0008FE
:100060004B0A0008510A00087302000873020008D6
:10007000730200087302000873020008730200088C
:100080006909000875090008730200087302000876
:10009000730200087302000873020008730200086C
:1000A000730200087302000873020008730200085C
:1000B000730200087302000873020008730200084C
:1000C000730200087302000873020008730200083C
:1000D00073020008212C00082D2C00087302000870
:1000E000730200087302000873020008730200081C
:1000F000730200087302000873020008730200080C
:1001000073020008730200087302000873020008FB
:1001100073020008730200086124000873020008DB
:1001200073020008730200088109000873020008C6
:1001300073020008730200087302000873020008CB
:1001400073020008730200087302000873020008BB
:1001500073020008730200088D090008730200088A
:10016000730200087302000873020008730200089B
:100170007302000873020008730200080000000008
:100180007302000873020008DFF80CD000F0CCFB0B
:10019000004800476540000840AA00202B4B196822
:1001A0000868B0E8F04F80F30988BFF36F8F4FF015
:1001B000000080F3118870470000000006480068C6
:1001C000006880F3088862B661B6BFF34F8FBFF353
:1001D0006F8F00DF00BF00BF08ED00E0DFF80C000C
:1001E000016841F470010160704700BF88ED00E0D4
:1001F000EFF30980BFF36F8F144B1A681EF0100FD6
:1002000008BF20ED108A20E9F04F106008B44FF0CD
:10021000500080F31188BFF34F8FBFF36F8F05F04D
:1002200071FA4FF0000080F3118808BC1968086863
:10023000B0E8F04F1EF0100F08BFB0EC108A80F34A
:100240000988BFF36F8F704700BF00BF24000020F4
:10025000EFF30580704700000648804706480047D6
:10026000FEE7FEE7FEE7FEE7FEE7FEE7FEE7FEE766
:10027000FEE7FEE70D240008890100082DE9F05F84
:100280000546002092469B46884606468146402405
:100290001BE0284641464746224600F05EFA534698
:1002A0005A46C01A914110D311461846224600F012
:1002B00045FA2D1A67EB01084F462246012000211E
:1002C00000F03CFA17EB00094E41201EA4F1010496
:1002D000DFDC484631462A464346BDE8F09F10B56C
:1002E000431A934209D28318881803E010F8011DBD
:1002F00003F8011D521EF9D210BD40EA01039B070D
:1003000003D009E008C9121F08C0042AFAD203E08A
:1003100011F8013B00F8013B521EF9D210BDD2B2D8
:1003200001E000F8012B491EFBD270470022F6E7DE
:1003300010B513460A4604461946FFF7F0FF20465B
:1003400010BD2DE9FE4F804681EA0300C00F0C4628
:10035000009021F0004123F00045B8EB0200A941D4
:1003600005D24046214690461C460B46024623F0E5
:100370000040104347D0270DC7F30A00C3F30A51CA
:100380000290401A019040286BDAC3F3130040F446
:10039000801B0098924620B10023D2EB030A63EB46
:1003A0000B0B01985946C0F14002504600F0C6F9C7
:1003B00006460D4650465946019A00F0DEF910EB0C
:1003C00008006141002487EA115284EAE7731A4366
:1003D00040D0009A62B3019A012A4FEA075215DC15
:1003E000001B61EB02014FF0004202EA0752CDE927
:1003F0000042001C41F5801132462B4600F015FAF0
:1004000003B0BDE8F08F40462146F9E7001B61EBE1
:100410000201001C41F5801300185B412018A2F571
:10042000001747EB030140EAD570B6196D4111E0A2
:100430006D084FEA360645EAC0754FEA0752001BC1
:1004400061EB0201001C41F5801149084FEA3000C0
:100450000019514132462B4603B0BDE8F04F00F081
:10046000D5B90098012240000023D0EB020263EBD3
:10047000E073009821464FEAE074B8EB000061EBAE
:100480000401E9E783F000435BE781F0004158E7AE
:100490002DE9FE4F81EA030404F0004421F00041FD
:1004A00000944FF0000B23F0004350EA01045ED0AB
:1004B00052EA03045BD0C3F30A54C1F30A552C4437
:1004C000A4F2F3340194A0FB0254C1F3130141F4EC
:1004D0008011C3F3130343F4801301FB024400FBB8
:1004E000034E840A970A44EA815447EA8357A4FBDF
:1004F000076802958D0A05FB07854FEA932C04FBDC
:100500000C542705029D4FEA065847EA1637B5EB0B
:1005100008056EEB070C870E920E47EA811742EA38
:100520008312A7FB0201B6EB0B0164EB00042B0D59
:1005300043EA0C335E1844EB1C50DA465146E7FBA5
:100540000201C5F313044FEA0B3343EA14534FEA95
:100550000432019C43EA0603A4F10C040294009CBB
:10056000CDE900B400F061F903B0BDE8F08F0020E0
:100570000146F9E72DE9F04D81EA030404F0004B50
:1005800021F0004514464FF0000A23F0004150EAE4
:10059000050220D054EA01021DD0C5F30A570246D5
:1005A000C5F31303C1F31300C1F30A5640F48015D9
:1005B00043F48013A7EB0608101BD64608F2FD385B
:1005C00073EB050002D308F1010801E092185B41CA
:1005D000B8F1000F03DA00200146BDE8F08D0020DD
:1005E0004FF48011064684460EE0171B73EB050797
:1005F00005D3121B63EB050306434CEA010C4908C3
:100600004FEA300092185B4150EA0107EDD152EAFF
:10061000030012D082EA040083EA0501084305D0F2
:10062000101BAB4106D20122002306E000224FF04E
:10063000004302E06FF0010253101AEB06004CEB8E
:10064000085110EB0A0041EB0B01BDE8F04D00F042
:10065000DDB80EB5C10F80EAE0700844CA0700217A
:1006600040F233438DE80E000A460B4600F0DDF8F9
:1006700003B000BD70B5C1F30A5201F0004500247B
:10068000C1F3130140F2FF3341F480119A4201DAC1
:10069000002070BD40F233439A42A2F2334203DCA1
:1006A000524200F05AF800E090402C43F1D0404212
:1006B00070BD00F0004230F000400AD0C10D01F5DD
:1006C0006071C0F3160042EA0151C20840071143AD
:1006D000704700200146704701F0004330B421F01C
:1006E000004150EA010206D00A0DA2F56072C1F382
:1006F0001301002A02DC30BC00207047440F44EA9A
:10070000C104C100E01830BC00EBC25000F047B893
:1007100030B50B46014600202022012409E021FAD1
:1007200002F59D4205D303FA02F5491B04FA02F5CE
:100730002844151EA2F10102F1DC30BD202A04DBA1
:10074000203A00FA02F1002070479140C2F12003E4
:1007500020FA03F3194390407047202A04DB203A23
:1007600021FA02F00021704721FA02F3D040C2F1D1
:1007700020029140084319467047202A06DBCB1718
:10078000203A41FA02F043EAE07306E041FA02F34C
:10079000D040C2F120029140084319467047002919
:1007A000A8BF7047401C490008BF20F001007047F7
:1007B00010B4B0FA80FC00FA0CF050EA010404BF57
:1007C00010BC704749B1CCF1200421FA04F411FAAD
:1007D0000CF118BF012121430843A3EB0C01CB1DF1
:1007E0004FEA00614FEA102042BF002010BC704762
:1007F00000EBC35010440029A4BF10BC7047401C3C
:10080000490008BF20F0010010BC704710B5141E4D
:1008100073F1000408DA401C41F1000192185B41B9
:100820001A4301D120F0010010BD2DE9F04D924690
:100830009B4611B1B1FA81F202E0B0FA80F22032A7
:100840009046FFF77BFF04460F4640EA0A0041EA64
:100850000B0153465A46084313D0114653EA010090
:1008600019D0C8F140025046FFF777FF05460E4603
:10087000504659464246FFF761FF084305D0012024
:1008800004E020463946BDE8F08D0020054346EAE5
:10089000E0762C4337430A986305E40AA0EB08008E
:1008A0000022FD0A44EA47540A3002D500200146DE
:1008B000E9E7010510196941DDE9084500196941B9
:1008C000BDE8F04DA2E7C1F30A52C1F3130140F2B3
:1008D000FF3341F480119A4202DA0020014670474A
:1008E00040F233439A42A2F2334202DC5242FFF713
:1008F00034BFFFF723BF000030B5041E71F10004C0
:1009000004DB4FF00044404264EB0101141E73F11C
:10091000000405DB1C464FF00043524263EB040326
:10092000994208BF904230BD064C074D06E0E06892
:1009300040F0010394E8070098471034AC42F6D326
:10094000FFF726FC5C6300087C6300080EB540F2EC
:10095000334102910021CDE900110A460B46FFF711
:1009600064FF03B000BDFEE7014800F087B8000057
:10097000E8A30020014800F081B8000048A400204E
:10098000014800F07BB8000028A30020014800F0D7
:1009900075B8000088A3002001681823CAB2103A75
:1009A000B2FBF3F2054B6FF30901032A9B5CC365AD
:1009B00000D9091D81650846704700005C61000888
:1009C00010B5014600208B698A6A4FF0C07453B19C
:1009D000B3F5005F15D072B1012A0CD0022A0AD0FB
:1009E000032A09D104E01AB1012A06D0022A03D150
:1009F000C96AC90100D5012010BDC96AA142FAD057
:100A000010BD002AF7D0012AF2D0022AF3D0032A1F
:100A1000F3D010BD30B50468256825F48025256025
:100A2000046863608368402B036803D099600068A2
:100A3000C26030BD9A600068C16030BD704701205F
:100A400000F0A6B9022000F0A3B9042000F0A0B97C
:100A5000082000F09DB990F83510022903D08021BC
:100A6000416501207047052180F835100068016854
:100A700021F0010101600020704700002DE9F843DA
:100A800004464FF00009CDF8009063484FF416512A
:100A9000A56D0068B0FBF1F72E6894F85C10082093
:100AA00000FA01F131420FD021680A6852070BD5D4
:100AB0000A6822F004020A6094F85C108840A8607A
:100AC000606D40F00100606594F85C104FF0010823
:100AD00008FA01F0304208D021684969090604D5B6
:100AE000A860606D40F00200606594F85C1004201E
:100AF0008840304208D021680968890704D5A86079
:100B0000606D40F00400606594F85C10102088402F
:100B1000304218D021680968090714D5A8602068F8
:100B20000168490304D50068000308D5A16C07E0FB
:100B30000168C90503D4016821F008010160216C36
:100B400009B12046884794F85C1020208840304244
:100B500031D021680968C9062DD5A86094F8350000
:100B600005282068016806D0490347D500680003BE
:100B70001DD4616C1CE021F0160101602068416900
:100B800021F080014161206C08B9A06C20B120687F
:100B9000016821F00801016094F85C103F20884052
:100BA000A86084F8349084F83580216D1FE0E16BF3
:100BB00009B120468847606D00282BD0606DC007C2
:100BC00014D0052084F835002068016821F0010167
:100BD00001600098401C0090B84203D8206800686B
:100BE000C007F6D184F8349084F83580E16C002990
:100BF00010D001B02046BDE8F04308470168C905A0
:100C0000D5D4016821F01001016084F8349084F893
:100C10003580CCE7BDE8F883600000202DE9F04185
:100C2000044600F099F906465CB1002584F834507A
:100C3000022084F835002068016821F0010101607C
:100C40000DE00120BDE8F08100F086F9801B052849
:100C500005D920206065032084F83500F2E720687C
:100C60000068C007F0D12268116820480140D4E92B
:100C700001031843D4E90336334318436369184327
:100C8000A3691843E3691843236A18430843616A58
:100C9000042903D1D4E90B131943084310602068D9
:100CA0004069666A20F0070130460E430127042898
:100CB0000CD1A06A0643E06A40B12046FFF780FEEF
:100CC00020B14020606584F83570BAE7206846613D
:100CD0002046FFF761FE94F85C203F21914081603F
:100CE000656584F835700020ACE700003F8010F0A7
:100CF0002DE9F0410446866D90F834000025012866
:100D00000DD0012084F8340094F835700020012FB4
:100D100007D084F8340002252846BDE8F08102207F
:100D2000FBE7022784F8357060652046FFF772FE06
:100D300094F85C103F208840B0602068016841F062
:100D4000160101602068416941F080014161206C19
:100D500020B12068016841F0080101602068016845
:100D600041F001010160D7E707490A68521C0128D8
:100D700008D0022806D005490A68521C042801D070
:100D8000082800D10A6070476C000020680000202D
:100D9000044910B50A68024202D00860FFF7E4FF78
:100DA00010BD0000143C01402DE9F84FDFF87CB184
:100DB00000224FF001084FF0030A4FF00F090BF12A
:100DC000040E00BF0B6808FA02F42340A3426ED160
:100DD0004D68022D01D0122D0ED1D50800EB850CE7
:100DE000DCF820505607F70E09FA07F6B5430E69EE
:100DF000BE402E43CCF82060066855000F790AFAF1
:100E000005FC07F0030726EA0C06AF4037430760EE
:100E10004E68012E05D0022E03D0112E01D0122EC5
:100E20000ED18668CF6826EA0C06AF40374387604C
:100E30004668A6430C79C4F30014944034434460DC
:100E4000C6688C6826EA0C06AC403443C4604C6823
:100E5000E40065D5364C256845F480452560246856
:100E600022F0030504F480440094324C2E19D6F885
:100E7000084895072F0F09FA07F5AC432E4DA842F5
:100E800001D1002524E02D4DA84201D101251FE00C
:100E90002B4DA84201D102251AE02A4DA84201D1CA
:100EA000032515E0284DA84202D1042510E037E0C3
:100EB000264DA84201D105250AE0254DA84201D1C1
:100EC000062505E0234DA84201D1072500E00825AD
:100ED000BD402543C6F80858DBF800405D464E6823
:100EE0009C43F60300D51C432C60DEF80040754699
:100EF0004E689C43B60300D51C432C600B4D08354F
:100F00002C684E689C43F60200D51C432C60074DAC
:100F10000C352C684E689C43B60200D51C432C60EF
:100F2000521C102AFFF44EAFBDE8F88F003C014080
:100F300044380240003001400000024000040240FA
:100F400000080240000C0240001002400014024061
:100F500000180240001C0240014800687047000071
:100F60006400002002480168491C016070470000CD
:100F7000640000200B4810B5016841F40071016065
:100F8000016841F480610160016841F48071016091
:100F9000032000F075F80F2000F006F800F018F8B4
:100FA000002010BD003C024010B5044607484FF435
:100FB0007A710068B0FBF1F000F0E6FA00222146F9
:100FC000501E00F03DF8002010BD00006000002021
:100FD00010B5032000F054F8002211466FF00B000A
:100FE00000F02EF8002211466FF00A0000F028F8F9
:100FF000002211466FF0090000F022F8002211468D
:10100000501F00F01DF800221146101F00F018F8C4
:1010100000220F21901E00F013F800220F21BDE8DE
:101020001040501E00F00CB800F01F02012191404A
:101030004009800000F1E020C0F800117047000076
:10104000F0B40E4B1B680C46C3F30223C3F1070533
:10105000042D00D90425191D072901D2002300E021
:10106000DB1E012606FA05F1491E214099409E40EB
:10107000761E16403143F0BC01F008B90CED00E0DB
:10108000064900F0070208684FF6FF03184040EADF
:101090000220034A10430860704700000CED00E096
:1010A0000000FA052DE9F0470E46050065D0DFF88F
:1010B0001481D8F80000F7B200F00F00B04207D258
:1010C00088F80070D8F8000000F00F00B04254D14A
:1010D00028683D4C810712D5400703D5206840F4AD
:1010E000E05020602878000703D5206840F4604075
:1010F00020602068A96820F0F0000843206028786C
:10110000C0072DD0304968680839012812D002285C
:1011100013D0032811D00968890700292DDA216826
:1011200021F0030101432160FFF716FF814641F2E0
:10113000883A0EE009688903EFE709688901ECE75E
:10114000FFF70AFFA0EB0901514502D90320BDE8D2
:10115000F0872068696800F00C00B0EB810FEFD1D8
:10116000D8F80010404601F00F01B14207D90770CE
:10117000006800F00F00B04201D00120E7E72878B6
:10118000400705D52068E96820F4E0500843206056
:101190002878000706D52068296920F4604040EAD5
:1011A000C100206000F03CF82168084AC1F3031137
:1011B000515CC840064908600F20FFF7F5FE00208B
:1011C000C5E70000003C02400838024044610008C6
:1011D00060000020014800687047000060000020A7
:1011E0000448054900680968044AC1F38221515C3A
:1011F000C840704760000020083802405461000871
:101200000448054900680968044AC1F34231515C49
:10121000C840704760000020083802405461000850
:10122000154810B5006810F00C02144813D0411096
:10123000042A0FD0082A0ED10F4C241F22682368DD
:1012400002F03F025B0207D52068C0F38810A0FBC4
:10125000010106E0084610BD2168C1F38811A1FB19
:1012600000010023FFF70AF82168C1F30141491C7E
:101270004900B0FBF1F010BD083802400024F40032
:101280002DE9F84F050071D0DFF8D0922878A9F148
:10129000040BC007ABF104044AD0D9F8001048464B
:1012A000C1F38101012908D00068C0F38100022840
:1012B0000AD1DBF80000400206D52068800337D54C
:1012C00068680028DFD033E06868B0F5803F10D050
:1012D000B0F5A02F206810D020F480302060206866
:1012E00020F4802020606868A8B1FFF735FE06462C
:1012F0000DE0206840F48030F4E740F48020206066
:10130000F7E700BFFFF728FE801B642873D820682A
:101310008003F7D50CE0FFF71FFE064605E000BF8F
:10132000FFF71AFE801B6428F0D820688003F7D4EA
:1013300028788B4F80074FF0010A4FF000083DD509
:10134000D9F80010484611F00C0F08D00068C0F31F
:10135000810002280BD1DBF80000400207D420688E
:10136000800715D5E868012800D111E0F3E0E868AE
:10137000B0B1C7F800A0FFF7EFFD064605E000BFDB
:10138000FFF7EAFD801B022835D820688007F7D5D3
:101390002068296920F0F80040EAC10020600DE0D3
:1013A000C7F80080FFF7D8FD064604E0FFF7D4FD3C
:1013B000801B02281FD820688007F7D428780007F0
:1013C00024D56848696981B1C0F800A0FFF7C4FD61
:1013D000064604E0FFF7C0FD801B02280BD85F48DB
:1013E0006C3000688007F5D510E0C0F80080FFF78A
:1013F000B3FD064605E074E0FFF7AEFD801B022852
:101400006FD856486C3000688007F5D428784007BC
:1014100053D552483830016841F08051016000686E
:1014200000F0805000905048016841F480710160E4
:10143000FFF792FD064604E0FFF78EFD801B0228B1
:101440004FD849480068C005F6D5444EA8686836AC
:1014500001280FD00528306810D020F0010030603E
:10146000306820F004003060A868B8B1FFF774FD60
:1014700000900FE0306840F00100F4E740F0040015
:101480003060F7E7FFF768FD0099411A41F28830B4
:10149000814258D830688007F4D50EE0FFF75CFD34
:1014A000009007E0FFF758FD0099411A41F288309B
:1014B000814248D830688007F4D4A86990B3D9F83D
:1014C0000010C1F38101022945D00228C7F86080CD
:1014D00003D0FFF741FD054638E0FFF73DFD064626
:1014E00005E030E0FFF738FD801B02282BD820688C
:1014F0008001F7D4D5E907010843A96A1B4A4908C6
:1015000002EB01416A6A41EA8211084395F82C1006
:1015100040EA0161CBF80010C7F860A0FFF71CFD9E
:10152000054606E015E000BFFFF716FD401B022848
:1015300009D820688001F7D50BE000BFFFF70CFD4C
:10154000401B022802D90320BDE8F88F20688001E3
:10155000F4D40020F8E70120F6E700000838024044
:1015600000004742800E4742007000400000FFFF2D
:101570004FF0E0210428086903D020F0040008613E
:10158000704740F00400FAE710B5401EB0F1807FCC
:1015900001D3012010BD4FF0E02460610F216017DE
:1015A00000F074FE0020A06107202061002010BD23
:1015B0007047704730B590F83820012A20D00122BA
:1015C00080F83820022380F8393003685C6824F002
:1015D00070045C6003685C680D682C435C600368A1
:1015E0009C6824F080049C6003689C6849680C43F4
:1015F0009C6080F83920002180F83810084630BD02
:10160000022030BD10B5040003D094F8390010B1A9
:1016100007E0012010BD002084F83800204600F0CB
:101620000DF8022084F83900211D206800F01EFF0B
:10163000012084F83900002010BD000008B5174AC9
:1016400001681748914207D1016841F00201016029
:10165000006800F0020009E0124A914208D10168D6
:1016600041F004010160006800F00400009008BD32
:101670000D4A9142FBD1016841F010010160006800
:10168000002200F01000009005213620FFF7D8FC62
:10169000BDE808403620FFF7C7BC0000000400404A
:1016A0004038024000080040001000400168CA684D
:1016B00042F00102CA600068016841F00101016066
:1016C0000020704770B5044690F83800012817D004
:1016D000012584F83850022084F839002068826897
:1016E00022F0770222F47F4282600868502837D0C7
:1016F0000DDC202859D005DC88B3102841D151E0F9
:10170000022070BD302853D040283AD13FE06028F5
:101710002ED070280BD0B0F5805F03D0B0F5005FFD
:101720002FD110E02068816821F0070115E0CB6817
:10173000D1E90121206800F004FF2168886840F0A9
:10174000770088601DE0CB68D1E90121206800F0B6
:10175000F8FE2068816841F48041816011E01EE05C
:10176000CA684968206800F0B5FF5021206806E08B
:10177000CA684968206800F0BEFF6021206800F058
:10178000EAFE84F83950002084F8380070BDCA6839
:101790004968206800F09EFF40212068EFE70021A3
:1017A0002068ECE710212068E9E720212068E6E7BF
:1017B00030212068E3E7704770B50446006801698E
:1017C0004FF00005C943890715D4C168C94389078B
:1017D00011D4E91E0161012020762068806980070C
:1017E000204602D0FFF7E7FF04E000F0B9F82046FA
:1017F00000F03BF9257620680169C943490717D4F1
:10180000C168C943490713D46FF004010161022084
:1018100020762068806910F4407F204602D0FFF7D0
:10182000CAFF04E000F09CF8204600F01EF925767F
:1018300020680169C943090716D4C168C94309076B
:1018400012D46FF008010161042020762068C0697D
:101850008007204602D0FFF7AEFF04E000F080F8DA
:10186000204600F002F9257620680169C943C906BF
:1018700017D4C168C943C90613D46FF010010161C0
:10188000082020762068C06910F4407F204602D0EE
:10189000FFF791FF04E000F063F8204600F0E5F860
:1018A000257620680169C943C90708D1C168C943C1
:1018B000C90704D1891E0161204600F0F3F82068B1
:1018C0000169C943090609D4C168C943090605D499
:1018D0006FF0800101612046FFF76AFE2068016910
:1018E000C943490609D4C168C943490605D46FF004
:1018F00040010161204600F0EBF820680169C9430E
:1019000089060BD4C168C943890607D46FF020014A
:1019100001612046BDE87040FFF74BBE70BD00007E
:1019200010B50C4C0368002102220B4886B0A3427C
:1019300001D1302304E0094CA34209D14FF4407394
:101940000093CDE90121CDE903126946FFF72CFA96
:1019500006B010BD00040040000402400008004032
:10196000704770B5044690F838000D4601280DD038
:10197000012684F83860022084F8390042B1042A34
:1019800018D0082A2AD00C2A4DD139E0022070BD87
:10199000206800F0E9FD2068816941F0080181615B
:1019A0002068816921F004018161206881692A69C8
:1019B000114311E0206800F003FE2068816941F4C2
:1019C000006181612068816921F480618161206802
:1019D00081692A6941EA0221816124E0206800F0DE
:1019E00021FE2068C16941F00801C1612068C16918
:1019F00021F00401C1612068C1692A69114311E025
:101A0000206800F03FFE2068C16941F40061C161B7
:101A10002068C16921F48061C1612068C1692A69B7
:101A200041EA0221C16184F83960002084F838005D
:101A300070BD10B5040003D094F8390010B107E070
:101A4000012010BD002084F83800204600F00CF87A
:101A5000022084F83900211D206800F007FD0120D4
:101A600084F83900002010BD7047704710B5044657
:101A70000068012200F05AFD08492068884202D01F
:101A80000749884203D1416C41F400414164206818
:101A9000016841F001010160002010BD000001401B
:101AA00000040140074988420BD107490868401CDF
:101AB0000860052805D3002008600448006802F08B
:101AC000A5BF70476CA20020B00000207C00002061
:101AD0007047704770B5026804461068D168536952
:101AE00010F00F0F50D003F0010501F4907635434C
:101AF0005DD0C20705D0CA0503D5E26B42F00102F2
:101B0000E263420705D5DA0703D0E26B42F0020236
:101B1000E263820705D5DA0703D0E26B42F00402E4
:101B2000E263020705D5DA0703D0E26B42F0080250
:101B3000E263E26B002A33D0800604D5880602D522
:101B4000204600F06DFE20684069E16BC0F3801014
:101B5000090700D428B3204600F04BFE20684169F5
:101B600049061AD5416921F040014161606BA0B17D
:101B70001B490165606BFEF76EFF002810D0606B9B
:101B8000016DBDE870400847830610D58B060ED561
:101B90002046BDE8704000F043BE2046FFF799FFA5
:101BA00070BD2046FFF795FF0020E06370BD03067F
:101BB00006D50B0604D52046BDE8704000F0CCBF2A
:101BC0004006F3D54806F1D5D168204621F0400102
:101BD000D160202184F8391000F026FA70BD000091
:101BE0001B27000870B5040004D094F839000025C4
:101BF00010B106E0012070BD84F83850204600F096
:101C000023F8242084F839002068C16821F40051A9
:101C1000C160204600F04AFE2068016921F490412D
:101C200001612068416921F02A0141612068C16891
:101C300041F40051C160E563202084F8390084F844
:101C40003A00002070BD00002DE9F04F0446066800
:101C5000DFF860C102200121032207230025870647
:101C600087B04FF4807A4FF0400B4FF4806966459F
:101C70004AD1514ED6F800C04CF0100CC6F800C046
:101C800036680DF1040806F010060596C026009689
:101C900088E80F0069464948FFF786F8494E4848EA
:101CA000C8463060C6E90175C6E903597561C6E9E1
:101CB000065A356230467562FEF7B0FF20B140F239
:101CC000091141A000F0B9FF6663B463454E3C487A
:101CD000C6E903587561B561F561356278307562A2
:101CE00086E881083046FEF799FF20B140F21B11CB
:101CF00035A000F0A2FF2663002205212520B46351
:101D0000FFF79EF925204FE0DFF8DCC066454DD196
:101D1000294E361FD6F800C04CF4003CC6F800C06F
:101D200036680DF1040806F4003605966026009624
:101D300088E80F0069462D48FFF736F82D4E2C48ED
:101D4000B8463060C6E90175C6E903597561C6E950
:101D5000065A35624F4630467562FEF75FFF20B186
:101D60004FF4A47118A000F068FF6663B463224EBC
:101D70001F48C6E903577561B561F56135621830D2
:101D8000756286E801093046FEF748FF20B14FF43E
:101D9000AD710DA000F051FF266300220521262021
:101DA000B463FFF74DF92620FFF73EF907B0BDE811
:101DB000F08F00000010014044380240000402404F
:101DC0004064024028A300202E2E2F5372632F73ED
:101DD000746D3332663478785F68616C5F6D7370F0
:101DE0002E63000088A3002000440040000C024045
:101DF00088600240E8A3002048A40020F8B504460B
:101E000090F83A0020283CD1C1B3BAB394F8380016
:101E1000012836D0012084F83800A162A28500256F
:101E2000E563222084F83A00636B1748D863636B3C
:101E300016481864636B1648D864606B13460565D2
:101E40000846666B216802463046091DFEF750FFC2
:101E5000206801684168009184F83850C16841F4F5
:101E60008071C1602068416941F0010141612068D1
:101E7000416941F0400141610020F8BDFFE70120C8
:101E8000FBE70220F9E7000075270008B1270008EA
:101E90002B2700080649884201D1064803E006497D
:101EA000884203D10548006802F0B0BD70470000C9
:101EB000A8A2002084000020E8A200208C000020BE
:101EC0000649884201D1064803E00649884203D109
:101ED0000548006802F09ABD70470000A8A20020E3
:101EE00084000020E8A200208C0000202DE9F843A7
:101EF000044690F839001F4616460D46202850D15A
:101F0000A5B19EB194F8380001284AD0012084F888
:101F100038004FF00008C4F83C80212084F83900D4
:101F2000FFF71AF8A6848146E68426E00120BDE882
:101F3000F883E08C401EE084A0684B46B0F5805FDB
:101F40004FF000024FF080012046009703D000F0D0
:101F500034FEE8B90DE000F030FEC8B928882168E9
:101F6000C0F308004860206908B16D1C05E0AD1C95
:101F700003E0216815F8010B4860E08C0028D8D1F7
:101F80004B46002240212046009700F016FE08B183
:101F90000320CCE7202084F8390084F83880002022
:101FA000C5E70220C3E7000070B5044690F8390089
:101FB000202830D169B362B394F8380001282AD0C0
:101FC000012084F838002162A284E2840025E563C0
:101FD000212084F83900236B1048D863236B104804
:101FE0001864236B0F48D864206B13460565266878
:101FF000206B321DFEF77CFE21686FF04000086008
:1020000084F838502068416941F080014161002026
:1020100070BD012070BD022070BD0000BB2700080C
:10202000E92700082B2700080649884201D1064805
:1020300003E00649884203D10548006802F0E6BC87
:1020400070470000A8A2002080000020E8A2002025
:10205000880000207047FEE7194808B5016841F480
:1020600080010160016801F480010091016841F480
:10207000001101600068002200F4001000900521AA
:102080001020FEF7DDFF1020FEF7CEFF0022052115
:102090001120FEF7D5FF1120FEF7C6FF0022052113
:1020A0003A20FEF7CDFF3A20FEF7BEFF00220521C1
:1020B0004620FEF7C5FFBDE808404620FEF7B4BF46
:1020C000303802402B4800B5026887B0002142F04A
:1020D00010020260026802F010020592026842F0EB
:1020E00080020260026802F080020592026842F0FB
:1020F00001020260026802F001020592026842F0E9
:1021000008020260026802F008020592026842F0CA
:1021100002020260006800F0020005900F200090AB
:102120001548CDE9010169461448FEF73DFE00223D
:1021300005210620FEF784FF0620FEF775FF00222A
:1021400005210720FEF77CFF0720FEF76DFF002228
:1021500005210820FEF774FF0820FEF765FF002226
:1021600005210920FEF76CFF0920FEF75DFF07B08F
:1021700000BD000030380240000031100010024065
:1021800010B51F488EB01D490024C0E9001442F26A
:10219000CF01C0E902410461FFF734FA00B1FEE764
:1021A0004FF48050079007A91548FFF78BFA00B14C
:1021B000FEE71348FFF73DFC00B1FEE70B940BA9C7
:1021C0000F480C94FFF7F6F900B1FEE76020CDE967
:1021D000000402940022694609480494FFF7C1FBF9
:1021E00000B1FEE7042269460548FFF7BAFB00B1DB
:1021F000FEE70348FFF794FB0EB010BD000400405B
:10220000F4A1002010B51F488EB01D490024C0E97C
:10221000001442F2CF01C0E902410461FFF7F2F974
:1022200000B1FEE74FF48050079007A91548FFF76B
:1022300049FA00B1FEE71348FFF7FBFB00B1FEE7E8
:102240000B940BA90F480C94FFF7B4F900B1FEE70B
:102250006020CDE9000402940822694609480494EC
:10226000FFF77FFB00B1FEE70C2269460548FFF748
:1022700078FB00B1FEE70348FFF752FB0EB010BD3C
:102280000008004030A20020FEE770470907090E51
:10229000002806DA00F00F0000F1E02080F8141D9D
:1022A000704700F1E02080F800147047D0ED080A74
:1022B000264A30EEC00A80ED030AD0ED000A20EE77
:1022C000801AD0ED060AF8EEE00A70EE800AFDEE04
:1022D000E00AC0ED060AC169914205DC1C4A914240
:1022E00002D8D0ED011A03E0DFED1A1AC0ED011A91
:1022F000F8EEE00A90ED022A174961EEA01AD0ED3F
:10230000040A80ED040A70EE600A31EE210A60EEE4
:10231000820A30EE200A80ED070AD1ED000AB4EE01
:10232000E00AF1EE10FA02DCF0EE400A01E0C0ED46
:10233000070A91ED010AF4EEC00AF1EE10FA02D399
:10234000B0EE600A704780ED070A70470000A040B9
:102350000000A0C000000000A800002010B5FEF79B
:1023600001FEBDE8104002F0ADBB000030B52548CD
:1023700093B00025016841F080510160006800F0D1
:10238000805011902048016841F48041016000684C
:10239000022400F48040119001200090000401907C
:1023A0008001CDE90640082008904FF4A870CDE9DF
:1023B000090404200B906846FEF762FF00B1FEE7B7
:1023C0000CA90F2081E831004FF4A0500F904FF47A
:1023D0008050109005210CA8FEF764FE00B1FEE7C6
:1023E000FEF7F8FE4FF47A71B0FBF1F0FFF7CCF88E
:1023F0000420FFF7BDF800220F21501EFEF720FE3B
:1024000013B030BD403802400070004010480168F1
:1024100041F4700101600F48016841F00101016061
:102420000C4A00210832116002680B4B1A4002600E
:10243000031D0A4A1A60026822F4802202600548DD
:102440000C3001600249580680390860704700006E
:1024500088ED00E000380240FFFFF6FE1030002457
:102460000148FFF7A9B900006CA20020F0B502688E
:10247000234B244D244E254F254C4FF0804C984241
:1024800009D0604507D0A84205D0B04203D0B84279
:1024900001D0A04204D122F0700E4A6842EA0E0236
:1024A00098421BD0604519D0A84217D0B04215D031
:1024B000B84213D0A04211D0164DA8420ED0164DEE
:1024C000A8420BD0154DA84208D0154DA84205D002
:1024D000144DA84202D0144DA84203D122F44075F5
:1024E000CA682A4302608A68C2620A6882629842A5
:1024F00001D0A04201D10969016301214161F0BD10
:10250000000001400004004000080040000C0040B2
:1025100000040140004001400044014000480140E7
:1025200000180040001C00400020004010B50123AE
:10253000046A8B409C430462036A8A40134303622B
:1025400010BD10B5846842EA032224F47F440A4394
:102550002243826010BD826822F070020A4342F07A
:10256000070181607047000030B5026A22F0010265
:102570000262026A436884690D6824F0730425438B
:1025800022F002048A6822430B4CA04202D00B4C7A
:10259000A0420BD122F00804CA6823F440732243FE
:1025A0004C6922F004021C438B692343436085611C
:1025B00049684163026230BD0000014000040140EF
:1025C00030B5026A22F010020262026A436884692E
:1025D0000D6824F4E64444EA05248D6822F02002C4
:1025E00042EA05120D4DA84202D00D4DA8420ED16F
:1025F000CD6822F0800242EA05124D6923F440635F
:1026000043EA85038D6922F0400243EA8503436073
:10261000846149688163026230BD000000000140AE
:102620000004014030B5026A22F480720262036A3B
:102630004268C46923F4007324F073050C682C43CA
:102640008D6843EA05230D4DA84202D00C4DA842E7
:102650000ED1CD6823F4006343EA05234D6922F4CB
:10266000405242EA05128D6923F4806342EA051262
:102670004260C4614968C163036230BD000001402B
:102680000004014030B5026A22F480520262046AFA
:102690004268C3690D6823F4E64343EA05238D6865
:1026A00024F4005444EA0534084DA84202D0084DF1
:1026B000A84204D14D6922F4804242EA8512426068
:1026C000C36149680164046230BD0000000001403C
:1026D0000004014010B5036A046A24F00104046296
:1026E000846924F0F00444EA021423F00A020A4345
:1026F0008461026210BD10B5036A23F01003036207
:102700008369046A23F4704343EA023224F0A0038D
:1027100043EA01118261016210BD10B5806B002196
:10272000C185C184FFF7D5F910BD70B5846B2068F1
:10273000406994F83910C0F3C0100025212904D154
:1027400018B1E584204600F062F82068406994F8EA
:102750003A10C0F38010222904D118B1E585204633
:1027600000F047F8E06B40F01000E0632046FFF710
:10277000B0F970BD10B50146806B09680968C905DC
:1027800013D40021C1850168CA6822F48072CA602E
:1027900001684A6922F001024A6101684A6922F02F
:1027A00040024A61202180F83A10FFF773FB10BD08
:1027B00010B5806BFFF784FB10BD10B50146806B30
:1027C00009680968C9050CD40021C18401684A69F7
:1027D00022F080024A610068C16841F04001C16096
:1027E00010BDFFF721FC10BD10B5806BFFF732FC68
:1027F00010BD0168CA6822F49072CA6001684A6913
:1028000022F001024A61202180F83A1070470168E5
:10281000CA6822F0C002CA60202180F839107047CF
:1028200010B590F83A10222901D0022010BD81681D
:10283000B1F5805F11D00169002901681FD0496896
:1028400001F07F03816A4A1C82620B70C18D491EB0
:102850000904090CC18518D026E00269816A002AA2
:102860000268526805D0D2B20A80816A491C81622E
:10287000ECE7C2F308020A80816A891CF7E74A681C
:10288000816A4B1C83620A70E0E70168CA6822F41F
:102890009072CA6001684A6922F001024A612021EF
:1028A00080F83A10FFF7F6FA002010BD2DE9F0414C
:1028B00004460068016921F44052E1681143016156
:1028C0002168C86849F20C6290432369A268E569EF
:1028D0001A4363692B431A430243CA60216848695B
:1028E00020F44072A06910434861E1696425B1F5A4
:1028F000004F9748974A21684FF032083FD09142E5
:1029000001D081427CD1FEF77BFC00EBC00101EBE2
:10291000001061688900B0FBF1F6FEF771FC00EB76
:10292000C00101EB001061688900B0FBF1F0B0FB61
:10293000F5F06FF01801484306EB800108EB011039
:10294000B0FBF5F000F0F006FEF75AFC00EBC0011A
:1029500001EB001061688900B0FBF1F0B0FBF5F00D
:1029600006EB0016FEF74CFC00EBC00101EB00107B
:1029700061688900B0FBF1F7FEF742FCD2E09142BA
:1029800001D081423DD1FEF73BFC00EBC00101EBE1
:10299000001061684900B0FBF1F0B0FBF5F00601F2
:1029A000FEF72EFC00EBC00101EB0010616849004E
:1029B000B0FBF1F7FEF724FC00EBC00101EB0010C7
:1029C00061684900B0FBF1F0B0FBF5F06FF0180161
:1029D000484307EB800108EBC100B0FBF5F000F0C5
:1029E000F80006EB4006FEF70BFC00EBC00101EB24
:1029F000001061684900B0FBF1F7FEF701FC3CE014
:102A000055E0FEF7EDFB00EBC00101EB0010616843
:102A10004900B0FBF1F0B0FBF5F00601FEF7E0FB7A
:102A200000EBC00101EB001061684900B0FBF1F759
:102A3000FEF7D6FB00EBC00101EB00106168490016
:102A4000B0FBF1F0B0FBF5F06FF01801484307EB75
:102A5000800108EBC100B0FBF5F000F0F80006EBD8
:102A60004006FEF7BDFB00EBC00101EB0010616802
:102A70004900B0FBF1F7FEF7B3FB00EBC00101EB3F
:102A8000001061684900B0FBF1F0B0FBF5F06FF0A9
:102A90001801484307EB800108EBC100B0FBF5F0DB
:102AA00000F00700216830448860BDE8F081FEF73F
:102AB00097FB00EBC00101EB001061688900B0FBDF
:102AC000F1F6FEF78DFB00EBC00101EB0010616831
:102AD0008900B0FBF1F0B0FBF5F06FF0180148434E
:102AE00006EB800108EB0110B0FBF5F000F0F006FA
:102AF000FEF776FB00EBC00101EB00106168890076
:102B0000B0FBF1F0B0FBF5F006EB0016FEF768FB4A
:102B100000EBC00101EB001061688900B0FBF1F728
:102B2000FEF75EFB00EBC00101EB0010616889005D
:102B3000B0FBF1F0B0FBF5F06FF01801484307EB84
:102B4000800108EB0110B0FBF5F000F00F00A9E7E1
:102B5000001401400010014090F83910212901D0E3
:102B6000022070478168B1F5805F016A0BD04A1C72
:102B70000262026809785160C18C491E0904090C7F
:102B8000C1840ED017E009880268C1F308015160C2
:102B900001690029016A02D0491C0162ECE7891C25
:102BA000FBE70168CA6822F08002CA600068C16859
:102BB00041F04001C160002070472DE9F041984686
:102BC00017460E460446069D1DE0681C1BD02DB11D
:102BD000FEF7C2F9A0EB0800A84214D92068C1682A
:102BE00021F4D071C1602068416921F00101416187
:102BF000202084F8390084F83A00002084F8380056
:102C00000320BDE8F0812068006836EA000004D0A7
:102C10000020B842D9D00020F3E70120F9E70000F6
:102C20000148FEF757BF0000A8A200200148FEF7A8
:102C300051BF0000E8A20020FEE7FEE70FB4084BFA
:102C400010B504A902AA039800F0F6FD044602A9F3
:102C5000002001F088F9204610BC5DF814FB00004C
:102C6000673F000837B514460846064B6A462146BA
:102C700000F0E2FD04466946002001F074F92046A8
:102C80003EBD0000673F000803B401984100009872
:102C900050EAC12018BF04204A0D18BF40F00100BF
:102CA00040F2FF72B2EB515F08BF40F00200012812
:102CB00008BF052002B0704710B52F499FED2C1BAF
:102CC0002DED020B84B0059820F000408842D8BF5B
:102CD0009DED040B2DDD2949884209D1049840B9A6
:102CE0004FF0010000F0E0FC00F0AEFC06B010BDBB
:102CF00005DB9DED040B00F09BFC06B010BD6846A3
:102D00009DED040B00F0ACF810F0030004BF9DED46
:102D1000021B9DED000B0CD001280ED09DED021B77
:102D20009DED000B022817D0012000F0E9FB06B052
:102D300010BD00F0B1FA06B010BD9DED021B9DED77
:102D4000000B012000F0DCFB51EC100B81F0004186
:102D500006B041EC100B10BD00F09EFA51EC100BC8
:102D600081F0004106B041EC100B10BD00000000E6
:102D70000000000000000000FB21E93F0000F07FA0
:102D80002DED020B019820F0004001909DED000B0D
:102D900002B070470000000010B52F499FED2C1BBA
:102DA0002DED020B84B0059820F000408842DCBF76
:102DB00000209DED040B32DD2849884209D104989A
:102DC00040B94FF0010000F06FFC00F03DFC06B090
:102DD00010BD05DB9DED040B00F02AFC06B010BD14
:102DE00068469DED040B00F03BF810F0030011D095
:102DF000012818D09DED021B9DED000B02281AD072
:102E000000F04AFA51EC100B81F0004106B041ECA1
:102E1000100B10BD9DED021B9DED000B012000F07D
:102E20006FFB06B010BD9DED021B9DED000B00F089
:102E300033FA06B010BD012000F062FB51EC100B1C
:102E400081F0004106B041EC100B10BD0000000005
:102E50000000000000000000FB21E93F0000F07FBF
:102E60002DE9F14F04462DED020B2DED088B8AB0B4
:102E70009FEDE70B80ED020B139EE74826F000451F
:102E800085420ADC9DED120B002084ED000B0AB098
:102E9000BDEC088B03B0BDE8F08FE0489FEDE0ABE0
:102EA0009FEDE1BBA84247DDE14F9FEDE39B9FED26
:102EB000E48B9DED120B53EC1A2B51EC100B002EF2
:102EC0001CDDFDF7DFFA41EC100BBD4208D053ECDE
:102ED0001B2B51EC100BFDF7D5FAC4E900010BE0F8
:102EE00053EC192B51EC100BFDF7CCFA53EC182BCB
:102EF000FDF7C8FAC4E900010120C8E7FDF721FA8F
:102F000041EC100BBD4208D053EC1B2B51EC100BC5
:102F1000FDF717FAC4E900010BE053EC192B51EC53
:102F2000100BFDF70EFA53EC182BFDF70AFAC4E963
:102F300000014FF0FF30AAE7C348A84279DB9DEDBE
:102F4000120B51EC100B01F013F841EC180B9FED34
:102F5000C00B53EC102BFDF79BFA9FEDBF1B53ECFE
:102F6000112BFDF7EEF9FDF785FB0746FDF771FB29
:102F700041EC190B53EC1A2BFDF78AFA53EC182B82
:102F8000FDF783FA41EC180B53EC1B2B51EC190B9A
:102F9000FDF77EFADFF8C8A241EC100B4FEA155896
:102FA0000125FA4453EC102B51EC180BFDF76AFA8B
:102FB000032DC4E900013DD0C1F30A5005EB4511D2
:102FC000A8EB00001139814234DA0AEB051BB0EEA0
:102FD00048AA9BED000BF0EE68AA53EC102B51ECC5
:102FE000190BFDF755FA41EC1B0B51EC1A0B53EC86
:102FF0001B2BFDF747FA41EC180B51EC1A0B53EC65
:10300000182BFDF73FFA53EC1B2BFDF73BFA9BED1A
:10301000020B41EC1A0B53EC102B51EC190BFDF782
:1030200037FA53EC1A2BFDF72DFA41EC100B6D1CFF
:10303000B8E70EE0002EA8BF3846BFF628AF94EDE3
:10304000000B51EC100B81F00041C4E90001784203
:103050001DE7C6F3130040F4801EC6F30A50A0F229
:10306000F530471100F01F05C5F12000DDF848B02C
:1030700008900020069007900520EC467949002D25
:1030800007EB0002794408BF51F8221009D051F82B
:10309000223001EB8201AB404A68089922FA01F123
:1030A0001943A1FB0E26A1FB0B131A449A4234BF0D
:1030B0000123002303EB06080CEB8003D3E901A6F0
:1030C0000E448E4234BF0121002192448A4411B142
:1030D000924502D903E0924501D2012100E000218E
:1030E000C3E901A641444CF82010011EA0F10100E3
:1030F000C4DC029800F10050850F0298DDE90367F7
:103100008000DDF81480FDF7A4FA41EC1A0B30467C
:10311000FDF71CFC9FED541B53EC112BFDF7B8F988
:1031200041EC1B0B3846FDF711FC9FED511B53EC96
:10313000112BFDF7ADF941EC180B4046FDF706FCED
:103140009FED4D1B53EC112BFDF7A2F941EC190B30
:1031500051EC180B53EC192BFDF7F3F853EC1B2B28
:10316000FDF7EFF853EC1A2BFDF7EBF8CDE908016A
:10317000002008909DED080B53EC1A2B51EC100B1E
:10318000FDF780F953EC1B2BFDF77CF953EC182B62
:10319000FDF778F953EC192BFDF777F99FED381B04
:1031A00053EC112BFDF774F99FED370B41EC180B25
:1031B00053EC102B9DED080B51EC100BFDF768F94B
:1031C00053EC182BFDF7BDF89FED310B41EC180BBC
:1031D00053EC102B9DED080B51EC100BFDF758F93B
:1031E00053EC182BFDF7ADF841EC100B139810F0D1
:1031F000004F06D06D4251EC100B81F0004141ECC4
:10320000100B284684ED000B41E600000000000092
:103210000000000000000000FB21E93F7CD90240D3
:1032200000004054FB21F93F3163621A61B4D03D84
:10323000FB21F93F000000000000601A61B4D03D9E
:103240007370032E8A19A33BFB2139410000000053
:1032500083C8C96D305FE43F000000000000E03F1C
:10326000A2320000F0310000000000000000103E1B
:10327000000000000000103C000000000000103AB8
:10328000182D4454FB21F93D3326A611460B113C61
:1032900000000054FB21F93D10B52DED040B2DED80
:1032A000088B82B0B0EE419AF0EE619A0B9820F054
:1032B00000449FED4BABB4F1795F11DA9DED0A0B41
:1032C00051EC100BFDF7D6F9002801BFB0EE4A0A09
:1032D000F0EE6A0A02B0BDEC088B04BF04B010BD6A
:1032E0009DED0A0B53EC102B51EC100BFDF7D0F8B1
:1032F00041EC180B3C480621B0EE480AF0EE680A93
:10330000784400F081F853EC182B51EC100BFDF7CA
:10331000BFF89DED0A0B41EC1B0B53EC192B51EC44
:10332000100BFDF7B5F841EC190B53EC1B2B51ECCE
:10333000180BFDF7ADF853EC192BFDF7A3F89FED33
:103340002C0B41EC190B53EC102B51EC180BFDF727
:103350009FF841EC100B2848844210DA53EC192BEB
:1033600051EC100BFDF78EF853EC1A2BFDF78DF88E
:1033700041EC100B02B0BDEC088B04B010BD1F482F
:10338000A042BCBF9FED1E1B8DED001B06DBA4F50C
:1033900000100190002000909DED001B51EC100BDF
:1033A00053EC112BFDF76EF89DED000B41EC180B63
:1033B00053EC102B51EC1A0BFDF764F841EC1A0B8F
:1033C00053EC192B51EC180BFDF75CF853EC1A2B4E
:1033D000FDF75BF841EC100BCCE7000000000000AB
:1033E000000000000000F03F142F0000000000006B
:1033F000000000000000E03F3333D33F0000E93F0E
:10340000000000000000D23F70B504462DED028B95
:103410004D1E00EBC500B0EE408AF0EE608A90EDE4
:10342000000B35F0060017D053EC182B51EC100BA5
:10343000FDF72EF841EC100B6D1E04EBC50090ED6E
:10344000001B51EC100B53EC112BFCF77AFF41ECF5
:10345000100B35F00600E7D1022D36D0042D1CD01C
:10346000062D1CBFBDEC028B70BD53EC182B51EC2C
:10347000100BFDF70DF894ED0A1B53EC112BFCF724
:1034800060FF53EC182BFDF703F894ED081B53EC89
:10349000112BFCF756FF41EC100B53EC182B51ECA1
:1034A000100BFCF7F5FF94ED061B53EC112BFCF70A
:1034B00048FF53EC182BFCF7EBFF94ED040B53EC97
:1034C000102BFCF73EFF41EC100B53EC182B51EC8A
:1034D000100BFCF7DDFF94ED021B53EC112BFCF7F6
:1034E00030FF53EC182BFCF7D3FF94ED001B53EC8B
:1034F000112BFCF726FFBDEC028B41EC100B70BDCD
:1035000031B504462DED040B2DED0A8BB0EE41BA1A
:10351000F0EE61BA0B989DED0A0B20F00040B0F17F
:10352000795F0DDA51EC100BFFF7AEFB042808BFF2
:1035300000F09AF89DED0A0BBDEC0A8B05B030BD8A
:1035400053EC102B51EC100BFCF7A2FF41EC180BC5
:103550009DED0A0B53EC182B51EC100BFCF798FF68
:1035600041EC190B2C48B0EE480AF0EE680A052130
:103570007844FFF749FF9FED2ACBB0EE40AAF0EE6A
:1035800060AA9CB353EC1C2B51EC190BFCF780FF89
:1035900041EC1C0B53EC1A2B51EC190BFCF778FF88
:1035A0009FED210B41EC190B53EC102B51EC1B0B35
:1035B000FCF76EFF53EC192BFCF764FF53EC182B50
:1035C000FCF766FF53EC1B2BFCF75CFF53EC1C2B4A
:1035D000FCF758FF9DED0A1B53EC112BFCF755FF30
:1035E000BDEC0A8B05B041EC100B30BDFFE753EC8E
:1035F0001A2B51EC180BFCF74BFF53EC1C2BFCF770
:10360000A0FE53EC192BFCF743FF9DED0A1B53EC76
:10361000112BFCF796FEE3E79C2D00000000000054
:10362000495555555555C5BF000000000000E03F05
:1036300010B553EC102B51EC100BFCF782FE41EC53
:10364000100B10BD000000009FED050B10B553ECF2
:10365000102B51EC100BFCF78DFF41EC100B10BD43
:1036600000000000000000009FED050B10B553ECBA
:10367000102B51EC100BFCF70BFF41EC100B10BDA5
:10368000000000000000001002E008C8121F08C17E
:10369000002AFAD170477047002001E001C1121FD3
:1036A000002AFBD170470000014908607047000004
:1036B000000100202DE9FF5F82B00021DDE9043028
:1036C000020DDDF840B0034318D044F61050A2F2CA
:1036D000FF3242431514119801281FD0A5EB0B00AF
:1036E000401C5FEA000A4FF000064E4FDFF83891A9
:1036F000B046504615D5CAF1000413E011980124D4
:103700004AA3012801D16FEA0B010298119AC0E97E
:103710000031C0E9024206B0BDE8F09FCBF10000E5
:10372000DFE704460021404A491842EB0450CDE946
:10373000001012E0E00707D032463B4640464946BB
:10374000FCF7A6FE8046894632463B46104619469F
:10375000FCF79EFE06460F466410002CEAD1DDE918
:103760000401DDE90023BAF1000F06DAFCF790FE50
:1037700042464B46FCF78CFE05E0FCF7FBFE42465A
:103780004B46FCF7F7FE04460E460022284BFDF799
:10379000B3F803D84FF0FF30014607E00022254B75
:1037A00020463146FCF7CDFDFDF78DF8102409E0E9
:1037B000002C0ADB0A220023FCF760FD039B303259
:1037C0001A55641E50EA0102F2D1641C039AC4F136
:1037D00011031444119A012A03D0012208430DD188
:1037E0000AE0084304D000204FF0110B119072E75B
:1037F000A3EB0B056D1E0DE05B4504DD4FF00002F1
:1038000005F1010504E003DA4FF00002A5F101051E
:10381000002AECD002981199C0E90231C0E90045B4
:1038200079E70000000014400000F03F3000000085
:103830000000F0430000E03F2DE9FF4F95B09B46AC
:103840008946064600250FE2252877D10024274621
:10385000F84A0121059400E0044316F8013F203B9B
:1038600001FA03F01042F7D130782A2811D06FF016
:103870002F033078A0F13002092A16D8059A44F0B7
:10388000020402EB820203EB42021044761C059014
:10389000EFE759F8042B0592002A03DA504244F46A
:1038A0000054059044F00204761C30782E2816D17E
:1038B00016F8010F44F004042A280DD06FF02F02EF
:1038C0003078A0F13003092B09D807EB870302EB0E
:1038D0004303C718761CF3E759F8047B761C30784D
:1038E0006C280FD006DC4C2817D068280DD06A2829
:1038F00014D104E0742810D07A280FD10DE044F4DC
:1039000000140AE044F4801401E044F44014727896
:10391000824202D104F58014761C761C3078662829
:103920000BD013DC582877D009DC002875D0452847
:10393000F6D04628F4D047281AD19DE118E0632834
:1039400035D0642879D0652812D195E1702873D0DC
:1039500008DC6728F1D069286FD06E280DD06F2859
:1039600006D1B5E073282CD0752875D0782874D08E
:103970005A46179990476D1C75E1C4F3025002280E
:1039800009D003280DD0D9F8001004280DD00D60FF
:1039900009F1040967E1D9F80010EA17C1E90052FA
:1039A000F6E7D9F800100D80F2E70D70F0E719F88E
:1039B000041B8DF8001000208DF80100EA4601205C
:1039C00003E059F804AB4FF0FF3061074FF00001FE
:1039D00002D40DE008F101018846B9420FDA8045B2
:1039E000F8DB1AF808100029F4D108E008F1010109
:1039F00088468142FADB1AF808100029F6D10598AA
:103A00005B46A0EB080721463846179A00F094FA67
:103A1000284400EB080507E04DE029E10DE01AF825
:103A2000010B5A4617999047B8F10108F7D25B4647
:103A300021463846179A13E142E00A220092C4F365
:103A400002524FF0000A022A08D059F804CB032A88
:103A50004FEAEC710AD00DE029E02AE009F10701F4
:103A600021F00702F2E802C1914609E00FFA8CFC4E
:103A70004FEAEC71042A03D14FFA8CFC4FEAEC7147
:103A8000002907DA0A460021DCF1000C61EB020193
:103A90002D2202E0220504D52B228DF804200122DC
:103AA00003E0E20701D02022F7E7904659E00A211F
:103AB00002E010220DE010214FF0000A00910BE00F
:103AC00010224FF0000A44F004040827009203E09B
:103AD00008224FF0000A0092C4F30252022A05D0D5
:103AE00059F804CB0021032A08D009E009F10701A5
:103AF00021F00702F2E802C1914605E01FFA8CFCB2
:103B0000042A01D10CF0FF0C4FF00008220728D541
:103B1000702806D0009B83F0100353EA0A0305D0F7
:103B20000EE040228DF80420012208E05CEA010248
:103B300006D030228DF804208DF805000222904630
:103B4000009B83F0080353EA0A030AD15CEA0102EE
:103B500001D1620705D530228DF804204FF001080D
:103B60007F1E582804D034A003900EA802900DE0C8
:103B700036A0F9E753466046009AFCF77FFB84467F
:103B80000398825C0298401E029002705CEA010079
:103B9000F0D1029806A9081A00F1200A600702D5A0
:103BA00024F4803400E00127574502DDA7EB0A002A
:103BB00000E0002000EB0A01009005984144401A03
:103BC0000590E00306D45B462146179A059800F05D
:103BD000B3F90544002706E001A85A46C05D1799CD
:103BE00090476D1C7F1C4745F6DBE0030CD55B4618
:103BF0002146179A059800F09FF9054404E030200B
:103C00005A46179990476D1C0099481E009000294C
:103C1000F5DC08E0029802995A460078491C0291A6
:103C2000179990476D1CBAF10001AAF1010AF1DC65
:103C300065E1000009280100303132333435363770
:103C400038396162636465660000000030313233E8
:103C50003435363738394142434445460000000088
:103C600000F058F90544761C307800287FF4ECAD5C
:103C700019B02846BDE8F08F620700D4062709F185
:103C8000070222F0070CFCE80223E14603F000489B
:103C90005FEA080C02D00FF2702C0DE05FEA045CC2
:103CA00002D50FF2682C07E05FEAC47C02D00FF265
:103CB000602C01E0AFF2700C4FF0FF3823F00043AE
:103CC000CDF850C065280CD006DC452809D0462820
:103CD0001DD047283DD13DE0662818D067287ED109
:103CE00038E00021112F01DB112000E0781CCDE924
:103CF000000106A90EA8FFF7DDFCDDE90F010E9A11
:103D000003910021009207F1010A04914DE04FF068
:103D100000400097CDE9011006A90EA8FFF7CAFCE4
:103D2000DDE90F0203920E9B11990022DDF80CA031
:103D30000093049211B9791C00EB010AB7EB0A0059
:103D400004D4C0F1FF3007F1010A0490AAEB070088
:103D5000019044E0012F00DA01270021112F01DD3D
:103D6000112000E03846CDE9000106A90EA8FFF7B2
:103D7000A1FCDDE90F010E9A03910021049100924C
:103D8000BA4621070CD40399514500DA8A46BAF1A4
:103D9000010F05DD009AAAF10101515C302908D01C
:103DA000B84202DA10F1040F06DA0121CDE9011060
:103DB00015E0AAF10101E9E7002805DC04990144B6
:103DC0000491AAEB000102E0411C514500DD8A4646
:103DD0000499401A401C01904FF0004002902007C7
:103DE00004D40198504501DBCDF8048000208DF803
:103DF0004F0002980DF14F07B0F1004F25D02B2056
:103E00000E9002984FF0020800280CDA404202900F
:103E10002D200E9007E00A210298FCF779FC303142
:103E2000029007F8011DB8F10001A8F10108F2DCC9
:103E300002980028EFD1791E0E980870307800F0B3
:103E4000200040F0450007F8020D12A8C01B00F149
:103E500007081498007800B1012000EB0A010198CE
:103E600001EBE07105984144401A401E0590E003C3
:103E700006D45B462146179A059800F05DF8054484
:103E80001498007818B15A46179990476D1CE003B2
:103E900024D55B462146179A059800F04DF8054455
:103EA0001CE00498002807DBDDE90301884203DDFC
:103EB0000098405C179901E0179930205A469047C6
:103EC000049805F10105401C04900198401E0190E2
:103ED00004D12E205A46179990476D1CBAF1000163
:103EE000AAF1010ADDDC05E017F8010B5A46179923
:103EF00090476D1CB8F10001A8F10108F4DC5B46A5
:103F00002146179A0598ABE62D0000002B00000013
:103F1000200000002DE9F041044600251E4617460A
:103F2000880404D405E039462020B0476D1C641E87
:103F3000F9D52846BDE8F0812DE9F0410446002579
:103F40001E469046C80301D5302700E0202788048C
:103F500004D505E041463846B0476D1C641EF9D5CE
:103F60002846BDE8F0810A68531C0B60107070474A
:103F700082B0CDE9000121F0004001909DED000BE1
:103F800002B051EC100B70472DE9F041884606460F
:103F900015004FF0000418D0B188F088814217D97D
:103FA000A1EB0004AC4200D914463168224601441A
:103FB0004046FCF794F9F088204480B2F0803189C3
:103FC000884231D3401AF0802EE00020BDE8F08115
:103FD0002AD231890C1AAC4200D9144631682246E3
:103FE00001444046FCF77BF9F088204480B2F08021
:103FF0003189884201D3401AF080B788A7B1E0190F
:10400000A84200D92F1B77B108EB04003A4631686B
:10401000FCF765F9F088384480B2F0803189884235
:1040200001D3401AF0803C442046CFE7EFF30580EF
:10403000002800D0012070470FB44FF0FF3110B5B9
:10404000074C206800F098FC03AA0121029801F0B7
:1040500003F9206800F068FC10BC5DF814FB000058
:10406000900000201CB5FCF785FFFEF77FF9FEF7F6
:1040700029F8FDF7F1FFFEF7C5F821481F494FF475
:10408000E13600240160C0E901640C25C460C0E988
:1040900004458461C461FDF7A5FD00B1FEE7184841
:1040A000184940300160C0E90164C460C0E90445BA
:1040B0008461C461FDF796FD00B1FEE71048124926
:1040C0003C380160A721C0E9011440F2E731C1602A
:1040D000FDF798FA00B1FEE72020CDE9000408487A
:1040E00069463C38FDF766FA00B1FEE7FEF748F88E
:1040F00000F00CF800F010FCFEE70000001001409A
:10410000A8A20020004400400010004010B586B076
:1041100000200590012105A800F062FC064C142245
:10412000064920616846FCF7DAF80021684600F08D
:10413000D3FCE06206B010BD68000020F461000806
:1041400001460020842900D0C81C70471CB5334F9D
:10415000802507F10C0404F18C0020600020E08031
:10416000A080258104F10C013960B880DFF8B080AF
:10417000F8803D81C8F80000C8F8040001222946F3
:1041800004F10C00FCF7CBF82A4626483968FDF705
:1041900035FE254D4FF0FF31286900F05FFCDFF858
:1041A00084A0A9460121D9F8240000F057FCDAF8D0
:1041B0003400BAF82C1000684068081AB8802189C9
:1041C000A088091A8AB2216801443846FFF7DCFE4C
:1041D0000004000CE6D0A1880844A080204600F02E
:1041E00093FCD8F80400FCF764FA05460E46D8F8AC
:1041F0000000FCF75EFA41EC100BCDE9005653ECE1
:10420000102B0AA0FFF718FF98ED000A89ED020AAB
:1042100098ED010A89ED030AC4E70000A8A4002074
:10422000F8000020E8A20020680000206F646F6D95
:10423000657472795F7269676874202566206F649F
:104240006F6D657472795F6C656674202566000019
:1042500096B034216846FCF769F800241C210EA8AA
:10426000FCF764F803200D9460F30F241C2060F326
:104270001F44FA2060F3070440F60A50ADF83400FA
:1042800014484FF0FF363146006800F0E7FBB146B6
:10429000DFF84480114E6D46002364220EA9D8F841
:1042A000000001F047FB0128F6D11C220EA9281DB1
:1042B0000094FCF714F8BDF83400ADF82000222774
:1042C0004946306800F0CAFB3A4669460448FDF7A3
:1042D0006BFEE1E778000020A000002088000020AD
:1042E000E8A200202DE9F0430C462DED088B83B0A9
:1042F00007469FEDCC8ACC4DF0EE488A287888B3EB
:1043000095ED040AD5ED050A95ED021A60EE200A36
:1043100095ED080A20EE010A95ED031A20EE011A28
:1043200080EE810A10EE100AFCF7C3F941EC190B7C
:1043300085ED0A9B6868FCF7BCF941EC100B51EC69
:10434000190B53EC102BFCF715F941EC100B002066
:1043500085ED0C0B28708DED009B53EC102BB3A05A
:10436000FFF76AFED7E900068146304400EE100AE6
:10437000F6EE009AB8EEC00A20EE290A10EE100AF6
:10438000FCF797F941EC100BA6EB090001EE100ABF
:10439000AA4885ED0E0BB8EEC19A90ED001AA84818
:1043A000A846B5EEC01AF1EE10FA35DDD0ED001AD0
:1043B000F5EEC01AF1EE10FA2EDD454651EC100B69
:1043C000FCF78AF908EE100A4A4631469DA0FFF72D
:1043D00033FEF0EE498A18EE900AFCF76AF9CDE94F
:1043E000000195ED0E0B9BA053EC102BFFF724FE64
:1043F00018EE900AFCF75DF905460E4618EE100A15
:10440000FCF757F941EC100BCDE9005653EC102B9B
:1044100090A0FFF711FE41E0B5EEC01AF1EE10FAE0
:1044200011D2D0ED001AF5EEC01AF1EE10FA0AD250
:1044300051EC100BFCF750F900EE100AF1EE498A2E
:10444000B1EE408A2AE0B5EEC01AF1EE10FA0BD2B6
:10445000D0ED001AF5EEC01AF1EE10FA04DDB1EE5F
:10446000498A9FED801B0FE0B5EEC01AF1EE10FAFD
:1044700014DD90ED001AB5EEC01AF1EE10FA0DD26F
:10448000B0EE498A9FED791B51EC100B53EC112BC8
:10449000FBF7FEFFFCF720F908EE900A18EE900AF1
:1044A000FCF707F998ED0C1B454653EC112BFBF775
:1044B000EFFFFCF711F908EE900A94ED020A30EED6
:1044C000280A84ED020A08EEA90A85ED090A10EE11
:1044D000100AFCF7EEF841EC100BFEF75DFC51EC16
:1044E000100BFCF7F9F80AEE100A686AFCF7E1F81D
:1044F00041EC100BFEF7E0FB51EC100BFCF7ECF875
:1045000000EE100A28EE000A10EE100AFCF7D1F8AF
:1045100095ED0A9B53EC192BFBF7BAFF41EC1B0BF3
:104520002068FCF7C6F853EC1B2BFBF70AFFFCF7DF
:10453000D3F828EE0A0A206010EE100AFCF7B9F84A
:1045400053EC192BFBF7A4FF41EC1A0B6068FCF746
:10455000B0F853EC1A2BFBF7F4FEFCF7BDF86060E3
:1045600095ED07AA1AEE100AFCF7A3F841EC1B0B15
:1045700018EE100AFCF79DF853EC192BFBF788FF97
:1045800053EC1B2BFBF7F6FFFCF7A6F888EE8A0A24
:10459000E06084ED040AD4ED020A95ED050AF4EE1C
:1045A000C00AF1EE10FA04DD95ED061A70EEC10AAC
:1045B0000AE0B1EE401AF4EEC10AF1EE10FA05D2AB
:1045C00095ED061A70EE810AC4ED020AD7ED000AD5
:1045D000DFED281A95ED041AF8EE600AD5ED082AE9
:1045E00060EEA10A60EE800A20EE812AD5ED030A72
:1045F00060EEA20AC2EE202AC4ED052A97ED012A38
:10460000B8EE422A62EE211A21EE800A20EE010A5B
:1046100080EE201A84ED061A03B0BDEC088BBDE8CD
:10462000F083000000000000B80000206F6E6520DD
:10463000256C6620256C660D0A00000070000020C5
:1046400074000020706C7573655F636E7420256460
:104650002025640064656C74612025662025660D44
:104660000A00000000000000000000C00000000080
:1046700000000040000048432DED048BACB0002545
:104680000E952C460F95109511951295242294495C
:1046900016A81395FBF723FE91492422243105A87F
:1046A000FBF71DFEDFED8F8A0027B0EE688A9FEDD5
:1046B0008E9A1C2124A8FBF739FE8C4E1F9420945F
:1046C000691E306900F0CAF9A146884C0A21606968
:1046D00000F0C4F920681F9060682090C4F804902E
:1046E000C4F800900EAB209843F825000DF1440C5F
:1046F0001F984CF8250000266D1CEDB2344630465C
:104700003146032D00D3002500229A465AF8228014
:1047100018EB060644EBE8745CF8228002F1010213
:1047200018EB000041EBE871032AEFDB03220023C2
:10473000FBF7A4FD80468A4603220023304621462B
:10474000FBF79CFD064642F6E064A8FB040C8B4692
:104750000AFB04C1002308FB03112C22FBF78EFD8A
:10476000044642F6E062A6FB020C0BFB02C10023EA
:1047700006FB03112C22FBF781FDBDEEC90A06B230
:104780005A480FFA84F8B8EEC01AD0ED020A21EEAA
:10479000201ABDEEC11A11EE101AB8EEC01A14910B
:1047A00090ED030AA8EB060121EE001A29EE000A9B
:1047B000BDEEC11AB0EEC00A8DED1E0A29EE200A28
:1047C00011EE10BAB0EEC00A8DED0D0A00EE106ABF
:1047D000C16305A8B8EE400AFDF768FD70EE288AAF
:1047E000BDEEE80A10EE100AFBF733FF41EC100BA8
:1047F000FEF7C6FA51EC100BFBF73CFF42F2D00A71
:1048000004465146504501DD0C4602E0002C00DA1A
:104810000024A6EB0800354E00EE108AF063B8EED7
:10482000400A16A8FDF742FD30EE088ABDEEC80A20
:1048300010EE100AFBF70DFF41EC100BFEF7A0FA8B
:1048400051EC100BFBF716FF5146884201DD504634
:1048500002E0002800DA00208C4201DD0C4602E074
:10486000002C00DA00241499002905DD204909688C
:10487000CC63C1F840900CE005DA1D490968C1F825
:104880003C900C6405E01A4A1268C2F83C90C2F8E9
:104890004090BBF1000F05DD164A11684863484699
:1048A00011680BE004DA13490B68C3F8349004E094
:1048B000104948460A68C2F834900968886324A9F8
:1048C0001FA8FFF70FFD38467F1C05287FF6FDAEB9
:1048D00000273B463A4624A9B06B01F025F9F4E6DF
:1048E0006461000800000000714BB04168000020C6
:1048F00030A20020F4A1002010B500B9012000F082
:104900002DFE002010BD10B501F0BCFA012801D029
:10491000012010BD002010BD10B500F0B7FE002032
:1049200010BD012000F0CBBF38B50024054600942F
:10493000FFF77CFB90B16946284601F0A5F90128F4
:1049400001D0FF2038BD009888B10A494FF080504F
:104950000860BFF34F8FBFF36F8F08E000231A4644
:104960001946284601F0E0F8012800D0FF2420462F
:1049700038BD000004ED00E038B505004FF0000040
:1049800000900FD00024481C0ED001B10C46FFF758
:104990004DFBB8B16A460021284601F0C3F9012851
:1049A00018D104E0802038BD4FF0FF34EFE70098C5
:1049B00090B10A494FF080500860BFF34F8FBFF3AA
:1049C0006F8F09E0002322461946284600F0B2FF07
:1049D000012801D0FF2038BD002038BD04ED00E0E3
:1049E00010B50846012903D0BDE8104000F04ABFC9
:1049F00003220021012000F074FF040004D00023F2
:104A00001A46194601F090F8204610BD38B500242A
:104A100005460094FFF70AFB90B16946284601F06D
:104A200033F9012801D0FF2038BD009888B10A4928
:104A30004FF080500860BFF34F8FBFF36F8F08E0D7
:104A400000231A461946284601F06EF8012800D0C6
:104A5000FF24204638BD000004ED00E038B5050015
:104A60004FF0000000900FD00024481C0ED001B180
:104A70000C46FFF7DBFAB8B16A460021284601F080
:104A800051F9012818D104E0802038BD4FF0FF34DF
:104A9000EFE7009890B10A494FF080500860BFF3EB
:104AA0004F8FBFF36F8F09E0002322461946284637
:104AB00000F040FF012801D0FF2038BD002038BDA4
:104AC00004ED00E010B501F0DDF9012803D0BDE8E8
:104AD000104000F0C1BE10BD3EB504460D46B0F911
:104AE0000800FFF72DFB02A9CDE90001208A2B4623
:104AF00082B2D4E9001001F099F9012801D0002018
:104B00003EBD02983EBD00002DE9FE4F0425002663
:104B10000446029646E021682A46014402A8FBF7B3
:104B2000DEFB9DF80800FA2802D0E088401C38E03F
:104B3000A288E088BDF80A90131A09EB05029DF8D7
:104B40000910921C934232DB022926D121684A4681
:104B5000084441192648FBF7C2FBE0880090A3886F
:104B6000BDF80A209DF8091022A0FFF765FADFF8CA
:104B700080A0DAF80000FBF79CFD07468846DAF8CB
:104B80000400FBF796FD41EC100BCDE9007853ECE7
:104B9000102B254925A0FFF74FFAE188A81C4944AE
:104BA0000844E080A188E088091AA942B3DA000429
:104BB000000C0FD0A1880A1A002A09DD23681918F1
:104BC0001846FBF78CFBA088E188401AA08000E023
:104BD000A680E680E0880090A388BDF80A209DF8B2
:104BE000091004A0FFF728FA0020BDE8FE8F00009E
:104BF000F80000207265636569766520524F535F47
:104C00004D4147494320686561642E636D642025EA
:104C10006420686561642E6C656E3A2564202564A5
:104C2000202564200D0A00000862000866756E6386
:104C3000202573206C6566745F6D6F746F725F649E
:104C40006174612025662072696768745F6D6F7496
:104C50006F725F6461746120256600002DE9F04188
:104C6000184C0F460546E6682068001D00F092FBD0
:104C700038B9206890F82C100120884021698143C0
:104C80002161681C07D137B12168BDE8F0410E48A9
:104C9000091D00F0BABB20683544B5424560216863
:104CA00005D2A06BBDE8F041091D00F096BB606B1A
:104CB000091D00F092FBA06A854200D2A562BDE802
:104CC000F081000024000020E0A100202DE9F04147
:104CD000054600F0A7FB2E4CA068401CA060206891
:104CE0002C4F10B1606940B32DE02560A068012809
:104CF00029D1002606EB860007EB800000F05FFB61
:104D0000761C072EF6D323488C3000F058FB214840
:104D1000A03000F054FB1F48B43000F050FB1D4899
:104D2000C83000F04CFB1B48DC3000F048FB194851
:104D30008C3060631430A06305E02068E96AC06AC3
:104D4000884200D82560606A401C60626864E96A35
:104D50000120226988401043206101EB810007EBAC
:104D60008000291D00F051FB00F07CFB60690028E9
:104D70000CD02068E96AC06A884207D206494FF021
:104D800080500860BFF34F8FBFF36F8FBDE8F08195
:104D90002400002004A1002004ED00E070B5114EB5
:104DA000114C17E000F0A6FC3068B8B101F068F9CA
:104DB00000F038FBF068C568281D00F0EBFAA06829
:104DC000401EA0606068401E606000F04BFB2846FB
:104DD00000F055F860680028E4D170BD01F050F98A
:104DE000F8E70000CCA100202400002030B4026CC1
:104DF0000B46002A0BD0C1681144C1604468A1422F
:104E000001D30168C16030BC1846FBF768BA30BCFA
:104E100070472DE9F041856B174604460026026C69
:104E200082B1C7B1E068FBF75AFAE168206C091A51
:104E3000E1602268914202D26168081AE060022FA4
:104E400016D017E02068A8B9606801F093F806460C
:104E5000002060600EE0A068FBF741FA216CA068BA
:104E60000844A0606168884204D32068A06001E023
:104E700005B16D1E6D1CA5633046BDE8F08110B50F
:104E80000446006B00F002FB2046BDE8104000F035
:104E9000FDBA000010484FF42041420706D0C01D63
:104EA0000D4920F00700411AC1F520410B4A0023AB
:104EB0000144C2E900030839103A21F007011160EA
:104EC0004B600B600B1AC0E9001393604FF0004079
:104ED0005360D06070470000040100201C000020D7
:104EE000084C4FF08056084DFFF758FF2068012806
:104EF00004D92E60BFF34F8FBFF36F8F00F05CFAC1
:104F0000F2E7000004A1002004ED00E02DE9F047E5
:104F10000E46DDE909841746824691009946089DB0
:104F2000A522206BFBF7FBF96FF00301206B01EB6F
:104F30008701084420F00707780707D0502080F346
:104F40001188BFF34F8FBFF36F8FFEE72218315CDC
:104F500082F83410315C11B1401C1028F6D30026C1
:104F600084F84360072D00D30625E562C4E9135693
:104F7000201D00F02FFA04F1180000F02BFA246134
:104F8000C5F107006462A061666584F858604A460E
:104F90005146384600F00EF92060B8F1000F01D0FC
:104FA000C8F80040BDE8F08730B5114900E011466F
:104FB0000A688242FBD34B685C18844203D1406884
:104FC00018444860084643681C18944209D1084CAC
:104FD000103C2468A24209D052681A4442600A6810
:104FE00012680260814200D0086030BD0460F9E7B9
:104FF0001C00002010B5044600F014FAA06B28B184
:105000005FF0000400F02EFA204610BD0124F9E7FD
:105010000648416B096829B1416BC968C96849688C
:10502000816270474FF0FF31FAE700002400002052
:1050300008484068401C4FF0500080F3118804D0AD
:10504000BFF34F8FBFF36F8FFEE7BFF34F8FBFF3F9
:105050006F8FFEE7000000202DE9F041044600F0CC
:10506000E1F994F9455004F1240609E0606A48B179
:10507000304600F0CBFF08B100F096FA6D1E6DB21D
:10508000002DF3DC4FF0FF3684F8456000F0EAF9BC
:1050900000F0C8F994F9445004F1100709E02069C0
:1050A00048B1384600F0B2FF08B100F07DFA6D1E3D
:1050B0006DB2002DF3DC84F84460BDE8F04100F0EF
:1050C000D1B900002DE9F0410546002700F012FBA0
:1050D000314E306808B9FFF7DDFEF06805424BD16C
:1050E000C5B3083568070ED005F00700C0F1080009
:1050F0000544680707D0502080F31188BFF34F8F15
:10510000BFF36F8FFEE72DB37068854234D8224815
:10511000103001460C6801E020460C466168A94247
:1051200002D221680029F7D131688C4224D0076867
:105130002168016060680837411B10290FD9601988
:10514000420708D0502080F31188BFF34F8FBFF380
:105150006F8FFEE710E041606560FFF725FF616833
:105160007068401A7060B268904200D2B060F06817
:1051700001430020C4E9000100F082FF780707D056
:10518000502080F31188BFF34F8FBFF36F8FFEE77E
:105190003846BDE8F08100000C0000200449086892
:1051A00018B10868026D521C02650868704700005B
:1051B0002400002010B5031F4FF080741C601B1FDB
:1051C00021F001011960191F044B0B6014390A60AA
:1051D000091F6FF0020244380A6010BD3150000808
:1051E00010B500221C21032000F07BFB01498863DD
:1051F00010BD0000680000201CB500200190009048
:1052000001216846FFF7ECFB124C6061FFF7FEFBE3
:1052100001216846FFF7E4FBA061FFF7F7FB0121DE
:105220006846FFF7DDFBE061FFF7F0FB0121684610
:10523000FFF7D6FB2062FFF7E9FB01216846FFF785
:10524000CFFB6062FFF7E2FB01A8FFF76AFBA062F9
:105250001CBD00006800002070B50E46134C0146CE
:105260002046FDF7FFFCC5B236B1601910A211A1AE
:10527000FDF7E4FC2844C5B2FFF745FB00280BDD31
:105280002A4621460C48FCF78FFE0C481421006882
:10529000BDE87040FFF7E2BB2A462146BDE87040FA
:1052A0004FF6FF730448FCF721BE0000C0A50020A4
:1052B0000D0A000025730000A8A200208000002035
:1052C000B0B00025012280216846FBF728F8FFF7DF
:1052D00093FFFFF785FF1422234920A8FAF7FFFF69
:1052E000002120A8FFF7F8FB204C1F491422E062A0
:1052F000143125A8FAF7F3FF002125A8FFF7ECFBEE
:1053000019492063142228312AA8FAF7E8FF00215E
:105310002AA8FFF7E1FB60631548FCF7C7F90021F5
:105320001448FCF7A3FB04211248FCF79FFB08215B
:105330001148FCF79BFB0C210F48FCF797FB0FA0D3
:10534000FEF77AFE2069FFF761FB6D1C052DF9DB86
:1053500041F288342046FFF7CFFA03490AA00C39FE
:10536000FEF76AFEF6E70000B8610008680000205A
:105370006CA20020F4A1002030A200207265626FB0
:105380006F740D0A0000000066756E632025730DB2
:105390000A000000D0E9013201699A60D0E90123D6
:1053A0005A604A68824201D182684A6000220261E2
:1053B0000868401E0860704770477047704700F1EA
:1053C00008014FF0FF32C0E90112C1600161002104
:1053D0000160704700210161704730B50B685A1CAD
:1053E00002D000F1080202E0026904E0224654689B
:1053F00025689D42FAD953684B6099608A60516074
:1054000008610168491C016030BD42684A609368C8
:105410008B6093685960916008610168491C016064
:1054200070470000502080F31188BFF34F8FBFF307
:105430006F8F0A494868401C486001280CD1084811
:10544000006810F0FF0F07D0502080F31188BFF3E1
:105450004F8FBFF36F8FFEE7704700000000002002
:1054600004ED00E00849486828B1401E486001D1B9
:1054700080F311887047502080F31188BFF34F8F5D
:10548000BFF36F8FFEE700000000002070B500281A
:1054900027D0144DA0F108046168E868014207D1E3
:1054A000502080F31188BFF34F8FBFF36F8FFEE75B
:1054B00022683AB1502080F31188BFF34F8FBFF3B9
:1054C0006F8FFEE78143616000F014F960686968DE
:1054D000084468602046FFF767FDBDE8704000F0B3
:1054E000CFBD70BD0C00002006484FF47A710068F3
:1054F000B0FBF1F14FF0E020491E4161072101614D
:10550000704700006000002010B5FAF7A1FE1149B5
:1055100010280ED300F1E02090F8F0030A789042B2
:1055200007D2502080F31188BFF34F8FBFF36F8FE6
:10553000FEE709480068896800F4E060884207D9FE
:10554000502080F31188BFF34F8FBFF36F8FFEE7BA
:1055500010BD0000000000200CED00E010B50200BE
:1055600014D00F48006B38B1502080F31188BFF37E
:105570004F8FBFF36F8FFEE700F0BCF8002110469D
:10558000FFF76CFB00F07CFD002807D105494FF0C8
:1055900080500860BFF34F8FBFF36F8F10BD0000C6
:1055A0002400002004ED00E001490120C86170479B
:1055B0002400002010B50C4650B109490968183183
:1055C000FFF70BFF2046BDE810400121FFF746BB67
:1055D000502080F31188BFF34F8FBFF36F8FFEE72A
:1055E0002400002070B5040039D01D4DE06A296800
:1055F000C96A884233D2A069002804DB2868C06ADF
:10560000C0F10700A061E16A164E01EB81016069FB
:1056100006EB810188421FD1201DFFF7BBFE01214F
:1056200050B9E06A00EB800256F8222022B92A69BC
:1056300001FA00F082432A612868C06AE0622A69A0
:1056400081401143296100EB800006EB8000211DA1
:10565000BDE87040FFF7D9BE2868C06AE06270BD3F
:105660002400002004A1002028B107490A6A026032
:10567000C96841607047502080F31188BFF34F8F95
:10568000BFF36F8FFEE70000240000201CB5154813
:105690000024CDE900402346802213A1144800F0E5
:1056A000C5FB012809D0401C1AD1502080F3118875
:1056B000BFF34F8FBFF36F8FFEE7502080F3118849
:1056C000BFF34F8FBFF36F8F06484FF0FF312C3879
:1056D000816201214161C460BDE81C4000F04CB80A
:1056E0001CBD00005000002049444C450000000053
:1056F000E14E00080248016B491C0163704700003D
:105700002400002010B51A4C206B10B10120E0617C
:1057100010BD0020E061206821680068096B8842A4
:1057200004D8216820683431FFF747FE2069114909
:10573000B0FA80F0C0F11F0000EB800051F820208B
:105740006AB101EB800000F10802416849684160DC
:10575000914201D149684160C868206010BD502065
:1057600080F31188BFF34F8FBFF36F8FFEE7000008
:105770002400002004A100201CB532480168324AF0
:10578000914207D1502080F31188BFF34F8FBFF3B0
:105790006F8FFEE700682C49491E884207D15020D0
:1057A00080F31188BFF34F8FBFF36F8FFEE7274958
:1057B00008780190FF20087008788DF800009DF8A7
:1057C00000009DF8002000F0F000904207D050202B
:1057D00080F31188BFF34F8FBFF36F8FFEE79DF803
:1057E00000001B4A00F0500010700720906005E098
:1057F0009DF800305B008DF80030401E9DF80030B1
:105800001B06F5D4000200F4E06090600198087077
:105810000C482030016841F470010160016841F0DA
:1058200070410160FFF760FE00205060FAF7D6FC7F
:105830000848016841F040410160FAF7BFFC0020D0
:105840001CBD000000ED00E071C20F4100E400E06B
:105850000000002034EF00E010B5502080F31188E4
:10586000BFF34F8FBFF36F8F00F01AFB18B10449DD
:105870004FF080500860002080F3118810BD0000B8
:1058800004ED00E010B50C4648B184420FD9502019
:1058900080F31188BFF34F8FBFF36F8FFEE7502067
:1058A00080F31188BFF34F8FBFF36F8FFEE70222A3
:1058B000002100F016F8002800D0846310BD10B558
:1058C00002460021012000F00CF8041E07D0002140
:1058D000416001600B460A46C16000F025F9204690
:1058E00010BD2DE9F04117460E46050016D0EEB169
:1058F00005FB06F05030FFF7E5FB04000CD004F187
:105900005000AEB12060C4E90F562046012100F0DE
:10591000C7F8204684F84C70BDE8F081502080F331
:105920001188BFF34F8FBFF36F8FFEE70020E1E7D1
:105930002460E8E72DE9FF4F002683B09B468A46A6
:10594000040003D0BAF1000F08D011E0502080F31A
:105950001188BFF34F8FBFF36F8FFEE7206C38B114
:10596000502080F31188BFF34F8FBFF36F8FFEE796
:1059700000F088FADFF824814FF000094FF08057DB
:1059800048B9059838B1502080F31188BFF34F8F84
:10599000BFF36F8FFEE7FFF745FDA56B45B351469B
:1059A0002046E668FFF722FABBF1000F13D0E6604D
:1059B000606A50B104F1240000F028FB28B1C8F857
:1059C0000070BFF34F8FBFF36F8FFFF74BFD0120C8
:1059D00007B0BDE8F08F6D1EA563206810B9FFF712
:1059E000DDFB606020690028EFD004F11000E3E7E0
:1059F000059808B11EB106E0FFF734FD27E06846C0
:105A0000FFF732FE0126FFF72DFDFFF773FEFFF7CC
:105A100009FD94F94400401C01D184F8449094F9A4
:105A20004500401C01D184F84590FFF71BFD05A9F6
:105A3000684600F0C5F9002820460AD0FFF70CFBA5
:105A400000F01EFB2046FFF7D5FA0028A3D0002067
:105A5000BEE7FFF7CFFAD8B1206830B9FFF7E2FC14
:105A60006068FFF7BFFDFFF7FDFC04F12400059916
:105A7000FFF7A0FD2046FFF7EFFA00F001FB00283A
:105A800089D1C8F80070BFF34F8FBFF36F8F82E7E3
:105A90002046FFF7E1FA00F0F3FA7CE704ED00E0BE
:105AA00070B50D46040025D0FFF7BCFCD4E90F20EB
:105AB000216802FB001161600021A1632168A160DF
:105AC0000A46D4E90F01401E00FB0121E160214696
:105AD0004FF0FF3001F8440F487004F110008DB111
