:020000040800F2
:10000000C0A9002059020008632300084721000806
:1000100061230008670900082D2D0008000000007A
:100020000000000000000000000000009D0100082A
:10003000250A000800000000F1010008352400082E
:1000400073020008730200087302000873020008BC
:100050007302000873020008270A00082D0A00082E
:10006000330A0008390A0008730200087302000806
:10007000730200087302000873020008730200088C
:100080006909000875090008730200087302000876
:10009000730200087302000873020008730200086C
:1000A000730200087302000873020008730200085C
:1000B000392500084525000873020008730200086E
:1000C000730200087302000873020008730200083C
:1000D0007302000873020008212D00087302000853
:1000E000730200087302000873020008730200081C
:1000F000730200087302000873020008730200080C
:1001000073020008730200087302000873020008FB
:10011000730200080D28000851250008730200082A
:1001200073020008730200087302000873020008DB
:1001300073020008730200087302000873020008CB
:1001400073020008730200087302000873020008BB
:1001500073020008730200087302000873020008AB
:10016000730200087302000873020008730200089B
:100170007302000873020008730200080000000008
:100180007302000873020008DFF80CD000F0CCFB0B
:100190000048004769410008C0A900202B4B19689E
:1001A0000868B0E8F04F80F30988BFF36F8F4FF015
:1001B000000080F3118870470000000006480068C6
:1001C000006880F3088862B661B6BFF34F8FBFF353
:1001D0006F8F00DF00BF00BF08ED00E0DFF80C000C
:1001E000016841F470010160704700BF88ED00E0D4
:1001F000EFF30980BFF36F8F144B1A681EF0100FD6
:1002000008BF20ED108A20E9F04F106008B44FF0CD
:10021000500080F31188BFF34F8FBFF36F8F05F04D
:10022000D1FA4FF0000080F3118808BC1968086803
:10023000B0E8F04F1EF0100F08BFB0EC108A80F34A
:100240000988BFF36F8F704700BF00BF24000020F4
:10025000EFF30580704700000648804706480047D6
:10026000FEE7FEE7FEE7FEE7FEE7FEE7FEE7FEE766
:10027000FEE7FEE7E5240008890100082DE9F05FAC
:100280000546002092469B46884606468146402405
:100290001BE0284641464746224600F05EFA534698
:1002A0005A46C01A914110D311461846224600F012
:1002B00045FA2D1A67EB01084F462246012000211E
:1002C00000F03CFA17EB00094E41201EA4F1010496
:1002D000DFDC484631462A464346BDE8F09F10B56C
:1002E000431A934209D28318881803E010F8011DBD
:1002F00003F8011D521EF9D210BD40EA01039B070D
:1003000003D009E008C9121F08C0042AFAD203E08A
:1003100011F8013B00F8013B521EF9D210BDD2B2D8
:1003200001E000F8012B491EFBD270470022F6E7DE
:1003300010B513460A4604461946FFF7F0FF20465B
:1003400010BD2DE9FE4F804681EA0300C00F0C4628
:10035000009021F0004123F00045B8EB0200A941D4
:1003600005D24046214690461C460B46024623F0E5
:100370000040104347D0270DC7F30A00C3F30A51CA
:100380000290401A019040286BDAC3F3130040F446
:10039000801B0098924620B10023D2EB030A63EB46
:1003A0000B0B01985946C0F14002504600F0C6F9C7
:1003B00006460D4650465946019A00F0DEF910EB0C
:1003C00008006141002487EA115284EAE7731A4366
:1003D00040D0009A62B3019A012A4FEA075215DC15
:1003E000001B61EB02014FF0004202EA0752CDE927
:1003F0000042001C41F5801132462B4600F015FAF0
:1004000003B0BDE8F08F40462146F9E7001B61EBE1
:100410000201001C41F5801300185B412018A2F571
:10042000001747EB030140EAD570B6196D4111E0A2
:100430006D084FEA360645EAC0754FEA0752001BC1
:1004400061EB0201001C41F5801149084FEA3000C0
:100450000019514132462B4603B0BDE8F04F00F081
:10046000D5B90098012240000023D0EB020263EBD3
:10047000E073009821464FEAE074B8EB000061EBAE
:100480000401E9E783F000435BE781F0004158E7AE
:100490002DE9FE4F81EA030404F0004421F00041FD
:1004A00000944FF0000B23F0004350EA01045ED0AB
:1004B00052EA03045BD0C3F30A54C1F30A552C4437
:1004C000A4F2F3340194A0FB0254C1F3130141F4EC
:1004D0008011C3F3130343F4801301FB024400FBB8
:1004E000034E840A970A44EA815447EA8357A4FBDF
:1004F000076802958D0A05FB07854FEA932C04FBDC
:100500000C542705029D4FEA065847EA1637B5EB0B
:1005100008056EEB070C870E920E47EA811742EA38
:100520008312A7FB0201B6EB0B0164EB00042B0D59
:1005300043EA0C335E1844EB1C50DA465146E7FBA5
:100540000201C5F313044FEA0B3343EA14534FEA95
:100550000432019C43EA0603A4F10C040294009CBB
:10056000CDE900B400F061F903B0BDE8F08F0020E0
:100570000146F9E72DE9F04D81EA030404F0004B50
:1005800021F0004514464FF0000A23F0004150EAE4
:10059000050220D054EA01021DD0C5F30A570246D5
:1005A000C5F31303C1F31300C1F30A5640F48015D9
:1005B00043F48013A7EB0608101BD64608F2FD385B
:1005C00073EB050002D308F1010801E092185B41CA
:1005D000B8F1000F03DA00200146BDE8F08D0020DD
:1005E0004FF48011064684460EE0171B73EB050797
:1005F00005D3121B63EB050306434CEA010C4908C3
:100600004FEA300092185B4150EA0107EDD152EAFF
:10061000030012D082EA040083EA0501084305D0F2
:10062000101BAB4106D20122002306E000224FF04E
:10063000004302E06FF0010253101AEB06004CEB8E
:10064000085110EB0A0041EB0B01BDE8F04D00F042
:10065000DDB80EB5C10F80EAE0700844CA0700217A
:1006600040F233438DE80E000A460B4600F0DDF8F9
:1006700003B000BD70B5C1F30A5201F0004500247B
:10068000C1F3130140F2FF3341F480119A4201DAC1
:10069000002070BD40F233439A42A2F2334203DCA1
:1006A000524200F05AF800E090402C43F1D0404212
:1006B00070BD00F0004230F000400AD0C10D01F5DD
:1006C0006071C0F3160042EA0151C20840071143AD
:1006D000704700200146704701F0004330B421F01C
:1006E000004150EA010206D00A0DA2F56072C1F382
:1006F0001301002A02DC30BC00207047440F44EA9A
:10070000C104C100E01830BC00EBC25000F047B893
:1007100030B50B46014600202022012409E021FAD1
:1007200002F59D4205D303FA02F5491B04FA02F5CE
:100730002844151EA2F10102F1DC30BD202A04DBA1
:10074000203A00FA02F1002070479140C2F12003E4
:1007500020FA03F3194390407047202A04DB203A23
:1007600021FA02F00021704721FA02F3D040C2F1D1
:1007700020029140084319467047202A06DBCB1718
:10078000203A41FA02F043EAE07306E041FA02F34C
:10079000D040C2F120029140084319467047002919
:1007A000A8BF7047401C490008BF20F001007047F7
:1007B00010B4B0FA80FC00FA0CF050EA010404BF57
:1007C00010BC704749B1CCF1200421FA04F411FAAD
:1007D0000CF118BF012121430843A3EB0C01CB1DF1
:1007E0004FEA00614FEA102042BF002010BC704762
:1007F00000EBC35010440029A4BF10BC7047401C3C
:10080000490008BF20F0010010BC704710B5141E4D
:1008100073F1000408DA401C41F1000192185B41B9
:100820001A4301D120F0010010BD2DE9F04D924690
:100830009B4611B1B1FA81F202E0B0FA80F22032A7
:100840009046FFF77BFF04460F4640EA0A0041EA64
:100850000B0153465A46084313D0114653EA010090
:1008600019D0C8F140025046FFF777FF05460E4603
:10087000504659464246FFF761FF084305D0012024
:1008800004E020463946BDE8F08D0020054346EAE5
:10089000E0762C4337430A986305E40AA0EB08008E
:1008A0000022FD0A44EA47540A3002D500200146DE
:1008B000E9E7010510196941DDE9084500196941B9
:1008C000BDE8F04DA2E7C1F30A52C1F3130140F2B3
:1008D000FF3341F480119A4202DA0020014670474A
:1008E00040F233439A42A2F2334202DC5242FFF713
:1008F00034BFFFF723BF000030B5041E71F10004C0
:1009000004DB4FF00044404264EB0101141E73F11C
:10091000000405DB1C464FF00043524263EB040326
:10092000994208BF904230BD064C074D06E0E06892
:1009300040F0010394E8070098471034AC42F6D326
:10094000FFF726FCF4630008146400080EB540F2BB
:10095000334102910021CDE900110A460B46FFF711
:1009600064FF03B000BDFEE7014800F07BB8000063
:1009700064A30020014800F075B80000C4A3002063
:1009800001681823CAB2103AB2FBF3F2054B6FF3B9
:100990000901032A9B5CC36500D9091D81650846CE
:1009A00070470000F061000810B5014600208B6917
:1009B0008A6A4FF0C07453B1B3F5005F15D072B1BD
:1009C000012A0CD0022A0AD0032A09D104E01AB164
:1009D000012A06D0022A03D1C96AC90100D5012023
:1009E00010BDC96AA142FAD010BD002AF7D0012A71
:1009F000F2D0022AF3D0032AF3D010BD30B5046838
:100A0000256825F480252560046863608368402B91
:100A1000036803D099600068C26030BD9A600068C6
:100A2000C16030BD7047012000F0A6B9022000F07F
:100A3000A3B9042000F0A0B9082000F09DB990F8F7
:100A40003510022903D0802141650120704705211E
:100A500080F835100068016821F001010160002074
:100A6000704700002DE9F84304464FF00009CDF827
:100A7000009063484FF41651A56D0068B0FBF1F784
:100A80002E6894F85C10082000FA01F131420FD072
:100A900021680A6852070BD50A6822F004020A602E
:100AA00094F85C108840A860606D40F001006065BB
:100AB00094F85C104FF0010808FA01F0304208D0B9
:100AC00021684969090604D5A860606D40F00200FC
:100AD000606594F85C1004208840304208D021689A
:100AE0000968890704D5A860606D40F0040060655E
:100AF00094F85C1010208840304218D021680968B2
:100B0000090714D5A86020680168490304D5006866
:100B1000000308D5A16C07E00168C90503D401688A
:100B200021F008010160216C09B12046884794F842
:100B30005C1020208840304231D021680968C90605
:100B40002DD5A86094F8350005282068016806D0E6
:100B5000490347D5006800031DD4616C1CE021F0F7
:100B6000160101602068416921F080014161206C1B
:100B700008B9A06C20B12068016821F0080101606B
:100B800094F85C103F208840A86084F8349084F882
:100B90003580216D1FE0E16B09B120468847606D0B
:100BA00000282BD0606DC00714D0052084F83500D4
:100BB0002068016821F0010101600098401C00904C
:100BC000B84203D820680068C007F6D184F8349092
:100BD00084F83580E16C002910D001B02046BDE8D2
:100BE000F04308470168C905D5D4016821F0100118
:100BF000016084F8349084F83580CCE7BDE8F88350
:100C0000600000202DE9F041044600F099F9064605
:100C10005CB1002584F83450022084F83500206847
:100C2000016821F0010101600DE00120BDE8F081C3
:100C300000F086F9801B052805D920206065032077
:100C400084F83500F2E720680068C007F0D1226818
:100C5000116820480140D4E901031843D4E9033660
:100C60003343184363691843A3691843E36918437E
:100C7000236A18430843616A042903D1D4E90B139A
:100C800019430843106020684069666A20F0070134
:100C900030460E43012704280CD1A06A0643E06ABF
:100CA00040B12046FFF780FE20B14020606584F807
:100CB0003570BAE7206846612046FFF761FE94F878
:100CC0005C203F2191408160656584F8357000208B
:100CD000ACE700003F8010F02DE9F0410446866D3E
:100CE00090F83400002501280DD0012084F834004C
:100CF00094F835700020012F07D084F834000225C5
:100D00002846BDE8F0810220FBE7022784F8357011
:100D100060652046FFF772FE94F85C103F20884023
:100D2000B0602068016841F01601016020684169E7
:100D300041F080014161206C20B12068016841F0E0
:100D4000080101602068016841F001010160D7E7F6
:100D500007490A68521C012808D0022806D0054914
:100D60000A68521C042801D0082800D10A60704784
:100D70006C00002068000020044910B50A68024297
:100D800002D00860FFF7E4FF10BD0000143C0140F2
:100D90002DE9F84FDFF87CB100224FF001084FF049
:100DA000030A4FF00F090BF1040E00BF0B6808FA9D
:100DB00002F42340A3426ED14D68022D01D0122DC2
:100DC0000ED1D50800EB850CDCF820505607F70E45
:100DD00009FA07F6B5430E69BE402E43CCF82060F1
:100DE000066855000F790AFA05FC07F0030726EAA2
:100DF0000C06AF40374307604E68012E05D0022E27
:100E000003D0112E01D0122E0ED18668CF6826EAAB
:100E10000C06AF40374387604668A6430C79C4F39D
:100E20000014944034434460C6688C6826EA0C067B
:100E3000AC403443C4604C68E40065D5364C25684A
:100E400045F480452560246822F0030504F48044BD
:100E50000094324C2E19D6F8084895072F0F09FA3E
:100E600007F5AC432E4DA84201D1002524E02D4DBD
:100E7000A84201D101251FE02B4DA84201D1022536
:100E80001AE02A4DA84201D1032515E0284DA842B9
:100E900002D1042510E037E0264DA84201D10525F6
:100EA0000AE0254DA84201D1062505E0234DA842C0
:100EB00001D1072500E00825BD402543C6F80858A4
:100EC000DBF800405D464E689C43F60300D51C43AA
:100ED0002C60DEF8004075464E689C43B60300D592
:100EE0001C432C600B4D08352C684E689C43F60261
:100EF00000D51C432C60074D0C352C684E689C4374
:100F0000B60200D51C432C60521C102AFFF44EAFD1
:100F1000BDE8F88F003C01404438024000300140F9
:100F2000000002400004024000080240000C0240A1
:100F3000001002400014024000180240001C024051
:100F40000148006870470000640000200248016802
:100F5000491C016070470000640000200B4810B578
:100F6000016841F400710160016841F48061016031
:100F7000016841F480710160032000F075F80F20D2
:100F800000F006F800F018F8002010BD003C024008
:100F900010B5044607484FF47A710068B0FBF1F0D1
:100FA00000F0E7FA00222146501E00F03DF8002034
:100FB00010BD00006000002010B5032000F054F8C0
:100FC000002211466FF00B0000F02EF800221146AF
:100FD0006FF00A0000F028F8002211466FF00900B7
:100FE00000F022F800221146501F00F01DF80022E8
:100FF0001146101F00F018F800220F21901E00F07B
:1010000013F800220F21BDE81040501E00F00CB86C
:1010100000F01F02012191404009800000F1E02012
:10102000C0F8001170470000F0B40E4B1B680C466E
:10103000C3F30223C3F10705042D00D90425191DAC
:10104000072901D2002300E0DB1E012606FA05F184
:10105000491E214099409E40761E16403143F0BC07
:1010600001F080B90CED00E0064900F007020868C5
:101070004FF6FF03184040EA0220034A104308607D
:10108000704700000CED00E00000FA052DE9F04784
:101090000E46050065D0DFF81481D8F80000F7B2DD
:1010A00000F00F00B04207D288F80070D8F80000B6
:1010B00000F00F00B04254D128683D4C810712D592
:1010C000400703D5206840F4E050206028780007EE
:1010D00003D5206840F4604020602068A96820F0B3
:1010E000F000084320602878C0072DD03049686898
:1010F0000839012812D0022813D0032811D009681A
:10110000890700292DDA216821F0030101432160BC
:10111000FFF716FF814641F2883A0EE0096889031D
:10112000EFE709688901ECE7FFF70AFFA0EB090187
:10113000514502D90320BDE8F0872068696800F0B6
:101140000C00B0EB810FEFD1D8F80010404601F051
:101150000F01B14207D90770006800F00F00B042DC
:1011600001D00120E7E72878400705D52068E96825
:1011700020F4E050084320602878000706D5206856
:10118000296920F4604040EAC100206000F03CF88A
:101190002168084AC1F30311515CC8400649086040
:1011A0000F20FFF7F5FE0020C5E70000003C0240DD
:1011B00008380240D861000860000020014800683B
:1011C0007047000060000020044805490068096875
:1011D000044AC1F38221515CC8407047600000207E
:1011E00008380240E86100080448054900680968B9
:1011F000044AC1F34231515CC8407047600000208E
:1012000008380240E8610008154810B5006810F081
:101210000C02144813D04110042A0FD0082A0ED112
:101220000F4C241F2268236802F03F025B0207D59F
:101230002068C0F38810A0FB010106E0084610BD3D
:101240002168C1F38811A1FB00010023FFF716F804
:101250002168C1F30141491C4900B0FBF1F010BD08
:10126000083802400024F4002DE9F84F050071D041
:10127000DFF8D0922878A9F1040BC007ABF1040481
:101280004AD0D9F800104846C1F38101012908D09D
:101290000068C0F3810002280AD1DBF80000400298
:1012A00006D52068800337D568680028DFD033E092
:1012B0006868B0F5803F10D0B0F5A02F206810D03E
:1012C00020F480302060206820F48020206068684E
:1012D000A8B1FFF735FE06460DE0206840F48030E7
:1012E000F4E740F480202060F7E700BFFFF728FE16
:1012F000801B642873D820688003F7D50CE0FFF7C3
:101300001FFE064605E000BFFFF71AFE801B64289B
:10131000F0D820688003F7D428788B4F80074FF0EF
:10132000010A4FF000083DD5D9F80010484611F0E9
:101330000C0F08D00068C0F3810002280BD1DBF845
:101340000000400207D42068800715D5E86801280E
:1013500000D111E0F3E0E868B0B1C7F800A0FFF7F2
:10136000EFFD064605E000BFFFF7EAFD801B0228FF
:1013700035D820688007F7D52068296920F0F80063
:1013800040EAC10020600DE0C7F80080FFF7D8FDFB
:10139000064604E0FFF7D4FD801B02281FD8206812
:1013A0008007F7D42878000724D56848696981B197
:1013B000C0F800A0FFF7C4FD064604E0FFF7C0FD3B
:1013C000801B02280BD85F486C3000688007F5D579
:1013D00010E0C0F80080FFF7B3FD064605E074E0BA
:1013E000FFF7AEFD801B02286FD856486C300068AE
:1013F0008007F5D42878400753D552483830016823
:1014000041F080510160006800F080500090504829
:10141000016841F480710160FFF792FD064604E027
:10142000FFF78EFD801B02284FD849480068C00591
:10143000F6D5444EA868683601280FD005283068D4
:1014400010D020F001003060306820F004003060DF
:10145000A868B8B1FFF774FD00900FE0306840F065
:101460000100F4E740F004003060F7E7FFF768FDA3
:101470000099411A41F28830814258D8306880077B
:10148000F4D50EE0FFF75CFD009007E0FFF758FD94
:101490000099411A41F28830814248D8306880076B
:1014A000F4D4A86990B3D9F80010C1F381010229DE
:1014B00045D00228C7F8608003D0FFF741FD0546FC
:1014C00038E0FFF73DFD064605E030E0FFF738FD68
:1014D000801B02282BD820688001F7D4D5E90701AA
:1014E0000843A96A1B4A490802EB01416A6A41EABA
:1014F0008211084395F82C1040EA0161CBF80010E6
:10150000C7F860A0FFF71CFD054606E015E000BF28
:10151000FFF716FD401B022809D820688001F7D587
:101520000BE000BFFFF70CFD401B022802D903208F
:10153000BDE8F88F20688001F4D40020F8E701208E
:10154000F6E700000838024000004742800E47429C
:10155000007000400000FFFF4FF0E0210428086900
:1015600003D020F004000861704740F00400FAE75F
:10157000704710B5401EB0F1807F01D3012010BD2F
:101580004FF0E02460610F21601700F0EBFE0020B7
:10159000A06107202061002010BD10B5FFF7E8FF13
:1015A00010BD7047704730B590F83820012A20D020
:1015B000012280F83820022380F8393003685C6803
:1015C00024F070045C6003685C680D682C435C6008
:1015D00003689C6824F080049C6003689C684968E8
:1015E0000C439C6080F83920002180F838100846B0
:1015F00030BD022030BD10B5040003D094F839008E
:1016000010B107E0012010BD002084F8380020460A
:1016100000F00CF8022084F83900211D206800F049
:101620009DFF012084F83900002010BD08B5114A43
:1016300001681148914208D1016841F0040101603C
:10164000006800F00400009008BD0C4A9142FBD1F4
:10165000016841F0100101600068002200F01000F4
:10166000009005213620FFF7DFFCBDE8084036205A
:10167000FFF7CEBC00080040403802400010004098
:101680000168CA6842F00102CA600068016841F05E
:10169000010101600020704770B5044690F83800E1
:1016A000012817D0012584F83850022084F8390029
:1016B0002068826822F0770222F47F428260086804
:1016C000502837D00DDC202859D005DC88B31028ED
:1016D00041D151E0022070BD302853D040283AD18A
:1016E0003FE060282ED070280BD0B0F5805F03D08B
:1016F000B0F5005F2FD110E02068816821F007016C
:1017000015E0CB68D1E90121206800F092FF216843
:10171000886840F0770088601DE0CB68D1E901213E
:10172000206800F086FF2068816841F48041816074
:1017300011E01EE0CA684968206801F043F85021B2
:10174000206806E0CA684968206801F04CF860210A
:10175000206800F078FF84F83950002084F83800C1
:1017600070BDCA684968206801F02CF840212068E3
:10177000EFE700212068ECE710212068E9E720214D
:101780002068E6E730212068E3E72DE9F0410D46C7
:10179000040003D094F8390018B108E00120BDE836
:1017A000F081002084F83800204600F039F802204B
:1017B00084F839002068816821F007018160211DCB
:1017C000206800F0CBFE226890689169166A2B6849
:1017D000AF69034340F20330814341EA0721A8681F
:1017E000EF6908434FF6FC418843E96840EA072067
:1017F000014328692F6A000140EA073008436968FD
:101800006D6926F0AA0646EA051529439360226809
:10181000906120680162012084F839000020BEE751
:10182000F0B50068002426490225264E87B0B0F1A5
:10183000804F1FD0244A90421AD1086840F002001D
:1018400008600868694600F00200059030200090AA
:10185000CDE901543046CDE90345FFF799FA00225E
:1018600011461D20FFF7E0FB5FF01D00FFF7D0FBE6
:1018700007B0F0BD086840F0010008600868012763
:1018800000F0010005904FF400400090CDE90154B4
:10189000CDE9034769460D48FFF77AFA0820009022
:1018A000CDE90154CDE9034769463046FFF770FAA8
:1018B000002211461C20FFF7B7FB1C20D6E70000D2
:1018C0004038024000040240000400400000024092
:1018D00010B50446006891B1042904D0012200210A
:1018E00000F09CFE206801225FF0040100F096FEEB
:1018F0002068016841F001010160002010BD012253
:101900000021F3E7704770B50446006801694FF0A5
:101910000005C943890715D4C168C943890711D493
:10192000E91E016101202076206880698007204639
:1019300002D0FFF7E7FF04E000F0B2F8204600F025
:1019400034F9257620680169C943490717D4C1686D
:10195000C943490713D46FF00401016102202076C6
:101960002068806910F4407F204602D0FFF7CAFF4C
:1019700004E000F095F8204600F017F9257620687D
:101980000169C943090716D4C168C943090712D4BC
:101990006FF008010161042020762068C06980078B
:1019A000204602D0FFF7AEFF04E000F079F82046B1
:1019B00000F0FBF8257620680169C943C90617D4F1
:1019C000C168C943C90613D46FF010010161082032
:1019D00020762068C06910F4407F204602D0FFF7CF
:1019E00091FF04E000F05CF8204600F0DEF8257678
:1019F00020680169C943C90708D1C168C943C9073B
:101A000004D1891E0161204600F0ECF820680169CC
:101A1000C943090609D4C168C943090605D46FF052
:101A2000800101612046FFF7BCFD20680169C943C0
:101A3000490609D4C168C943490605D46FF040017D
:101A40000161204600F0F4F820680169C943890665
:101A50000BD4C168C943890607D46FF02001016126
:101A60002046BDE87040FFF79DBD70BD00B5006821
:101A7000094985B088420CD14FF470700090022063
:101A80000021CDE90101CDE9031069460348FFF7C4
:101A90007FF905B000BD00000008004000040240CE
:101AA000704770B5044690F838000D4601280DD0F7
:101AB000012684F83860022084F8390042B1042AF3
:101AC00018D0082A2AD00C2A4DD139E0022070BD46
:101AD000206800F0C1FD2068816941F00801816142
:101AE0002068816921F004018161206881692A6987
:101AF000114311E0206800F0DBFD2068816941F4AA
:101B0000006181612068816921F4806181612068C0
:101B100081692A6941EA0221816124E0206800F09C
:101B2000F9FD2068C16941F00801C1612068C169FF
:101B300021F00401C1612068C1692A69114311E0E3
:101B4000206800F017FE2068C16941F40061C1619E
:101B50002068C16921F48061C1612068C1692A6976
:101B600041EA0221C16184F83960002084F838001C
:101B700070BD10B5040003D094F8390010B107E02F
:101B8000012010BD002084F83800204600F00CF839
:101B9000022084F83900211D206800F0DFFC0120BC
:101BA00084F83900002010BD7047704710B5044616
:101BB0000068012200F032FD08492068884202D006
:101BC0000749884203D1416C41F4004141642068D7
:101BD000016841F001010160002010BD00000140DA
:101BE0000004014010B50C4CA04214D10B48016810
:101BF000491C0160052905D30021016008480068DF
:101C000002F0A2FF07480068406A074908602068A0
:101C1000406A0649086010BDA8A20020B00000205C
:101C20007C00002030A200206C0000206800002012
:101C30007047704770B5026804461068D1685369F0
:101C400010F00F0F51D003F0010501F490763543E9
:101C50005DD0C20705D0CA0503D5E26B42F0010290
:101C6000E263420705D5DA0703D0E26B42F00202D5
:101C7000E263820705D5DA0703D0E26B42F0040283
:101C8000E263020705D5DA0703D0E26B42F00802EF
:101C9000E263E26B002A34D0800604D5880602D5C0
:101CA000204600F03CFE20684069E16BC0F38010E4
:101CB00001F008010143204624D000F019FE2068FD
:101CC000416949061AD5416921F040014161606BC3
:101CD000A0B11B490165606BFEF7B1FE002810D072
:101CE000606B016DBDE87040084783060FD58B0619
:101CF0000DD52046BDE8704000F011BE2046FFF72C
:101D000098FF70BDFFF795FF0020E06370BD0306EC
:101D100006D50B0604D52046BDE8704000F09CBFF8
:101D20004006F3D54806F1D5D168204621F04001A0
:101D3000D160202184F8391000F0EEF970BD000068
:101D40001928000870B5040004D094F83900002563
:101D500010B106E0012070BD84F83850204600F034
:101D600023F8242084F839002068C16821F4005148
:101D7000C160204600F01AFE2068016921F49041FC
:101D800001612068416921F02A0141612068C16830
:101D900041F40051C160E563202084F8390084F8E3
:101DA0003A00002070BD00002DE9F0430646404A8D
:101DB0000168404802250127DFF8FC90002487B025
:101DC0004FF0030891421FD1016841F48011016076
:101DD0000068082400F480100590901404948DE8A5
:101DE000A10169463548FEF7D3FF042004948DE82D
:101DF000A10169464846FEF7CBFF00221146352077
:101E0000FFF712F935204EE02D4A91424DD101687D
:101E100041F4003101600068694600F4003005902B
:101E200060208DE8A101072004904846FEF7B0FF2E
:101E3000254D24484FF000672860C5E901744FF430
:101E40008068C5E9034880156C61C5E906402C62CD
:101E500028466C62FEF7D6FE20B14FF4B8711BA085
:101E600000F065FF7563AE6316481F4D1830E5E856
:101E700002074020A5E811011B4845F81449AC6150
:101E8000EC612C626C62FEF7BDFE20B14FF4C171B3
:101E90000EA000F04CFF3563002205212620AE6322
:101EA000FFF7C2F82620FFF7B3F807B0BDE8F083CC
:101EB0000050004040380240000C02400008024040
:101EC000004400408860024064A300202E2E2F535F
:101ED00072632F73746D3332663478785F68616C27
:101EE0005F6D73702E630000C4A30020F8B5044634
:101EF00090F83A0020283CD1C1B3BAB394F8380026
:101F0000012836D0012084F83800A162A28500257E
:101F1000E563222084F83A00636B1748D863636B4B
:101F200016481864636B1648D864606B13460565E1
:101F30000846666B216802463046091DFEF7CCFE56
:101F4000206801684168009184F83850C16841F404
:101F50008071C1602068416941F0010141612068E0
:101F6000416941F0400141610020F8BDFFE70120D7
:101F7000FBE70220F9E7000073280008AF280008FB
:101F8000292800080649884201D1064803E006498D
:101F9000884203D10548006802F0D6BD70470000B2
:101FA000E4A200208400002024A300208C00002054
:101FB0000649884201D1064803E00649884203D118
:101FC0000548006802F0C0BD70470000E4A2002090
:101FD0008400002024A300208C0000202DE9F84379
:101FE000044690F839001F4616460D46202850D169
:101FF000A5B19EB194F8380001284AD0012084F898
:1020000038004FF00008C4F83C80212084F83900E3
:10201000FEF796FFA6848146E68426E00120BDE80F
:10202000F883E08C401EE084A0684B46B0F5805FEA
:102030004FF000024FF080012046009703D000F0DF
:102040003CFEE8B90DE000F038FEC8B928882168E8
:10205000C0F308004860206908B16D1C05E0AD1CA4
:1020600003E0216815F8010B4860E08C0028D8D106
:102070004B46002240212046009700F01EFE08B18A
:102080000320CCE7202084F8390084F83880002031
:10209000C5E70220C3E7000070B5044690F8390098
:1020A000202830D169B362B394F8380001282AD0CF
:1020B000012084F838002162A284E2840025E563CF
:1020C000212084F83900236B1048D863236B104813
:1020D0001864236B0F48D864206B13460565266887
:1020E000206B321DFEF7F8FD21686FF0400008609C
:1020F00084F838502068416941F080014161002036
:1021000070BD012070BD022070BD0000B92800081C
:10211000E7280008292800080649884201D1064816
:1021200003E00649884203D10548006802F00CBD6F
:1021300070470000E4A200208000002024A30020BB
:10214000880000207047FEE72F4800B5026887B07E
:10215000002142F010020260026802F010020592B3
:10216000026842F080020260026802F0800205927A
:10217000026842F001020260026802F00102059268
:10218000026842F004020260026802F00402059252
:10219000026842F008020260026802F0080205923A
:1021A000026842F002020260006800F0020005903E
:1021B0000F2000901548CDE9010169461448FEF74B
:1021C000E7FD002205210620FEF72EFF0620FEF780
:1021D0001FFF002205210720FEF726FF0720FEF73C
:1021E00017FF002205210820FEF71EFF0820FEF73A
:1021F0000FFF002205210920FEF716FF0920FEF738
:1022000007FF07B000BD0000303802400000311069
:102210000010024010B513488CB04FF080410024EC
:10222000C0E900148460C46004610320009001AA26
:102230000A20012182E81300CDE90440CDE906140B
:10224000694608480894FFF7A0FA00B1FEE7099430
:1022500009A904480A94FFF7A6F9002800D0FEE770
:102260000CB010BDF4A1002010B514488CB0124978
:102270000024C0E900148460C4600461032000905D
:1022800001AA0A20012182E81300CDE90440CDE92A
:102290000614694609480894FFF777FA00B1FEE78B
:1022A000099409A905480A94FFF77DF9002800D090
:1022B000FEE70CB010BD00000004004030A200207A
:1022C00010B526488EB024490024C0E9001442F21B
:1022D000CF01C0E902410461FFF78DF900B1FEE7CB
:1022E0004FF48050079007A91C48FFF7D5F900B1BB
:1022F000FEE71A48FFF73DFC00B1FEE70B940BA97F
:1023000016480C94FFF74FF900B1FEE76020CDE9C5
:10231000000402940022694610480494FFF7C1FBB0
:1023200000B1FEE7042269460C48FFF7BAFB00B192
:10233000FEE7082269460948FFF7B3FB00B1FEE754
:102340000C2269460548FFF7ACFB00B1FEE70348E5
:10235000FFF78CFB0EB010BD000800406CA20020FF
:10236000FEE770470907090E002806DA00F00F00A3
:1023700000F1E02080F8141D704700F1E02080F8A3
:1023800000147047D0ED080A264A30EEC00A80EDEE
:10239000030AD0ED000A20EE801AD0ED060AF8EE0E
:1023A000E00A70EE800AFDEEE00AC0ED060AC1699F
:1023B000914205DC1C4A914202D8D0ED011A03E09B
:1023C000DFED1A1AC0ED011AF8EEE00A90ED022ACC
:1023D000174961EEA01AD0ED040A80ED040A70EEF0
:1023E000600A31EE210A60EE820A30EE200A80EDAA
:1023F000070AD1ED000AB4EEE00AF1EE10FA02DCB1
:10240000F0EE400A01E0C0ED070A91ED010AF4EE9A
:10241000C00AF1EE10FA02D3B0EE600A704780ED08
:10242000070A70470000A0400000A0C000000000A4
:10243000A800002010B5FEF789FDBDE81040FFF7A9
:10244000ACB8000030B5254893B00025016841F0D4
:1024500080510160006800F08050119020480168B0
:1024600041F4804101600068022400F48040119032
:1024700001200090000401908001CDE90640082071
:1024800008904FF4A870CDE9090404200B90684629
:10249000FEF7EAFE00B1FEE70CA90F2081E831004B
:1024A0004FF4A0500F904FF48050109005210CA8CD
:1024B000FEF7ECFD00B1FEE7FEF780FE4FF47A7107
:1024C000B0FBF1F0FFF755F80420FFF745F80022C4
:1024D0000F21501EFEF7A8FD13B030BD403802405A
:1024E000007000401048016841F4700101600F481D
:1024F000016841F0010101600C4A002108321160BD
:1025000002680B4B1A400260031D0A4A1A600268F7
:1025100022F48022026005480C300160024958060E
:10252000803908607047000088ED00E00038024004
:10253000FFFFF6FE103000240148FFF7E4B9000069
:10254000F4A100200148FFF7DEB9000030A200200E
:102550000148FFF7D8B90000A8A20020F0B5026832
:10256000234B244D244E254F254C4FF0804C984250
:1025700009D0604507D0A84205D0B04203D0B84288
:1025800001D0A04204D122F0700E4A6842EA0E0245
:1025900098421BD0604519D0A84217D0B04215D040
:1025A000B84213D0A04211D0164DA8420ED0164DFD
:1025B000A8420BD0154DA84208D0154DA84205D011
:1025C000144DA84202D0144DA84203D122F4407504
:1025D000CA682A4302608A68C2620A6882629842B4
:1025E00001D0A04201D10969016301214161F0BD1F
:1025F000000001400004004000080040000C0040C2
:1026000000040140004001400044014000480140F6
:1026100000180040001C00400020004010B50123BD
:10262000046A8B409C430462036A8A40134303623A
:1026300010BD10B5846842EA032224F47F440A43A3
:102640002243826010BD826822F070020A4342F089
:10265000070181607047000030B5026A22F0010274
:102660000262026A436884690D6824F0730425439A
:1026700022F002048A6822430B4CA04202D00B4C89
:10268000A0420BD122F00804CA6823F4407322430D
:102690004C6922F004021C438B692343436085612B
:1026A00049684163026230BD0000014000040140FE
:1026B00030B5026A22F010020262026A436884693D
:1026C0000D6824F4E64444EA05248D6822F02002D3
:1026D00042EA05120D4DA84202D00D4DA8420ED17E
:1026E000CD6822F0800242EA05124D6923F440636E
:1026F00043EA85038D6922F0400243EA8503436083
:10270000846149688163026230BD000000000140BD
:102710000004014030B5026A22F480720262036A4A
:102720004268C46923F4007324F073050C682C43D9
:102730008D6843EA05230D4DA84202D00C4DA842F6
:102740000ED1CD6823F4006343EA05234D6922F4DA
:10275000405242EA05128D6923F4806342EA051271
:102760004260C4614968C163036230BD000001403A
:102770000004014030B5026A22F480520262046A09
:102780004268C3690D6823F4E64343EA05238D6874
:1027900024F4005444EA0534084DA84202D0084D00
:1027A000A84204D14D6922F4804242EA8512426077
:1027B000C36149680164046230BD0000000001404B
:1027C0000004014010B5036A046A24F001040462A5
:1027D000846924F0F00444EA021423F00A020A4354
:1027E0008461026210BD10B5036A23F01003036216
:1027F0008369046A23F4704343EA023224F0A0039D
:1028000043EA01118261016210BD00000148FFF737
:1028100011BA0000E4A2002010B5806B0021C18530
:10282000C184FFF706FA10BD70B5846B206840695B
:1028300094F83910C0F3C0100025212904D118B133
:10284000E584204600F062F82068406994F83A1068
:10285000C0F38010222904D118B1E585204600F08C
:1028600047F8E06B40F01000E0632046FFF7E1F925
:1028700070BD10B50146806B09680968C90513D49D
:102880000021C1850168CA6822F48072CA600168AB
:102890004A6922F001024A6101684A6922F0400255
:1028A0004A61202180F83A10FFF76CFB10BD10B58B
:1028B000806BFFF77DFB10BD10B50146806B09688A
:1028C0000968C9050CD40021C18401684A6922F055
:1028D00080024A610068C16841F04001C16010BDDA
:1028E000FFF71AFC10BD10B5806BFFF72BFC10BD75
:1028F0000168CA6822F49072CA6001684A6922F0CD
:1029000001024A61202180F83A1070470168CA68C4
:1029100022F0C002CA60202180F83910704710B53B
:1029200090F83A10222901D0022010BD8168B1F53B
:10293000805F11D00169002901681FD0496801F04A
:102940007F03816A4A1C82620B70C18D491E090493
:10295000090CC18518D026E00269816A002A026844
:10296000526805D0D2B20A80816A491C8162ECE7C4
:10297000C2F308020A80816A891CF7E74A68816A03
:102980004B1C83620A70E0E70168CA6822F4907207
:10299000CA6001684A6922F001024A61202180F878
:1029A0003A10FFF7EFFA002010BD00002DE9F041CA
:1029B00004460068016921F44052E1681143016155
:1029C0002168C86849F20C6290432369A268E569EE
:1029D0001A4363692B431A430243CA60216848695A
:1029E00020F44072A06910434861E1696425B1F5A3
:1029F000004F9748974A21684FF032083FD09142E4
:102A000001D081427CD1FEF7EFFB00EBC00101EB6E
:102A1000001061688900B0FBF1F6FEF7E5FB00EB02
:102A2000C00101EB001061688900B0FBF1F0B0FB60
:102A3000F5F06FF01801484306EB800108EB011038
:102A4000B0FBF5F000F0F006FEF7CEFB00EBC001A6
:102A500001EB001061688900B0FBF1F0B0FBF5F00C
:102A600006EB0016FEF7C0FB00EBC00101EB001007
:102A700061688900B0FBF1F7FEF7B6FBD2E0914246
:102A800001D081423DD1FEF7AFFB00EBC00101EB6D
:102A9000001061684900B0FBF1F0B0FBF5F00601F1
:102AA000FEF7A2FB00EBC00101EB001061684900DA
:102AB000B0FBF1F7FEF798FB00EBC00101EB001053
:102AC00061684900B0FBF1F0B0FBF5F06FF0180160
:102AD000484307EB800108EBC100B0FBF5F000F0C4
:102AE000F80006EB4006FEF77FFB00EBC00101EBB0
:102AF000001061684900B0FBF1F7FEF775FB3CE0A0
:102B000055E0FEF761FB00EBC00101EB00106168CE
:102B10004900B0FBF1F0B0FBF5F00601FEF754FB05
:102B200000EBC00101EB001061684900B0FBF1F758
:102B3000FEF74AFB00EBC00101EB001061684900A1
:102B4000B0FBF1F0B0FBF5F06FF01801484307EB74
:102B5000800108EBC100B0FBF5F000F0F80006EBD7
:102B60004006FEF731FB00EBC00101EB001061688D
:102B70004900B0FBF1F7FEF727FB00EBC00101EBCA
:102B8000001061684900B0FBF1F0B0FBF5F06FF0A8
:102B90001801484307EB800108EBC100B0FBF5F0DA
:102BA00000F00700216830448860BDE8F081FEF73E
:102BB0000BFB00EBC00101EB001061688900B0FB6A
:102BC000F1F6FEF701FB00EBC00101EB00106168BC
:102BD0008900B0FBF1F0B0FBF5F06FF0180148434D
:102BE00006EB800108EB0110B0FBF5F000F0F006F9
:102BF000FEF7EAFA00EBC00101EB00106168890002
:102C0000B0FBF1F0B0FBF5F006EB0016FEF7DCFAD6
:102C100000EBC00101EB001061688900B0FBF1F727
:102C2000FEF7D2FA00EBC00101EB001061688900E9
:102C3000B0FBF1F0B0FBF5F06FF01801484307EB83
:102C4000800108EB0110B0FBF5F000F00F00A9E7E0
:102C5000001401400010014090F83910212901D0E2
:102C6000022070478168B1F5805F016A0BD04A1C71
:102C70000262026809785160C18C491E0904090C7E
:102C8000C1840ED017E009880268C1F308015160C1
:102C900001690029016A02D0491C0162ECE7891C24
:102CA000FBE70168CA6822F08002CA600068C16858
:102CB00041F04001C160002070472DE9F041984685
:102CC00017460E460446069D1DE0681C1BD02DB11C
:102CD000FEF736F9A0EB0800A84214D92068C168B5
:102CE00021F4D071C1602068416921F00101416186
:102CF000202084F8390084F83A00002084F8380055
:102D00000320BDE8F0812068006836EA000004D0A6
:102D10000020B842D9D00020F3E70120F9E70000F5
:102D20000148FEF787BF000024A30020FEE7FEE76E
:102D30000FB4084B10B504A902AA039800F0E8FDEF
:102D4000044602A9002001F07AF9204610BC5DF883
:102D500014FB00003F40000837B514460846064BF8
:102D60006A46214600F0D4FD04466946002001F081
:102D700066F920463EBD00003F40000803B40198BC
:102D80004100009850EAC12018BF04204A0D18BF26
:102D900040F0010040F2FF72B2EB515F08BF40F01B
:102DA0000200012808BF052002B0704700000000A3
:102DB00010B52F499FED2C1B2DED020B84B005980B
:102DC00020F000408842D8BF9DED040B2DDD29493D
:102DD000884209D1049840B94FF0010000F0E0FCAE
:102DE00000F0AEFC06B010BD05DB9DED040B00F05D
:102DF0009BFC06B010BD68469DED040B00F0ACF8DE
:102E000010F0030004BF9DED021B9DED000B0CD0E4
:102E100001280ED09DED021B9DED000B022817D05E
:102E2000012000F0E9FB06B010BD00F0B1FA06B0D9
:102E300010BD9DED021B9DED000B012000F0DCFBA1
:102E400051EC100B81F0004106B041EC100B10BDAD
:102E500000F09EFA51EC100B81F0004106B041ECFD
:102E6000100B10BD0000000000000000000000007A
:102E7000FB21E93F0000F07F2DED020B019820F0CF
:102E8000004001909DED000B02B070470000000073
:102E900010B52F499FED2C1B2DED020B84B005982A
:102EA00020F000408842DCBF00209DED040B32DDA5
:102EB0002849884209D1049840B94FF0010000F038
:102EC0006FFC00F03DFC06B010BD05DB9DED040B72
:102ED00000F02AFC06B010BD68469DED040B00F022
:102EE0003BF810F0030011D0012818D09DED021B13
:102EF0009DED000B02281AD000F04AFA51EC100B9D
:102F000081F0004106B041EC100B10BD9DED021B9D
:102F10009DED000B012000F06FFB06B010BD9DED94
:102F2000021B9DED000B00F033FA06B010BD01202E
:102F300000F062FB51EC100B81F0004106B041EC57
:102F4000100B10BD00000000000000000000000099
:102F5000FB21E93F0000F07F2DE9F14F04462DED04
:102F6000020B2DED088B8AB09FEDE70B80ED020B75
:102F7000139EE74826F0004585420ADC9DED120BC2
:102F8000002084ED000B0AB0BDEC088B03B0BDE857
:102F9000F08FE0489FEDE0AB9FEDE1BBA84247DD3D
:102FA000E14F9FEDE39B9FEDE48B9DED120B53EC06
:102FB0001A2B51EC100B002E1CDDFDF763FA41ECCF
:102FC000100BBD4208D053EC1B2B51EC100BFDF73E
:102FD00059FAC4E900010BE053EC192B51EC100B2A
:102FE000FDF750FA53EC182BFDF74CFAC4E9000139
:102FF0000120C8E7FDF7A5F941EC100BBD4208D050
:1030000053EC1B2B51EC100BFDF79BF9C4E90001AD
:103010000BE053EC192B51EC100BFDF792F953EC2C
:10302000182BFDF78EF9C4E900014FF0FF30AAE735
:10303000C348A84279DB9DED120B51EC100B01F057
:1030400003F841EC180B9FEDC00B53EC102BFDF770
:103050001FFA9FEDBF1B53EC112BFDF772F9FDF723
:1030600009FB0746FDF7F5FA41EC190B53EC1A2B57
:10307000FDF70EFA53EC182BFDF707FA41EC180B8D
:1030800053EC1B2B51EC190BFDF702FADFF8C8A229
:1030900041EC100B4FEA15580125FA4453EC102B64
:1030A00051EC180BFDF7EEF9032DC4E900013DD0FA
:1030B000C1F30A5005EB4511A8EB0000113981421C
:1030C00034DA0AEB051BB0EE48AA9BED000BF0EEDC
:1030D00068AA53EC102B51EC190BFDF7D9F941EC10
:1030E0001B0B51EC1A0B53EC1B2BFDF7CBF941ECEE
:1030F000180B51EC1A0B53EC182BFDF7C3F953ECDA
:103100001B2BFDF7BFF99BED020B41EC1A0B53ECA7
:10311000102B51EC190BFDF7BBF953EC1A2BFDF7F3
:10312000B1F941EC100B6D1CB8E70EE0002EA8BF02
:103130003846BFF628AF94ED000B51EC100B81F030
:103140000041C4E9000178421DE7C6F3130040F4D2
:10315000801EC6F30A50A0F2F530471100F01F059B
:10316000C5F12000DDF848B00890002006900790D7
:103170000520EC467949002D07EB0002794408BF91
:1031800051F8221009D051F8223001EB8201AB40F6
:103190004A68089922FA01F11943A1FB0E26A1FB06
:1031A0000B131A449A4234BF0123002303EB060891
:1031B0000CEB8003D3E901A60E448E4234BF0121FB
:1031C000002192448A4411B1924502D903E092450C
:1031D00001D2012100E00021C3E901A641444CF8DD
:1031E0002010011EA0F10100C4DC029800F1005083
:1031F000850F0298DDE903678000DDF81480FDF794
:1032000028FA41EC1A0B3046FDF7A0FB9FED541B4A
:1032100053EC112BFDF73CF941EC1B0B3846FDF745
:1032200095FB9FED511B53EC112BFDF731F941EC50
:10323000180B4046FDF78AFB9FED4D1B53EC112BFD
:10324000FDF726F941EC190B51EC180B53EC192B37
:10325000FDF777F853EC1B2BFDF773F853EC1A2BA3
:10326000FDF76FF8CDE90801002008909DED080BEF
:1032700053EC1A2B51EC100BFDF704F953EC1B2BFC
:10328000FDF700F953EC182BFDF7FCF853EC192B64
:10329000FDF7FBF89FED381B53EC112BFDF7F8F809
:1032A0009FED370B41EC180B53EC102B9DED080BE9
:1032B00051EC100BFDF7ECF853EC182BFDF741F82F
:1032C0009FED310B41EC180B53EC102B9DED080BCF
:1032D00051EC100BFDF7DCF853EC182BFDF731F82F
:1032E00041EC100B139810F0004F06D06D4251ECDA
:1032F000100B81F0004141EC100B284684ED000BCF
:1033000041E6000000000000000000000000000096
:10331000FB21E93F7CD9024000004054FB21F93FEA
:103320003163621A61B4D03DFB21F93F0000000017
:103330000000601A61B4D03D7370032E8A19A33B5C
:10334000FB2139410000000083C8C96D305FE43FB4
:10335000000000000000E03F423200009031000019
:10336000000000000000103E000000000000103CC3
:10337000000000000000103A182D4454FB21F93DD4
:103380003326A611460B113C00000054FB21F93DE9
:1033900010B52DED040B2DED088B82B0B0EE419AE7
:1033A000F0EE619A0B9820F000449FED4BABB4F126
:1033B000795F11DA9DED0A0B51EC100BFDF75AF90C
:1033C000002801BFB0EE4A0AF0EE6A0A02B0BDEC76
:1033D000088B04BF04B010BD9DED0A0B53EC102BFD
:1033E00051EC100BFDF754F841EC180B3C4806214A
:1033F000B0EE480AF0EE680A784400F081F853EC29
:10340000182B51EC100BFDF743F89DED0A0B41EC26
:103410001B0B53EC192B51EC100BFDF739F841EC59
:10342000190B53EC1B2B51EC180BFDF731F853EC37
:10343000192BFDF727F89FED2C0B41EC190B53ECE2
:10344000102B51EC180BFDF723F841EC100B28481A
:10345000844210DA53EC192B51EC100BFDF712F8E3
:1034600053EC1A2BFDF711F841EC100B02B0BDEC38
:10347000088B04B010BD1F48A042BCBF9FED1E1BAF
:103480008DED001B06DBA4F50010019000200090DC
:103490009DED001B51EC100B53EC112BFCF7F2FFD0
:1034A0009DED000B41EC180B53EC102B51EC1A0B5B
:1034B000FCF7E8FF41EC1A0B53EC192B51EC180BFD
:1034C000FCF7E0FF53EC1A2BFCF7DFFF41EC100B8D
:1034D000CCE7000000000000000000000000F03F0A
:1034E000B42E000000000000000000000000E03FDB
:1034F0003333D33F0000E93F000000000000D23F1B
:1035000070B504462DED028B4D1E00EBC500B0EEEC
:10351000408AF0EE608A90ED000B35F0060017D07F
:1035200053EC182B51EC100BFCF7B2FF41EC100BD5
:103530006D1E04EBC50090ED001B51EC100B53EC1D
:10354000112BFCF7FEFE41EC100B35F00600E7D125
:10355000022D36D0042D1CD0062D1CBFBDEC028BD5
:1035600070BD53EC182B51EC100BFCF791FF94ED50
:103570000A1B53EC112BFCF7E4FE53EC182BFCF761
:1035800087FF94ED081B53EC112BFCF7DAFE41EC9E
:10359000100B53EC182B51EC100BFCF779FF94ED4A
:1035A000061B53EC112BFCF7CCFE53EC182BFCF74D
:1035B0006FFF94ED040B53EC102BFCF7C2FE41ECB3
:1035C000100B53EC182B51EC100BFCF761FF94ED32
:1035D000021B53EC112BFCF7B4FE53EC182BFCF739
:1035E00057FF94ED001B53EC112BFCF7AAFEBDEC2A
:1035F000028B41EC100B70BD31B504462DED040B70
:103600002DED0A8BB0EE41BAF0EE61BA0B989DED4C
:103610000A0B20F00040B0F1795F0DDA51EC100B8D
:10362000FFF7ACFB042808BF00F09AF89DED0A0BE9
:10363000BDEC0A8B05B030BD53EC102B51EC100BD8
:10364000FCF726FF41EC180B9DED0A0B53EC182BF1
:1036500051EC100BFCF71CFF41EC190B2C48B0EEA1
:10366000480AF0EE680A05217844FFF749FF9FED0C
:103670002ACBB0EE40AAF0EE60AA9CB353EC1C2B10
:1036800051EC190BFCF704FF41EC1C0B53EC1A2B0B
:1036900051EC190BFCF7FCFE9FED210B41EC190BD3
:1036A00053EC102B51EC1B0BFCF7F2FE53EC192BD7
:1036B000FCF7E8FE53EC182BFCF7EAFE53EC1B2B4F
:1036C000FCF7E0FE53EC1C2BFCF7DCFE9DED0A1B27
:1036D00053EC112BFCF7D9FEBDEC0A8B05B041EC85
:1036E000100B30BDFFE753EC1A2B51EC180BFCF715
:1036F000CFFE53EC1C2BFCF724FE53EC192BFCF7EC
:10370000C7FE9DED0A1B53EC112BFCF71AFEE3E7F5
:103710003C2D000000000000495555555555C5BFCA
:10372000000000000000E03F10B553EC102B51ECFE
:10373000100BFCF706FE41EC100B10BD0000000062
:103740009FED050B10B553EC102B51EC100BFCF753
:1037500011FF41EC100B10BD000000000000000044
:103760009FED050B10B553EC102B51EC100BFCF733
:103770008FFE41EC100B10BD000000000000001097
:1037800002E008C8121F08C1002AFAD1704770472A
:10379000002001E001C1121F002AFBD17047000088
:1037A0000149086070470000000100202DE9FF5F1B
:1037B000DDE90220010DDDF838B0024318D044F6EF
:1037C0001050A1F2FF3141430D140F98012820D071
:1037D000A5EB0B00401C5FEA000A4FF00004474EC7
:1037E000DFF81C91A046504616D5CAF1000728E024
:1037F0000F98012443A2012808D0002100980F9BB4
:10380000C0E90021C0E90243BDE8FF9F6FEA0B0158
:10381000F4E7CBF10000DEE7074612E0F80707D037
:103820002246334640464946FCF732FE80468946EA
:103830002246334610461946FCF72AFE04460E4639
:103840007F10002FEAD1DDE90201BAF1000F4246F4
:103850004B4602DAFCF71CFE01E0FCF78BFE044647
:103860000E460022284BFDF747F803D84FF0FF30F3
:10387000014607E00022254B20463146FCF761FD5A
:10388000FDF721F8102409E0002C0ADB0A220023AE
:10389000FCF7F4FC019B30321A55641E50EA010219
:1038A000F2D1641C019AC4F1110314440F9A012A45
:1038B00003D0012208430DD10AE0084304D00020C0
:1038C0004FF0110B0F9080E7A3EB0B056D1E0DE081
:1038D0005B4504DD4FF0000205F1010504E003DA69
:1038E0004FF00002A5F10105002AECD000980F99D5
:1038F000C0E90231C0E9004586E70000000024402D
:103900000000F03F300000000000F0430000E03F06
:103910002DE9FF4F95B09B468946064600250FE2EC
:10392000252877D100242746F84A0121059400E094
:10393000044316F8013F203B01FA03F01042F7D18F
:1039400030782A2811D06FF02F033078A0F13002A0
:10395000092A16D8059A44F0020402EB820203EB0E
:1039600042021044761C0590EFE759F8042B0592AB
:10397000002A03DA504244F40054059044F0020453
:10398000761C30782E2816D116F8010F44F0040466
:103990002A280DD06FF02F023078A0F13003092BC8
:1039A00009D807EB870302EB4303C718761CF3E73C
:1039B00059F8047B761C30786C280FD006DC4C2834
:1039C00017D068280DD06A2814D104E0742810D0CC
:1039D0007A280FD10DE044F400140AE044F4801476
:1039E00001E044F440147278824202D104F580145C
:1039F000761C761C307866280BD013DC582877D0DC
:103A000009DC002875D04528F6D04628F4D0472890
:103A10001AD19DE118E0632835D0642879D0652853
:103A200012D195E1702873D008DC6728F1D069289D
:103A30006FD06E280DD06F2806D1B5E073282CD03A
:103A4000752875D0782874D05A46179990476D1C00
:103A500075E1C4F30250022809D003280DD0D9F82B
:103A6000001004280DD00D6009F1040967E1D9F8B0
:103A70000010EA17C1E90052F6E7D9F800100D80EE
:103A8000F2E70D70F0E719F8041B8DF80010002024
:103A90008DF80100EA46012003E059F804AB4FF02D
:103AA000FF3061074FF0000102D40DE008F1010181
:103AB0008846B9420FDA8045F8DB1AF80810002969
:103AC000F4D108E008F1010188468142FADB1AF8D6
:103AD00008100029F6D105985B46A0EB080721469F
:103AE0003846179A00F094FA284400EB080507E0DE
:103AF0004DE029E10DE01AF8010B5A46179990475D
:103B0000B8F10108F7D25B4621463846179A13E10F
:103B100042E00A220092C4F302524FF0000A022A45
:103B200008D059F804CB032A4FEAEC710AD00DE013
:103B300029E02AE009F1070121F00702F2E802C1B9
:103B4000914609E00FFA8CFC4FEAEC71042A03D18C
:103B50004FFA8CFC4FEAEC71002907DA0A46002183
:103B6000DCF1000C61EB02012D2202E0220504D5FC
:103B70002B228DF80420012203E0E20701D020224D
:103B8000F7E7904659E00A2102E010220DE01021EB
:103B90004FF0000A00910BE010224FF0000A44F0B1
:103BA00004040827009203E008224FF0000A009264
:103BB000C4F30252022A05D059F804CB0021032A8B
:103BC00008D009E009F1070121F00702F2E802C17B
:103BD000914605E01FFA8CFC042A01D10CF0FF0C81
:103BE0004FF00008220728D5702806D0009B83F0EC
:103BF000100353EA0A0305D00EE040228DF804209A
:103C0000012208E05CEA010206D030228DF804208F
:103C10008DF8050002229046009B83F0080353EACA
:103C20000A030AD15CEA010201D1620705D53022FC
:103C30008DF804204FF001087F1E582804D034A0CE
:103C400003900EA802900DE036A0F9E753466046B7
:103C5000009AFCF713FB84460398825C0298401E8E
:103C6000029002705CEA0100F0D1029806A9081ADD
:103C700000F1200A600702D524F4803400E0012717
:103C8000574502DDA7EB0A0000E0002000EB0A0127
:103C9000009005984144401A0590E00306D45B4625
:103CA0002146179A059800F0B3F90544002706E06D
:103CB00001A85A46C05D179990476D1C7F1C474567
:103CC000F6DBE0030CD55B462146179A059800F019
:103CD0009FF9054404E030205A46179990476D1C1F
:103CE0000099481E00900029F5DC08E0029802992E
:103CF0005A460078491C0291179990476D1CBAF1F9
:103D00000001AAF1010AF1DC65E1000009280100C7
:103D10003031323334353637383961626364656641
:103D20000000000030313233343536373839414203
:103D3000434445460000000000F058F90544761C55
:103D4000307800287FF4ECAD19B02846BDE8F08F3C
:103D5000620700D4062709F1070222F0070CFCE8ED
:103D60000223E14603F000485FEA080C02D00FF29C
:103D7000702C0DE05FEA045C02D50FF2682C07E0BE
:103D80005FEAC47C02D00FF2602C01E0AFF2700C4D
:103D90004FF0FF3823F00043CDF850C065280CD019
:103DA00006DC452809D046281DD047283DD13DE0F6
:103DB000662818D067287ED138E00021112F01DB5A
:103DC000112000E0781CCDE9000106A90EA8FFF73C
:103DD000EDFCDDE90F010E9A03910021009207F13D
:103DE000010A04914DE04FF000400097CDE9011029
:103DF00006A90EA8FFF7DAFCDDE90F0203920E9B7D
:103E000011990022DDF80CA00093049211B9791CDD
:103E100000EB010AB7EB0A0004D4C0F1FF3007F150
:103E2000010A0490AAEB0700019044E0012F00DA98
:103E300001270021112F01DD112000E03846CDE9D6
:103E4000000106A90EA8FFF7B1FCDDE90F010E9AEB
:103E50000391002104910092BA4621070CD40399E2
:103E6000514500DA8A46BAF1010F05DD009AAAF140
:103E70000101515C302908D0B84202DA10F1040F78
:103E800006DA0121CDE9011015E0AAF10101E9E707
:103E9000002805DC049901440491AAEB000102E02A
:103EA000411C514500DD8A460499401A401C01908E
:103EB0004FF000400290200704D40198504501DBE8
:103EC000CDF8048000208DF84F0002980DF14F07C7
:103ED000B0F1004F25D02B200E9002984FF0020831
:103EE00000280CDA404202902D200E9007E00A21B3
:103EF0000298FCF70DFC3031029007F8011DB8F173
:103F00000001A8F10108F2DC02980028EFD1791E27
:103F10000E980870307800F0200040F0450007F857
:103F2000020D12A8C01B00F107081498007800B118
:103F3000012000EB0A01019801EBE0710598414472
:103F4000401A401E0590E00306D45B462146179AAE
:103F5000059800F05DF805441498007818B15A46A9
:103F6000179990476D1CE00324D55B462146179AAC
:103F7000059800F04DF805441CE00498002807DB84
:103F8000DDE90301884203DD0098405C179901E0F8
:103F9000179930205A469047049805F10105401CB6
:103FA00004900198401E019004D12E205A46179982
:103FB00090476D1CBAF10001AAF1010ADDDC05E0B1
:103FC00017F8010B5A46179990476D1CB8F100017C
:103FD000A8F10108F4DC5B462146179A0598ABE688
:103FE0002D0000002B000000200000002DE9F04112
:103FF000044600251E461746880404D405E03946C9
:104000002020B0476D1C641EF9D52846BDE8F0811C
:104010002DE9F041044600251E469046C80301D50F
:10402000302700E02027880404D505E041463846C3
:10403000B0476D1C641EF9D52846BDE8F0810A68BA
:10404000531C0B601070704782B0CDE9000121F065
:10405000004001909DED000B02B051EC100B704739
:104060002DE9F0418846064615004FF0000418D0AF
:10407000B188F088814217D9A1EB0004AC4200D985
:1040800014463168224601444046FCF728F9F0887E
:10409000204480B2F0803189884231D3401AF080C8
:1040A0002EE00020BDE8F0812AD231890C1AAC4202
:1040B00000D914463168224601444046FCF70FF906
:1040C000F088204480B2F0803189884201D3401AC0
:1040D000F080B788A7B1E019A84200D92F1B77B1AB
:1040E00008EB04003A463168FCF7F9F8F0883844E8
:1040F00080B2F0803189884201D3401AF0803C447C
:104100002046CFE7EFF30580002800D0012070475C
:104110000FB470B50F4D4FF0FF31286800F0CAFCA6
:104120000D4C05AA20460499FEF716FEC6B2A0194A
:104130000AA20BA1FEF7FCFD3044C2B24FF6FF739A
:1041400021460848FDF74AFF286800F08BFC70BC48
:104150005DF814FB900000203CA500200D0A000033
:1041600025730000E4A200201CB5FCF7F7FEFEF763
:1041700069F9FDF7E9FF2E480024016841F40011B8
:1041800001600068224600F4001000900521102014
:10419000FCF74AFF1020FCF73BFF0022052111200D
:1041A000FCF742FF1120FCF733FFFEF75DF8FEF746
:1041B00087F821481F490160A721C0E9011440F296
:1041C000E731C160FDF717FA00B1FEE72020CDE925
:1041D000000469461848FDF7E6F900B1FEE7164805
:1041E00016497C304FF4E1350160C0E901540C26DA
:1041F000C460C0E904468461C461FDF7A3FD00B159
:10420000FEE7FEF707F80C480D493C300160C0E9B5
:104210000154C460C0E904468461C461FDF792FDA5
:1042200000B1FEE700F00EF800F013FCFEE700001E
:104230003038024000100040A8A200200044004096
:104240000050004010B586B000200590012105A85F
:1042500000F064FC064C1422064920616846FCF715
:104260003EF80021684600F0CBFCE06206B010BDCD
:10427000680000208862000801460020842900D0E0
:10428000C81C70471CB5334F802507F10C0404F19E
:104290008C0020600020E080A080258104F10C01CA
:1042A0003960B880DFF8B080F8803D81C8F8000040
:1042B000C8F804000122294604F10C00FCF72FF88D
:1042C0002A4626483968FDF711FE254D4FF0FF318B
:1042D000286900F061FCDFF884A0A9460121D9F823
:1042E000240000F059FCDAF83400BAF82C10006809
:1042F0004068081AB8802189A088091A8AB2216802
:1043000001443846FFF7ACFE0004000CE6D0A1885B
:104310000844A080204600F08BFCD8F80400FCF78D
:10432000C8F905460E46D8F80000FCF7C2F941EC82
:10433000100BCDE9005653EC102B0AA0FFF7E8FE56
:1043400098ED000A89ED020A98ED010A89ED030A49
:10435000C4E7000024A40020F800002024A30020CB
:10436000680000206F646F6D657472795F726967B1
:104370006874202566206F646F6D657472795F6C58
:10438000656674202566000096B034216846FBF708
:10439000CDFF00241C210EA8FBF7C8FF03200D94BD
:1043A00060F30F241C2060F31F44FA2060F307041D
:1043B00040F60A50ADF8340014484FF0FF3631464D
:1043C000006800F0E9FBB146DFF84480114E6D460D
:1043D000002364220EA9D8F8000001F0F5FA0128A4
:1043E000F6D11C220EA9281D0094FBF778FFBDF81A
:1043F0003400ADF8200022274946306800F0CCFB9D
:104400003A4669460448FDF747FEE1E77800002098
:10441000A00000208800002024A300202DE9F04304
:104420000C462DED088B83B007469FEDCC8ACC4D12
:10443000F0EE488A287888B395ED040AD5ED050A90
:1044400095ED021A60EE200A95ED080A20EE010AA9
:1044500095ED031A20EE011A80EE810A10EE100A83
:10446000FCF727F941EC190B85ED0A9B6868FCF70E
:1044700020F941EC100B51EC190B53EC102BFCF70D
:1044800079F841EC100B002085ED0C0B28708DEDB8
:10449000009B53EC102BB3A0FFF73AFED7E90006C0
:1044A0008146304400EE100AF6EE009AB8EEC00ADB
:1044B00020EE290A10EE100AFCF7FBF841EC100B75
:1044C000A6EB090001EE100AAA4885ED0E0BB8EE26
:1044D000C19A90ED001AA848A846B5EEC01AF1EEB0
:1044E00010FA35DDD0ED001AF5EEC01AF1EE10FA33
:1044F0002EDD454651EC100BFCF7EEF808EE100AE5
:104500004A4631469DA0FFF703FEF0EE498A18EEB9
:10451000900AFCF7CEF8CDE9000195ED0E0B9BA0BB
:1045200053EC102BFFF7F4FD18EE900AFCF7C1F8DE
:1045300005460E4618EE100AFCF7BBF841EC100BCE
:10454000CDE9005653EC102B90A0FFF7E1FD41E0C0
:10455000B5EEC01AF1EE10FA11D2D0ED001AF5EE58
:10456000C01AF1EE10FA0AD251EC100BFCF7B4F8B5
:1045700000EE100AF1EE498AB1EE408A2AE0B5EE6B
:10458000C01AF1EE10FA0BD2D0ED001AF5EEC01AF7
:10459000F1EE10FA04DDB1EE498A9FED801B0FE0C9
:1045A000B5EEC01AF1EE10FA14DD90ED001AB5EE7A
:1045B000C01AF1EE10FA0DD2B0EE498A9FED791BC8
:1045C00051EC100B53EC112BFBF762FFFCF784F856
:1045D00008EE900A18EE900AFCF76BF898ED0C1BA9
:1045E000454653EC112BFBF753FFFCF775F808EE2B
:1045F000900A94ED020A30EE280A84ED020A08EED1
:10460000A90A85ED090A10EE100AFCF752F841ECF0
:10461000100BFEF73DFC51EC100BFCF75DF80AEEB9
:10462000100A686AFCF745F841EC100BFEF7C0FB76
:1046300051EC100BFCF750F800EE100A28EE000ABF
:1046400010EE100AFCF735F895ED0A9B53EC192B88
:10465000FBF71EFF41EC1B0B2068FCF72AF853EC1C
:104660001B2BFBF76EFEFCF737F828EE0A0A2060DA
:1046700010EE100AFCF71DF853EC192BFBF708FF9E
:1046800041EC1A0B6068FCF714F853EC1A2BFBF79B
:1046900058FEFCF721F8606095ED07AA1AEE100AA3
:1046A000FCF707F841EC1B0B18EE100AFCF701F8B9
:1046B00053EC192BFBF7ECFE53EC1B2BFBF75AFFCB
:1046C000FCF70AF888EE8A0AE06084ED040AD4ED6B
:1046D000020A95ED050AF4EEC00AF1EE10FA04DDC7
:1046E00095ED061A70EEC10A0AE0B1EE401AF4EE3A
:1046F000C10AF1EE10FA05D295ED061A70EE810AA4
:10470000C4ED020AD7ED000ADFED281A95ED041A70
:10471000F8EE600AD5ED082A60EEA10A60EE800A84
:1047200020EE812AD5ED030A60EEA20AC2EE202A0D
:10473000C4ED052A97ED012AB8EE422A62EE211A4D
:1047400021EE800A20EE010A80EE201A84ED061A7E
:1047500003B0BDEC088BBDE8F08300000000000052
:10476000B80000206F6E6520256C6620256C660DF4
:104770000A0000007000002074000020706C757347
:10478000655F636E742025642025640064656C7425
:10479000612025662025660D0A000000000000004B
:1047A000000000C00000000000000040000048437E
:1047B0002DED048BACB000250E952C460F95109571
:1047C000119512952422984916A81395FBF787FD99
:1047D00095492422243105A8FBF781FDDFED938A5A
:1047E0000027B0EE688A9FED929A1C2124A8FBF75F
:1047F0009DFD904E1F942094691E306900F0CCF905
:1048000018218D48FDF764F818218C48FDF760F8F1
:10481000A146884C0A21606900F0BEF920681F900B
:1048200060682090C4F80490C4F800900EAB209803
:1048300043F825000DF1440C1F984CF82500002684
:104840006D1CEDB2344630463146032D00D30025B1
:1048500000229A465AF8228018EB060644EBE874C8
:104860005CF8228002F1010218EB000041EBE871D4
:10487000032AEFDB03220023FBF700FD80468A4674
:104880000322002330462146FBF7F8FC064642F699
:10489000E064A8FB040C8B460AFB04C1002308FB60
:1048A00003112C22FBF7EAFC044642F6E062A6FB69
:1048B000020C0BFB02C1002306FB03112C22FBF7A9
:1048C000DDFCBDEEC90A06B25A480FFA84F8B8EE0C
:1048D000C01AD0ED020A21EE201ABDEEC11A11EE67
:1048E000101AB8EEC01A149190ED030AA8EB060155
:1048F00021EE001A29EE000ABDEEC11AB0EEC00A80
:104900008DED1E0A29EE200A11EE10BAB0EEC00A93
:104910008DED0D0A00EE106AC16305A8B8EE400ADD
:10492000FDF730FD70EE288ABDEEE80A10EE100AA1
:10493000FBF78FFE41EC100BFEF79EFA51EC100BCB
:10494000FBF798FE42F2D00A04465146504501DD7D
:104950000C4602E0002C00DA0024A6EB0800354EDD
:1049600000EE108AF063B8EE400A16A8FDF70AFDC3
:1049700030EE088ABDEEC80A10EE100AFBF769FE99
:1049800041EC100BFEF778FA51EC100BFBF772FEBE
:104990005146884201DD504602E0002800DA00203E
:1049A0008C4201DD0C4602E0002C00DA0024149950
:1049B000002905DD22490968CC63C1F840900CE06C
:1049C00005DA1F490968C1F83C900C6405E01C4AEF
:1049D0001268C2F83C90C2F84090BBF1000F05DDB0
:1049E000154A11684863484611680BE004DA124919
:1049F0000B68C3F8349004E00F4948460A68C2F8CF
:104A000034900968886324A91FA8FFF707FD38467A
:104A10007F1C05287FF6FDAE00273B463A4624A9B9
:104A2000B06B01F0CBF8F4E6F8610008000000007C
:104A3000714BB0416800002030A20020A8A20020E5
:104A40006CA2002010B500B9012000F0E7FD0020A5
:104A500010BD10B500F07AFE002010BD012000F05E
:104A600078BF000038B5002405460094FFF74AFBE4
:104A700090B16946284601F051F9012801D0FF2084
:104A800038BD009888B10A494FF080500860BFF3E4
:104A90004F8FBFF36F8F08E000231A461946284650
:104AA00001F08CF8012800D0FF24204638BD00001A
:104AB00004ED00E038B505004FF0000000900FD085
:104AC0000024481C0ED001B10C46FFF71BFBB8B107
:104AD0006A460021284601F06FF9012818D104E048
:104AE000802038BD4FF0FF34EFE7009890B10A49BD
:104AF0004FF080500860BFF34F8FBFF36F8F09E016
:104B0000002322461946284600F05EFF012801D006
:104B1000FF2038BD002038BD04ED00E010B5084688
:104B2000012903D0BDE8104000F0F6BE03220021A9
:104B3000012000F020FF040004D000231A4619468B
:104B400001F03CF8204610BD38B50024054600941D
:104B5000FFF7D8FA90B16946284601F0DFF801283E
:104B600001D0FF2038BD009888B10A494FF080502D
:104B70000860BFF34F8FBFF36F8F08E000231A4622
:104B80001946284601F01AF8012800D0FF242046D3
:104B900038BD000004ED00E038B505004FF000001E
:104BA00000900FD00024481C0ED001B10C46FFF736
:104BB000A9FAB8B16A460021284601F0FDF801289B
:104BC00018D104E0802038BD4FF0FF34EFE70098A3
:104BD00090B10A494FF080500860BFF34F8FBFF388
:104BE0006F8F09E0002322461946284600F0ECFEAC
:104BF000012801D0FF2038BD002038BD04ED00E0C1
:104C00003EB504460D46B0F90800FFF735FB02A992
:104C1000CDE90001208A2B4682B2D4E9001001F0D0
:104C20004FF9012801D000203EBD02983EBD000092
:104C30002DE9FE4F042500260446029646E0216831
:104C40002A46014402A8FBF74AFB9DF80800FA280F
:104C500002D0E088401C38E0A288E088BDF80A90C5
:104C6000131A09EB05029DF80910921C934232DBDE
:104C7000022926D121684A46084441192648FBF7F3
:104C80002EFBE0880090A388BDF80A209DF809104B
:104C900022A0FFF73DFADFF880A0DAF80000FBF76A
:104CA00008FD07468846DAF80400FBF702FD41ECF0
:104CB000100BCDE9007853EC102B254925A0FFF708
:104CC00027FAE188A81C49440844E080A188E088CC
:104CD000091AA942B3DA0004000C0FD0A1880A1AFD
:104CE000002A09DD236819181846FBF7F8FAA0888E
:104CF000E188401AA08000E0A680E680E08800906D
:104D0000A388BDF80A209DF8091004A0FFF700FA57
:104D10000020BDE8FE8F0000F8000020726563658A
:104D200069766520524F535F4D414749432068657E
:104D300061642E636D6420256420686561642E6C57
:104D4000656E3A2564202564202564200D0A000044
:104D50009C62000866756E63202573206C6566741E
:104D60005F6D6F746F725F6461746120256620727D
:104D7000696768745F6D6F746F725F6461746120DE
:104D8000256600002DE9F041184C0F460546E668FF
:104D90002068001D00F05EFB38B9206890F82C10E8
:104DA00001208840216981432161681C07D137B106
:104DB0002168BDE8F0410E48091D00F086BB20685F
:104DC0003544B5424560216805D2A06BBDE8F0418D
:104DD000091D00F062BB606B091D00F05EFBA06A5C
:104DE000854200D2A562BDE8F081000024000020C9
:104DF000E0A100202DE9F041054600F073FB2E4CA8
:104E0000A068401CA06020682C4F10B1606940B3BE
:104E10002DE02560A068012829D1002606EB860038
:104E200007EB800000F02BFB761C072EF6D32348FF
:104E30008C3000F024FB2148A03000F020FB1F48FC
:104E4000B43000F01CFB1D48C83000F018FB1B48B4
:104E5000DC3000F014FB19488C3060631430A06320
:104E600005E02068E96AC06A884200D82560606A67
:104E7000401C60626864E96A01202269884010432E
:104E8000206101EB810007EB8000291D00F01DFB74
:104E900000F048FB606900280CD02068E96AC06A0D
:104EA000884207D206494FF080500860BFF34F8F09
:104EB000BFF36F8FBDE8F0812400002004A1002023
:104EC00004ED00E070B5114E114C17E000F072FCDB
:104ED0003068B8B101F01EF900F004FBF068C56855
:104EE000281D00F0B7FAA068401EA0606068401E50
:104EF000606000F017FB284600F055F86068002855
:104F0000E4D170BD01F006F9F8E70000CCA1002063
:104F10002400002030B4026C0B46002A0BD0C1687C
:104F20001144C1604468A14201D30168C16030BC32
:104F30001846FBF7D4B930BC70472DE9F041856BBA
:104F4000174604460026026C82B1C7B1E068FBF741
:104F5000C6F9E168206C091AE1602268914202D228
:104F60006168081AE060022F16D017E02068A8B91F
:104F7000606801F049F80646002060600EE0A06815
:104F8000FBF7ADF9216CA0680844A0606168884215
:104F900004D32068A06001E005B16D1E6D1CA563FF
:104FA0003046BDE8F08110B50446006B00F0CEFA43
:104FB0002046BDE8104000F0C9BA000010484FF488
:104FC0002041420706D0C01D0D4920F00700411ABC
:104FD000C1F520410B4A00230144C2E9000308390E
:104FE000103A21F0070111604B600B600B1AC0E909
:104FF000001393604FF000405360D0607047000092
:10500000040100201C000020084C4FF08056084D81
:10501000FFF758FF2068012804D92E60BFF34F8F97
:10502000BFF36F8F00F028FAF2E7000004A1002020
:1050300004ED00E02DE9F0470E46DDE9098417464E
:10504000824691009946089DA522206BFBF767F9DF
:105050006FF00301206B01EB8701084420F0070784
:10506000780707D0502080F31188BFF34F8FBFF32C
:105070006F8FFEE72218315C82F83410315C11B179
:10508000401C1028F6D3002684F84360072D00D377
:105090000625E562C4E91356201D00F0FBF904F172
:1050A000180000F0F7F92461C5F107006462A061FF
:1050B000666584F858604A465146384600F00EF955
:1050C0002060B8F1000F01D0C8F80040BDE8F087BB
:1050D00030B5114900E011460A688242FBD34B68A3
:1050E0005C18844203D1406818444860084643680D
:1050F0001C18944209D1084C103C2468A24209D0E3
:1051000052681A4442600A6812680260814200D004
:10511000086030BD0460F9E71C00002010B50446AB
:1051200000F0E0F9A06B28B15FF0000400F0FAF99C
:10513000204610BD0124F9E70648416B096829B1F2
:10514000416BC968C9684968816270474FF0FF3197
:10515000FAE700002400002008484068401C4FF097
:10516000500080F3118804D0BFF34F8FBFF36F8FCF
:10517000FEE7BFF34F8FBFF36F8FFEE70000002005
:105180002DE9F041044600F0ADF994F9455004F1E1
:10519000240609E0606A48B1304600F081FF08B19A
:1051A00000F062FA6D1E6DB2002DF3DC4FF0FF3699
:1051B00084F8456000F0B6F900F094F994F9445091
:1051C00004F1100709E0206948B1384600F068FF93
:1051D00008B100F049FA6D1E6DB2002DF3DC84F8C1
:1051E0004460BDE8F04100F09DB900002DE9F041B8
:1051F0000546002700F0DEFA314E306808B9FFF7A7
:10520000DDFEF06805424BD1C5B3083568070ED006
:1052100005F00700C0F108000544680707D05020DA
:1052200080F31188BFF34F8FBFF36F8FFEE72DB36D
:105230007068854234D82248103001460C6801E07D
:1052400020460C466168A94202D221680029F7D1A4
:1052500031688C4224D00768216801606068083793
:10526000411B10290FD96019420708D0502080F344
:105270001188BFF34F8FBFF36F8FFEE710E04160DF
:105280006560FFF725FF61687068401A7060B2685A
:10529000904200D2B060F06801430020C4E90001F0
:1052A00000F038FF780707D0502080F31188BFF353
:1052B0004F8FBFF36F8FFEE73846BDE8F0810000E7
:1052C0000C0000200449086818B10868026D521CDF
:1052D00002650868704700002400002010B5031F15
:1052E0004FF080741C601B1F21F001011960191F11
:1052F000044B0B6014390A60091F6FF00202443836
:105300000A6010BD5951000810B500221C2103206D
:1053100000F031FB0149886310BD000068000020E7
:105320001CB500200190009001216846FFF7F6FBB4
:10533000124C6061FFF708FC01216846FFF7EEFBA5
:10534000A061FFF701FC01216846FFF7E7FBE06180
:10535000FFF7FAFB01216846FFF7E0FB2062FFF749
:10536000F3FB01216846FFF7D9FB6062FFF7ECFB16
:1053700001A8FFF773FBA0621CBD000068000020BD
:10538000B0B00025012280216846FAF7C8FFFFF778
:10539000C7FFFFF7B9FF1422234920A8FAF79FFFA0
:1053A000002120A8FFF72CFC204C1F491422E062AA
:1053B000143125A8FAF793FF002125A8FFF720FC58
:1053C00019492063142228312AA8FAF788FF0021FE
:1053D0002AA8FFF715FC60631548FCF751F9002176
:1053E0001448FCF7E3FB04211248FCF7DFFB08211B
:1053F0001148FCF7DBFB0C210F48FCF7D7FB0FA093
:10540000FEF786FE2069FFF79FFB6D1C052DF9DB7B
:1054100041F288342046FFF715FB03490AA00C39F6
:10542000FEF776FEF6E700004C62000868000020F8
:10543000A8A2002030A200206CA200207265626F3A
:105440006F740D0A0000000066756E632025730DF1
:105450000A000000D0E9013201699A60D0E9012315
:105460005A604A68824201D182684A600022026121
:105470000868401E0860704770477047704700F129
:1054800008014FF0FF32C0E90112C1600161002143
:105490000160704700210161704730B50B685A1CEC
:1054A00002D000F1080202E0026904E022465468DA
:1054B00025689D42FAD953684B6099608A605160B3
:1054C00008610168491C016030BD42684A60936808
:1054D0008B6093685960916008610168491C0160A4
:1054E00070470000502080F31188BFF34F8FBFF347
:1054F0006F8F0A494868401C486001280CD1084851
:10550000006810F0FF0F07D0502080F31188BFF320
:105510004F8FBFF36F8FFEE7704700000000002041
:1055200004ED00E00849486828B1401E486001D1F8
:1055300080F311887047502080F31188BFF34F8F9C
:10554000BFF36F8FFEE700000000002070B5002859
:1055500027D0144DA0F108046168E868014207D122
:10556000502080F31188BFF34F8FBFF36F8FFEE79A
:1055700022683AB1502080F31188BFF34F8FBFF3F8
:105580006F8FFEE78143616000F014F9606869681D
:10559000084468602046FFF79BFDBDE8704000F0BE
:1055A000B9BD70BD0C00002006484FF47A71006848
:1055B000B0FBF1F14FF0E020491E4161072101618C
:1055C000704700006000002010B5FAF741FE114955
:1055D00010280ED300F1E02090F8F0030A789042F2
:1055E00007D2502080F31188BFF34F8FBFF36F8F26
:1055F000FEE709480068896800F4E060884207D93E
:10560000502080F31188BFF34F8FBFF36F8FFEE7F9
:1056100010BD0000000000200CED00E010B50200FD
:1056200014D00F48006B38B1502080F31188BFF3BD
:105630004F8FBFF36F8FFEE700F0BCF800211046DC
:10564000FFF7A0FB00F066FD002807D105494FF0E9
:1056500080500860BFF34F8FBFF36F8F10BD000005
:105660002400002004ED00E001490120C8617047DA
:105670002400002010B50C4650B1094909681831C2
:10568000FFF70BFF2046BDE810400121FFF77ABB72
:10569000502080F31188BFF34F8FBFF36F8FFEE769
:1056A0002400002070B5040039D01D4DE06A29683F
:1056B000C96A884233D2A069002804DB2868C06A1E
:1056C000C0F10700A061E16A164E01EB810160693B
:1056D00006EB810188421FD1201DFFF7BBFE01218F
:1056E00050B9E06A00EB800256F8222022B92A69FC
:1056F00001FA00F082432A612868C06AE0622A69E0
:1057000081401143296100EB800006EB8000211DE0
:10571000BDE87040FFF7D9BE2868C06AE06270BD7E
:105720002400002004A1002028B107490A6A026071
:10573000C96841607047502080F31188BFF34F8FD4
:10574000BFF36F8FFEE70000240000201CB5154852
:105750000024CDE900402346802213A1144800F024
:10576000AFFB012809D0401C1AD1502080F31188CA
:10577000BFF34F8FBFF36F8FFEE7502080F3118888
:10578000BFF34F8FBFF36F8F06484FF0FF312C38B8
:10579000816201214161C460BDE81C4000F04CB849
:1057A0001CBD00005000002049444C450000000092
:1057B000095000080248016B491C01637047000052
:1057C0002400002010B51A4C206B10B10120E061BC
:1057D00010BD0020E061206821680068096B8842E4
:1057E00004D8216820683431FFF747FE2069114949
:1057F000B0FA80F0C0F11F0000EB800051F82020CB
:105800006AB101EB800000F108024168496841601B
:10581000914201D149684160C868206010BD5020A4
:1058200080F31188BFF34F8FBFF36F8FFEE7000047
:105830002400002004A100201CB532480168324A2F
:10584000914207D1502080F31188BFF34F8FBFF3EF
:105850006F8FFEE700682C49491E884207D150200F
:1058600080F31188BFF34F8FBFF36F8FFEE7274997
:1058700008780190FF20087008788DF800009DF8E6
:1058800000009DF8002000F0F000904207D050206A
:1058900080F31188BFF34F8FBFF36F8FFEE79DF842
:1058A00000001B4A00F0500010700720906005E0D7
:1058B0009DF800305B008DF80030401E9DF80030F0
:1058C0001B06F5D4000200F4E060906001980870B7
:1058D0000C482030016841F470010160016841F01A
:1058E00070410160FFF760FE00205060FAF776FC1F
:1058F0000848016841F040410160FAF75FFC002070
:105900001CBD000000ED00E071C20F4100E400E0AA
:105910000000002034EF00E010B50C4648B184428E
:105920000FD9502080F31188BFF34F8FBFF36F8FD3
:10593000FEE7502080F31188BFF34F8FBFF36F8FC6
:10594000FEE70222002100F016F8002800D0846350
:1059500010BD10B502460021012000F00CF8041E15
:1059600007D00021416001600B460A46C16000F08B
:1059700025F9204610BD2DE9F04117460E460500D9
:1059800016D0EEB105FB06F05030FFF72FFC0400F7
:105990000CD004F15000AEB12060C4E90F5620468F
:1059A000012100F0C7F8204684F84C70BDE8F08172
:1059B000502080F31188BFF34F8FBFF36F8FFEE746
:1059C0000020E1E72460E8E72DE9FF4F002683B0DF
:1059D0009B468A46040003D0BAF1000F08D011E0BC
:1059E000502080F31188BFF34F8FBFF36F8FFEE716
:1059F000206C38B1502080F31188BFF34F8FBFF374
:105A00006F8FFEE700F088FADFF824814FF000097D
:105A10004FF0805748B9059838B1502080F311886D
:105A2000BFF34F8FBFF36F8FFEE7FFF75BFDA56BF3
:105A300045B351462046E668FFF76CFABBF1000F0C
:105A400013D0E660606A50B104F1240000F028FB36
:105A500028B1C8F80070BFF34F8FBFF36F8FFFF707
:105A600061FD012007B0BDE8F08F6D1EA5632068C1
:105A700010B9FFF727FC606020690028EFD004F11F
:105A80001000E3E7059808B11EB106E0FFF74AFDF4
:105A900027E06846FFF748FE0126FFF743FDFFF7C2
:105AA00089FEFFF71FFD94F94400401C01D184F8E2
:105AB000449094F94500401C01D184F84590FFF7CB
:105AC00031FD05A9684600F0C5F9002820460AD036
:105AD000FFF756FB00F01EFB2046FFF71FFB0028D8
